:020000040800F2
:1000000000000420B53D0008793800087B3800085E
:100010007D3800087F3800088138000800000000A3
:10002000000000000000000000000000833800080D
:10003000853800080000000087380008893800086B
:10004000053E0008053E0008053E0008053E000884
:10005000053E0008053E0008053E0008053E000874
:10006000053E0008053E0008053E0008053E000864
:10007000053E0008053E0008053E0008053E000854
:10008000053E0008053E0008053E0008053E000844
:10009000053E0008053E0008053E0008053E000834
:1000A000053E0008053E0008053E0008053E000824
:1000B000053E0008053E0008053E0008053E000814
:1000C000053E0008053E0008053E0008053E000804
:1000D000053E0008053E0008053E0008053E0008F4
:1000E000053E0008053E0008053E0008053E0008E4
:1000F000053E0008053E0008053E0008053E0008D4
:10010000053E0008053E0008053E0008053E0008C3
:10011000053E0008053E0008053E0008053E0008B3
:10012000053E0008053E0008053E0008053E0008A3
:10013000053E000800000000000000000000000074
:1001400000000000000000000000000095380008DA
:10015000053E0008053E0008053E0008053E000873
:10016000053E0008053E0008053E0008053E000863
:10017000053E0008053E00080000000000000000E9
:10018000053E0008053E0008053E0008053E000843
:10019000053E0008053E000800000000053E00087E
:1001A000000000000000000000000000053E000804
:1001B000053E0008053E00080000000000000000A9
:1001C000000000000000000000000000000000002F
:1001D000000000000000000000000000053E0008D4
:1001E00010B5054C237833B9044B13B10448AFF371
:1001F00000800123237010BDD40100200000000006
:100200000040000808B5034B1BB103490348AFF396
:10021000008008BD00000000D80100200040000858
:1002200053B94AB9002908BF00281CBF4FF0FF315D
:100230004FF0FF3000F072B9ADF1080C6DE904CE5B
:1002400000F006F8DDF804E0DDE9022304B07047B1
:100250002DE9F047089E04468846002B4BD18A4280
:10026000154667D9B2FA82F24AB1C2F1200701FA03
:1002700002F320FA07F7954047EA030894404FEA53
:10028000154E230CB8FBFEF71FFA85FC0EFB1788F2
:1002900043EA084307FB0CF1994209D9EB1807F12F
:1002A000FF3080F01B81994240F21881023F2B44BD
:1002B0005B1AA4B2B3FBFEF00EFB103344EA034416
:1002C00000FB0CFCA44509D92C1900F1FF3380F088
:1002D0000781A44540F2048102382C4440EA0740DB
:1002E000A4EB0C0400271EB1D4400023C6E9004350
:1002F0003946BDE8F0878B4209D9002E00F0EB802B
:100300000027C6E9000138463946BDE8F087B3FA50
:1003100083F7002F47D18B4202D3824200F2FA804A
:10032000841A61EB030301209846002EE0D0C6E951
:100330000048DDE702B9FFDEB2FA82F2002A40F09F
:100340008F80491B4FEA154E1FFA85F80127B1FB34
:10035000FEFC230C0EFB1C1143EA014308FB0CF1CD
:10036000994207D9EB180CF1FF3002D2994200F202
:10037000CD808446591AA3B2B1FBFEF00EFB1014D7
:1003800043EA044408FB00F8A04507D92C1900F102
:10039000FF3302D2A04500F2B6801846A4EB080451
:1003A00040EA0C409FE7C7F1200CBB4022FA0CFE4C
:1003B0004EEA030E01FA07F420FA0CF521FA0CF3C9
:1003C0004FEA1E482543B3FBF8F92C0C08FB193300
:1003D0001FFA8EFA44EA034309FB0AF49C4202FA2C
:1003E00007F200FA07F10BD91EEB030309F1FF3006
:1003F00080F087809C4240F28480A9F10209734416
:100400001B1BADB2B3FBF8F008FB103345EA034405
:1004100000FB0AFAA24508D91EEB040400F1FF33E1
:100420006BD2A24569D90238744440EA0940A0FB66
:100430000289A4EB0A044C45C2464B4654D351D022
:10044000002E69D0B1EB0A0564EB030404FA0CFC3E
:10045000FD40FC404CEA0505C6E90054002747E78B
:10046000C2F1200320FA03F7954001FA02F021FAC5
:1004700003F34FEA154E3843010CB3FBFEF71FFAA6
:1004800085F80EFB173341EA034107FB08F38B4263
:1004900004FA02F407D9691807F1FF3C2FD28B4206
:1004A0002DD9023F2944CB1A81B2B3FBFEF00EFBDB
:1004B000103341EA034100FB08F38B4207D9691866
:1004C00000F1FF3C17D28B4215D902382944C91AD2
:1004D00040EA07473BE73746304609E70746E7E685
:1004E0001846FBE64145ABD2B8EB020A69EB0E02B7
:1004F00001381346A4E76046E9E7184695E76746E2
:10050000D1E781467CE702382C4447E7ACF1020C86
:100510002B442FE7384608E73746E9E6704700BF27
:1005200010B504460E4B18784FF47A73B3FBF0F312
:100530000C4A1068B0FBF3F000F098F868B90F2C83
:1005400001D901200AE0002221464FF0FF3000F0DF
:100550004FF8034B5C60002000E0012010BD00BF9D
:10056000000000201801002008B5032000F02EF83C
:100570000020FFF7D5FF03F037F9002008BD000089
:10058000034A1168034B1B780B441360704700BF8C
:100590000002002000000020014B1868704700BFD7
:1005A0000002002038B50446FFF7F6FF0546B4F117
:1005B000FF3F02D0044B1B781C44FFF7EDFF401BAC
:1005C000A042FAD338BD00BF000000200649CB6826
:1005D00023F4E0631B041B0C000200F4E0600343FF
:1005E000024A1A43CA60704700ED00E00000FA05B5
:1005F00030B4154BDB68C3F30223C3F10704042CAA
:1006000028BF04241D1D062D14D9033B4FF0FF35D0
:1006100005FA04F421EA0401994005FA03F322EAF9
:1006200003031943002807DB0901C9B2074B19541A
:1006300030BC70470023E9E700F00F000901C9B2A0
:10064000034B1954F4E700BF00ED00E000E400E0C4
:1006500014ED00E000F01F02400901239340024A1C
:1006600042F82030704700BF00E100E00138B0F1EF
:10067000807F0AD2064B5860064AF02182F8231088
:100680000020986007221A6070470120704700BF61
:1006900010E000E000ED00E0042805D0054A1368F2
:1006A00023F0040313607047024A136843F0040305
:1006B0001360704710E000E0704708B5FFF7FCFFDB
:1006C00008BD000000230F2B00F2D680F0B482B0EA
:1006D00039E0072200E00022B2403A430234674E7C
:1006E00046F82420664A1468EA4302EA04064F6882
:1006F00017F4803F01D045EA0406614C2660646827
:1007000002EA04064F6817F4003F01D045EA0406E8
:100710005B4C6660A46802EA04064F6817F4801F09
:1007200001D045EA0406564CA660E46822404E68B3
:1007300016F4001F01D045EA0402514CE260013377
:100740000F2B00F2968001229A400C6804EA020501
:10075000AA42F4D14C68122C18BF022C10D1DE082A
:10076000083650F826C003F00704A7000F24BC4049
:100770002CEA040C0C69BC4044EA0C0440F8264006
:1007800004685F000326BE40F64306EA040C4C688A
:1007900004F00304BC4044EA0C0404604C6804F117
:1007A000FF3C112C18BFBCF1010F01D9122C11D143
:1007B000846806EA040CCC68BC4044EA0C048460FB
:1007C000446824EA020C4C68C4F300129A4042EADE
:1007D0000C024260C26816408A68BA403243C26066
:1007E0004A6812F0805FAAD0264A546C44F48044D0
:1007F0005464526C02F480420192019A9C08A61C37
:100800001E4A52F8267003F0030296000F22B240EF
:1008100027EA02071C4A90423FF45DAF02F580626E
:1008200090421AD002F58062904218D002F58062A0
:10083000904216D002F58062904214D002F5806298
:10084000904212D002F58062904210D002F5806290
:1008500090423FF43EAF08223EE701223CE70222ED
:100860003AE7032238E7042236E7052234E7062276
:1008700032E702B0F0BC7047704700BF003801405B
:10088000003C014000380240000002402DE9F047E2
:1008900082B007460D46D0F80080C146CA00521A01
:1008A000930003441A6D596D521A5E6C964200D340
:1008B000164606F1030A4FEA9A0A15E006F1030A02
:1008C0004FEA9A0AEB005B1B9C003C44A16C3B7C0A
:1008D0000093B3B2EAB2404601F042FEA36C334447
:1008E000A364636D3344636509EB451303F510633B
:1008F0009B699BB2534512D9EB005B1B9A003A44AB
:10090000516D136D99420AD24BB15B1AC5EBC5010B
:100910008A003A44566C9E42D0D31E46CEE73EB97A
:100920000123AB40D8F8345825EA0305C8F83458F9
:10093000002002B0BDE8F08700287DD0F0B58BB074
:10094000044690F8BD33E3B1032384F8BD33206837
:1009500001F0C4FB254655F8107B6E460FCD0FC63F
:100960000FCD0FC695E8030086E80300231D0ECBCC
:10097000384601F049FB0021206801F0B5FB002357
:100980001AE080F8BC3303F00DF8DDE7D900C81A8F
:1009900082002244012082F83D0082F83C30A2F817
:1009A0004230002082F83F0050649064CA1A9100DF
:1009B000214408650133DBB20E2BE7D9002315E093
:1009C000D800C11A8A002244002182F8FD1182F861
:1009D000FC3182F8FF11C2F80412C2F80812C21AE0
:1009E00090002044C0F810120133DBB20E2BE7D97F
:1009F000254655F8107B6E460FCD0FC60FCD0FC69E
:100A000095E8030086E80300231D0ECB384601F06D
:100A1000B1FB002384F83830012384F8BD33636AC6
:100A2000012B05D0206801F02AFF00200BB0F0BD9B
:100A3000204600F00FFDF5E70120704790F8BC3329
:100A4000012B0ED010B50446012380F8BC3300689A
:100A500001F009FF206801F03BFB002084F8BC0393
:100A600010BD0220704700002DE9F04F83B004460E
:100A70000568D5F84090284601F03EFF10B103B05C
:100A8000BDE8F08FA8460646206801F004FF002864
:100A9000F5D0206801F0FFFE10F0020F04D02268AC
:100AA000536903F002035361206801F0F4FE10F46F
:100AB000002F40F092803746206801F0ECFE10F4E1
:100AC000802F40F03581206801F0E5FE0028C0F25B
:100AD000A381206801F0DFFE10F4006F0AD0D5F882
:100AE000083813F0010F40F0B1812268536903F414
:100AF00000635361206801F0CEFE10F0006F15D046
:100B00002268536903F00063536194F8F033002BBB
:100B100040F0A081012184F8F01323685B6DC3F3DA
:100B20008303C4F8F433204603F0AAF8206801F0E8
:100B3000B2FE10F4805F40F09181206801F0ABFEBE
:100B400010F4005F40F0E281206801F0A4FE10F094
:100B5000100F14D02268936923F0100393612E6A5A
:100B600006F00F08C6F34343022B00F06282062B07
:100B700000F080822268936943F01003936120683B
:100B800001F089FE10F0080F40F08882206801F023
:100B900082FE10F4801F40F08A82206801F07BFE04
:100BA00010F4001F40F08D82206801F074FE10F0F8
:100BB000804F40F09082206801F06DFE10F0040F2D
:100BC0003FF45DAF23685D6815F0040F40F08C8240
:100BD000226853682B43536051E7206801F05FFEA1
:100BE000824637464FE0D8F8082B12F4004F67D002
:100BF0004FF400429A6063E0F900C91B8A00224466
:100C0000D2F804121869C0F31200091AC2F81412BB
:100C1000D2F80402D2F808120144C2F8081252E0D5
:100C20000199204602F0FEFE03E00199204602F001
:100C3000F9FE2369012B52D01BF0080F10D0C34BD3
:100C400099455DD0C24B994502D92369012B63D0E8
:100C5000204602F0DFFE08EB47130822C3F8082BFA
:100C60001BF0100F04D008EB47131022C3F8082B19
:100C70001BF0200F04D008EB47132022C3F8082BE9
:100C800001374FEA5A0ABAF1000F3FF415AF1AF0D4
:100C9000010FF5D0FBB201931946206801F00FFE59
:100CA000834610F0010FC7D008EB471303F53063FC
:100CB00001229A60A64A914502D92269012A92D05E
:100CC0002269012A98D0A14A9145AED1D8F8082BC3
:100CD00012F4004FA4D04FF400429A60A9E7002F0D
:100CE000AAD1C7EBC70293002344D3F81032002BDC
:100CF000A2D104F570720121206801F01DFE9BE76E
:100D0000D8F8083B13F4004F9CD008EB47134FF47E
:100D10000042C3F8082B95E7D8F8083B13F4004FBE
:100D200096D008EB47134FF40042C3F8082B8FE727
:100D3000206801F0BCFD814637462EE0FA00D21B48
:100D400093002344596C9A6C0A449A6448E01AF060
:100D5000080F04D008EB47130822C3F808291AF03B
:100D6000100F04D008EB47131022C3F808291AF01B
:100D7000400F04D008EB47134022C3F808291AF0AB
:100D8000020F04D008EB47130222C3F808291AF017
:100D9000800F3CD101374FEA5909B9F1000F3FF4F8
:100DA00092AE19F0010FF5D05FFA87FB5946206823
:100DB00001F08EFD824610F0010FC8D007F00F033E
:100DC000012101FA03F2D8F8343823EA0203C8F803
:100DD000343808EB4713C3F8081923698B42ADD0A8
:100DE0005946204602F02AFE2369012BAFD1002F7D
:100DF000ADD1C7EBC702930023441B6D002BA6D1D6
:100E000004F570720121206801F096FD9FE73946D4
:100E10002046FFF73BFDBDE7D5F8043823F001037A
:100E2000C5F8043894F8F033012B08D0204602F0BE
:100E30003FFE2268536903F00043536149E60021F5
:100E400084F8F013204602F01BFFF2E7204602F080
:100E500017FE4AE6204602F013FE67E605F5006934
:100E6000D9F8043023F00103C9F8043010212068B8
:100E700001F052F914E008EB46134FF67F31C3F846
:100E80000819D3F8002922F40012C3F80029C3F886
:100E9000081BD3F8002B22F40012C3F8002B0136F4
:100EA0006368B342E7D8D9F81C3043F00113C9F89E
:100EB0001C30236BEBB1D9F8843043F00B03C9F835
:100EC0008430D9F8443043F00B03C9F84430D5F8E6
:100ED000003823F4FE63C5F8003804F57072217CF5
:100EE000206801F029FD2268536903F4805353619F
:100EF00023E6D9F8143043F02B03C9F81430D9F89D
:100F0000103043F00B03C9F81030E0E7206801F01F
:100F1000F7FC2268D36823F47053D360206801F093
:100F2000FBF9B8B90023E3604FF4007363612268F2
:100F3000D36843F41053D360204602F090FD22683A
:100F4000536903F400535361FEE500BF0A31544F67
:100F50000A30544F0323E3604023636100F096FDA1
:100F6000634B0344634A934205D82268D36843F431
:100F70007053D360E0E7604B0344604A934205D866
:100F80002268D36843F46053D360D5E75C4B0344D5
:100F90005C4A934205D82268D36843F45053D36027
:100FA000CAE7594B0344594A934205D82268D3688B
:100FB00043F44053D360BFE7554B0344554A934233
:100FC00005D82268D36843F43053D360B4E7524B5A
:100FD0000344524A934205D82268D36843F420530D
:100FE000D360A9E74E4B03444E4A934205D822688A
:100FF000D36843F41053D3609EE74B4B03444B4AF2
:10100000934205D82268D36843F40053D36093E732
:10101000474B0344474A934205D82268D36843F4B8
:10102000E053D36088E72268D36843F4C053D360A9
:1010300082E747F6F0731E423FF49CAD4FEAC80AC0
:10104000AAEB08034FEA8309A1443609C6F30A0252
:10105000D9F80812284601F087FBC6F30A06D9F82A
:1010600008323344C9F80832D9F814321E44C9F89A
:1010700014627FE5082204F57071284601F074FBC4
:10108000C6F30A164FEAC803A3EB08018A002244FC
:10109000D2F814321E44C2F814626BE5204602F006
:1010A000D8FC2268536903F0080353616EE5F9B276
:1010B000204602F009FD2268536903F4801353614E
:1010C0006BE5F9B2204602F0F9FC2268536903F49B
:1010D0000013536168E5204602F0FCFC2268536966
:1010E00003F08043536166E5204602F0F9FC6FE5AA
:1010F000405327FFFF340C00401E1BFF3F420F00F0
:1011000000DC0BFF7F4F1200808CF9FE1FD613000E
:1011100060B6E5FE5FE3160000D3CEFE3F771B000E
:10112000C05BB3FEBF91210000CA91FE1F7538005D
:10113000E05459FEDF9C410090F8BC33012B0DD0E8
:1011400010B50446012380F8BC3380F838100068DD
:1011500001F079FB002084F8BC0310BD0220704729
:10116000F8B511F0800F28D101F00F06F500AF1B84
:10117000BC00274604F5FC74044404343E4606448F
:10118000002586F8FD5101F00F012170A260E37087
:10119000627802B1E180022B1ED090F8BC33012BA3
:1011A0001DD00546012380F8BC332146006801F0BC
:1011B000C7F8002085F8BC03F8BD01F00F06F50064
:1011C000AF1BBC0027463834044404343E46064472
:1011D000012586F83D50D6E700232371DDE7022084
:1011E000EAE738B511F0800F21D101F00F05EA00D0
:1011F000541BA3001C4603F5FC730344043325462B
:101200000544002285F8FD2101F00F01197090F8C6
:10121000BC23012A1AD00446012280F8BC231946B7
:10122000006801F0D5F8002084F8BC0338BD01F057
:101230000F04E200151BAB001D4638330344043392
:101240002C460444012284F83D20DDE70220EDE72E
:1012500070B501F00F05EE00711B8C0004F5FC74F5
:101260000444211D761BB4000444C4F80822C4F8C9
:1012700010320023C4F8143284F8FD3184F8FC5194
:101280000369012B06D065B1DAB2006801F07CF980
:10129000002070BDC5EBC506B4000444C4F80C22A0
:1012A000F1E7DAB2006801F0DBF8F1E701F00F01D5
:1012B000C1EBC1018B001844B0F81402704770B53F
:1012C00001F00F05EE00711B8C0038340444211D21
:1012D000761BB4000444A2642365002363650123E4
:1012E00084F83D3084F83C500369012B06D05DB191
:1012F000DAB2006801F048F9002070BDC5EBC50600
:10130000B4000444E264F2E7DAB2006801F0A8F83D
:10131000F2E738B501F00F0543689D4236D811F069
:10132000800F20D1CA00541AA3001C4603F5FC7399
:101330000344043322460244002182F8FD110122B5
:101340009A701D7090F8BC23012A21D00446012216
:1013500080F8BC231946006801F01AFA7DB100201C
:1013600084F8BC0313E0EA00511B8B0019463833A4
:10137000034404330144012281F83D20DFE704F5F2
:101380007072217C206801F0D7FAE8E7012038BDAF
:101390000220FCE710B501F00F0443689C422CD8F2
:1013A00011F0800F1DD1E3001A1B91000A4601F5D0
:1013B000FC71014404310244002382F8FD31002312
:1013C0008B700C7090F8BC33012B18D004460123AD
:1013D00080F8BC33006801F008FA002084F8BC03F0
:1013E0000CE0E3001A1B91000A4638310144043135
:1013F0000244012382F83D30E1E7012010BD0220C4
:10140000FCE730B40468606A29B10D46A36A00EBBA
:10141000134000230CE040EA0240A06212E003F116
:10142000400104EB8101496800EB11400133DBB25C
:10143000691E8B42F3D340EA024005F13F0104EB01
:1014400081014860002030BC704703685962002069
:1014500070470000024603680121C0F8F81300201D
:1014600082F8F0039A6942F000629A61596D024A6B
:101470000A435A65704700BF03000010002800F0BF
:10148000DB8170B582B00446036813F0010F29D0E8
:10149000A24B9B6803F00C03042B1AD09F4B9B6854
:1014A00003F00C03082B0FD06368B3F5803F40D0E6
:1014B000002B54D1994B1A6822F480321A601A68B2
:1014C00022F480221A6039E0944B5B6813F4800F99
:1014D000EAD0924B1B6813F4003F03D06368002BE3
:1014E00000F0AC81236813F0020F75D08B4B9B6822
:1014F00013F00C0F5ED0894B9B6803F00C03082B94
:1015000053D0E368002B00F08A80844A136843F0CC
:1015100001031360FFF740F80546804B1B6813F08A
:10152000020F73D1FFF738F8401B0228F5D90320CA
:1015300087E17A4A136843F48033136063682BB3FE
:10154000FFF72AF80546754B1B6813F4003FC9D115
:10155000FFF722F8401B6428F5D9032071E1B3F5A9
:10156000A02F09D06D4B1A6822F480321A601A68D5
:1015700022F480221A60E1E7684B1A6842F4802264
:101580001A601A6842F480321A60D7E7FFF704F84D
:101590000546624B1B6813F4003FA3D0FEF7FCFF27
:1015A000401B6428F5D903204BE15C4B5B6813F4C6
:1015B000800FA6D1594B1B6813F0020F04D0E368CB
:1015C000012B01D001203CE1544A136823F0F803B9
:1015D000216943EAC1031360236813F0080F46D062
:1015E000636983B34D4A536F43F001035367FEF7BA
:1015F000D3FF0546494B5B6F13F0020F37D1FEF75F
:10160000CBFF401B0228F5D903201AE1434A136897
:1016100023F0F803216943EAC1031360DCE73F4A82
:10162000136823F001031360FEF7B6FF05463B4B3A
:101630001B6813F0020FCFD0FEF7AEFF401B02284D
:10164000F5D90320FDE0354A536F23F001035367BA
:10165000FEF7A2FF0546314B5B6F13F0020F06D079
:10166000FEF79AFF401B0228F5D90320E9E0236822
:1016700013F0040F7ED0294B1B6C13F0805F1ED13A
:10168000264B1A6C42F080521A641B6C03F0805394
:101690000193019B0125224B1B6813F4807F10D01E
:1016A000A368012B21D0002B3CD11C4B1A6F22F0D8
:1016B00001021A671A6F22F004021A671AE0002565
:1016C000E9E7174A136843F480731360FEF764FF79
:1016D0000646134B1B6813F4807FE1D1FEF75CFFD5
:1016E000801B6428F5D90320ABE00C4A136F43F04C
:1016F00001031367A3685BB3FEF74EFF0646074B73
:101700001B6F13F0020F34D1FEF746FF801B41F22E
:1017100088339842F3D9032093E000BF0038024099
:1017200000700040052B09D0484B1A6F22F00102CF
:101730001A671A6F22F004021A67DBE7434B1A6F2D
:1017400042F004021A671A6F42F001021A67D1E7E9
:10175000FEF722FF06463D4B1B6F13F0020F08D029
:10176000FEF71AFF801B41F288339842F3D9032019
:1017700067E0F5B9A369002B62D0344A926802F0A1
:101780000C02082A5FD0022B19D0304A136823F0CC
:1017900080731360FEF700FF04462C4B1B6813F0A8
:1017A000007F47D0FEF7F8FE001B0228F5D9032082
:1017B00047E0264A136C23F080531364DAE7234A88
:1017C000136823F080731360FEF7E6FE05461F4B97
:1017D0001B6813F0007F06D0FEF7DEFE401B0228D8
:1017E000F5D903202DE0E369226A1343626A43EAD4
:1017F0008213A26A5208013A43EA0243E26A43EAC8
:10180000026343F00053114A5360136843F080733E
:101810001360FEF7C1FE04460C4B1B6813F0007FFB
:1018200006D1FEF7B9FE001B0228F5D9032008E017
:10183000002006E0002004E001207047012000E0C5
:10184000002002B070BD0120FBE700BF003802405D
:10185000324B9B6803F00C03042B5CD0082B01D0A7
:101860002F4870472DE9F04B2C4B5A6802F03F028D
:101870005B6813F4800F2BD0284B5B68C3F388138D
:101880001E4600275C010025E41A65EB0705A90147
:1018900041EA9461A001001B61EB0501CB0043EA22
:1018A0005073C400A01943EB07014B0243EAD05325
:1018B0004402204619460023FEF7B2FC174B5B6832
:1018C000C3F3014301335B00B0FBF3F0BDE8F08BE1
:1018D000124B5B68C3F388131E4600275C0100258A
:1018E000E41A65EB0705A90141EA9461A001001B18
:1018F00061EB0501CB0043EA5073C400A01943EB30
:1019000007018B0243EA90538402204619460023C4
:10191000FEF786FCD2E70348704700BF003802405C
:101920000024F40000127A00002800F0A28070B5B4
:101930000446524B1B6803F00F038B420CD24F4AF4
:10194000136823F00F030B431360136803F00F03B6
:101950008B4201D0012070BD236813F0020F17D015
:1019600013F0040F04D0464A936843F4E0539360A5
:10197000236813F0080F04D0414A936843F460438E
:1019800093603F4A936823F0F003A0680343936099
:101990000D46236813F0010F31D06368012B20D06E
:1019A000022B25D0364A126812F0020F63D0344958
:1019B0008A6822F0030213438B60FEF7EDFD0646B2
:1019C0002F4B9B6803F00C036268B3EB820F16D0B9
:1019D000FEF7E2FD801B41F288339842F0D90320E4
:1019E000B9E7274A126812F4003FE0D10120B2E7BC
:1019F000234A126812F0007FD9D10120ABE71F4BB8
:101A00001B6803F00F03AB420CD91C4A136823F088
:101A10000F032B431360136803F00F03AB4201D095
:101A2000012098E7236813F0040F06D0144A936846
:101A300023F4E053E1680B439360236813F0080F2D
:101A400007D00F4A936823F46043216943EAC10336
:101A50009360FFF7FDFE0A4B9B68C3F30313094A2B
:101A6000D35CD840084B18600020FEF759FD0020D9
:101A700071E70120704701206DE700BF003C024084
:101A8000003802402C40000818010020014B186863
:101A9000704700BF18010020F0B583B0044603680A
:101AA00013F0010F0CD0A44B9A6822F400029A6044
:101AB0009A68C16A0A439A60C36AC3B1002600E00B
:101AC0000026236813F4002F15D09B4AD2F88C30DF
:101AD00023F44013616B0B43C2F88C30636BB3F596
:101AE000801F06D0002B00F00581002504E00126B0
:101AF000E7E70126F6E70025236813F4801F0FD0DF
:101B00008D4AD2F88C3023F44003A16B0B43C2F80A
:101B10008C30A36BB3F5800F00F0EE8003B9012584
:101B2000236813F0200F40F0E980236813F0100FB2
:101B30000CD0814BD3F88C2022F08072C3F88C201B
:101B4000D3F88C20216B0A43C3F88C20236813F44C
:101B5000804F08D0784AD2F8903023F44033E16DBA
:101B60000B43C2F89030236813F4004F08D0724A38
:101B7000D2F8903023F44023216E0B43C2F890300A
:101B8000236813F4803F08D06B4AD2F8903023F4D6
:101B90004013616E0B43C2F89030236813F0400F7E
:101BA00008D0654AD2F8903023F00303E16B0B4371
:101BB000C2F89030236813F0800F08D05E4AD2F844
:101BC000903023F00C03216C0B43C2F89030236853
:101BD00013F4807F08D0584AD2F8903023F03003B5
:101BE000616C0B43C2F89030236813F4007F08D077
:101BF000514AD2F8903023F0C003A16C0B43C2F8D5
:101C00009030236813F4806F08D04B4AD2F890309C
:101C100023F44073E16C0B43C2F89030236813F453
:101C2000006F08D0444AD2F8903023F44063216D0D
:101C30000B43C2F89030236813F4805F08D03E4A0B
:101C4000D2F8903023F44053616D0B43C2F89030CA
:101C5000236813F4005F08D0374AD2F8903023F499
:101C60004043A16D0B43C2F89030236813F4001F6A
:101C70000DD0314AD2F8903023F00063616F0B43EE
:101C8000C2F89030636FB3F1006F00F0A180236859
:101C900013F4802F08D0284AD2F8903023F04073F4
:101CA000E16E0B43C2F89030236813F4000F08D0A4
:101CB000214AD2F8903023F08053A16F0B43C2F831
:101CC0009030236813F0806F08D01B4AD2F8903010
:101CD00023F00053E16F0B43C2F89030002E79D10E
:101CE0002368B3F1007F75D0002D40F0E380002021
:101CF00003B0F0BD0125FFE601260FE70E4B1A6C7D
:101D000042F080521A641B6C03F080530193019BD4
:101D10000A4A136843F480731360FEF73DFC0746DC
:101D2000064B1B6813F4807F0AD1FEF735FCC01BFD
:101D30006428F5D90320DBE700380240007000403A
:101D40008D4B1B6F13F4407315D0A26A02F44072DE
:101D50009A4210D0884B1A6F22F44072196F41F4E6
:101D600080311967196F21F4803119671A671B6F69
:101D700013F0010F12D1A36A03F44072B2F5407F51
:101D80001DD07D4A936823F4F81393607A490B6F52
:101D9000A26AC2F30B0213430B67C6E6FEF7FCFB15
:101DA0000746754B1B6F13F0020FE4D1FEF7F4FBEF
:101DB000C01B41F288339842F3D9032098E76E485C
:101DC000826822F4F8126D4919400A438260DDE707
:101DD00001255CE7684A136823F080631360FEF70F
:101DE000DBFB0646644B1B6813F0006F06D0FEF762
:101DF000D3FB801B6428F5D9032079E7236813F00F
:101E0000010F0ED0E36A63B95B4AD2F8843061688F
:101E100003F0706343EA8113A16843EA0173C2F8D7
:101E20008430236813F4002F03D0626BB2F5801F57
:101E300006D013F4801F19D0A36BB3F5800F15D112
:101E40004D4AD2F884106068E3681B0643EA8013A9
:101E500001F0E0410B43C2F88430D2F88C3023F01B
:101E60001F03E16901390B43C2F88C30236813F07A
:101E7000007F0AD06268E3681B0643EA8213A26807
:101E800043EA02733C4AC2F884303B4A136843F089
:101E900080631360FEF780FB0646374B1B6813F028
:101EA000006F7FF421AFFEF777FB801B6428F4D925
:101EB00003201DE7304A136823F080531360FEF7B8
:101EC0006BFB05462C4B1B6813F0005F06D0FEF73A
:101ED00063FB401B6428F5D9032009E7236813F44A
:101EE000002F01D0626B22B113F4801F18D0A36BB6
:101EF000B3B9214AD2F88830216903F4403343EA68
:101F00008113616943EA0163C2F88830D2F88C30EA
:101F100023F4F853216A013943EA0123C2F88C30D3
:101F2000236813F4001F03D0636FB3F1006F13D065
:101F3000114A136843F080531360FEF72DFB0446EB
:101F40000D4B1B6813F0005F14D1FEF725FB001B3F
:101F50006428F5D90320CBE60749D1F88820206909
:101F6000A3691B0443EA801302F070621343C1F8B3
:101F70008830DDE70020BBE600380240FFFCFF0FA1
:101F8000002301330C4A934211D80269002AF8DA7F
:101F9000036943F00103036100230133064A9342BE
:101FA00007D8026912F0010FF7D100207047032013
:101FB00070470320704700BF400D030008B5104A6A
:101FC000936943F00403936100230D4A926912F070
:101FD000020F05D101330B4A9342F6D903200DE0DD
:101FE000074BD96840F613720A43DA601A6842F068
:101FF00001021A600220FEF7D5FA002008BD00BFDA
:10200000007C0140400D030084B010B5044603A8D5
:1020100080E80E00089B012B13D0032B29D0E36826
:1020200043F04003E3602046FFF7AAFF4FF48033FC
:10203000A363069B012B3FD00020BDE8104004B0F5
:102040007047A36B23F48033A363E2681F4B1340F4
:10205000E360E36823F44013E3600F9B012B03D09C
:102060002046FFF78DFFE4E7E36843F48013E36065
:10207000F6E7A36B23F48033A363E268134B1340AA
:10208000E360E36823F44013E360E36823F01003A4
:10209000E360A36B43F40003A3632046FFF78EFFC6
:1020A0000F9B012B03D02046FFF76AFFC1E7E368CF
:1020B00043F48013E360F6E7A36843F00603A360EC
:1020C000A36843F02003A360B6E700BFBFFFBDFFD6
:1020D000836843F00103836000207047836823F026
:1020E000010383600020704708B5C36823F0C04334
:1020F000C360012909D069B9C36843F08043C36054
:102100003220FEF74FFA002008BDC36843F00053A9
:10211000C360F5E70120F7E7890141F02001016183
:1021200000230133054A934205D8026912F0200FBB
:10213000F7D1002070470320704700BF400D030017
:102140001023036100230133054A934205D8026935
:1021500012F0100FF7D1002070470320704700BF26
:10216000400D0300D0F800381943C0F800180020D3
:102170007047000084B0F8B5044607A880E80E0058
:102180002546002306E003F1400204EB8202002111
:10219000516001330E2BF6D9A36B43F40013A363F4
:1021A000119F5FB9A36B23F40013A363236843F06B
:1021B00040032360236843F0800323600023C4F8B6
:1021C000003E04F50066D4F80038C4F800380C9BD3
:1021D000012B08D0032B17D1099B83B9002120467E
:1021E000FFF7C0FF14E0099B23B900212046FFF749
:1021F000B9FF0DE001212046FFF7B4FF08E00121FF
:102200002046FFF7AFFF03E003212046FFF7AAFFB8
:1022100010212046FFF780FF2046FFF791FF0023A3
:1022200033617361F3610AE0C3B94FF00060C2F833
:10223000000900220A614FF67F328A600133079954
:10224000994210D905EB431202F51061D2F800094A
:102250000028E9DB0020C2F80009EAE74FF09040CF
:10226000C2F80009E5E700230AE0CBB14FF0904C3B
:10227000C2F800CB002202614FF67F328260013348
:10228000994212D905EB431202F53060D2F800CB27
:10229000BCF1000FE9DB4FF0000CC2F800CBE9E71E
:1022A0004FF0006CC2F800CBE4E7336923F480738D
:1022B00033610A9B012B1AD00022A2616FF0804289
:1022C00062611BB9A36943F01003A361A2690E4BBD
:1022D0001343A3610D9B1BB1A36943F00803A361E2
:1022E000012F0BD00020BDE8F84004B07047074A2A
:1022F0003263316B064A0A433263DDE7A269054B5C
:102300001343A361EEE700BF00383C80000180006A
:102310000300010004000040D0F8083813F0060361
:1023200009D0062B18BF022B07D0042B01D00020A8
:10233000704702207047002070470320704700005C
:1023400070B40B784A78012A20D0D0F81C2803F00A
:102350000F060124B44042EA0442C0F81C2800EBF6
:102360004310D0F8003B13F4004F0CD1D0F8002BF1
:102370008B68C3F30A03C97843EA81431343134AC2
:102380001A43C0F8002B002070BC7047D0F81C48DE
:1023900003F00F06B24092B22243C0F81C2800EBB3
:1023A0004310D0F8002912F4004FECD1D0F80049C6
:1023B0008A68C2F30A02C97842EA814242EA835338
:1023C0002343024A1A43C0F80029DCE700800010CA
:1023D00070B40B784A78012A1FD0D0F83C5803F02B
:1023E0000F06012404FA06F625EA0645C0F83C5813
:1023F000D0F81C58097801F00F018C4025EA0444FC
:10240000C0F81C4800EB4310D0F8002B124B1340CF
:10241000C0F8003B002070BC7047D0F83C6803F067
:102420000F0402FA04F4A4B226EA0404C0F83C48FB
:10243000D0F81C48097801F00F018A4092B224EAD2
:102440000202C0F81C2800EB4310D0F80039034A00
:102450001A40C0F80029DDE70078F3EF007833EC8C
:1024600070B40B784C78012C24D000EB431000F5AD
:1024700030631D69384C2C401C611D69374C2C4061
:102480001C614C690CB18C684C611C6944F40024DB
:102490001C611C698D68C5F312052C431C61012A5F
:1024A00057D0D0F8003B43F00443C0F8003B002075
:1024B00070BC70474C6954BB00EB4314D4F81069EE
:1024C000264D3540C4F81059D4F8105945F400256C
:1024D000C4F81059D4F810691F4D3540C4F810598C
:1024E000012A30D04A694AB1D0F83428097801F07D
:1024F0000F040121A1400A43C0F8342800EB431027
:10250000D0F8002942F00442C0F80029CFE700EBE0
:10251000431404F5106426690F4D35402561266982
:102520000E4D354025614E698D68AE4200D94D6132
:10253000256945F40025256125694E69C6F3120613
:1025400035432561CCE700EB43120969C2F8141941
:10255000D4E7CA685A61A4E70000F8FFFFFF07E06C
:1025600070B49DF80C4064B903339D0807E000EB9C
:10257000023303F5805351F8046B1E600134AC4202
:10258000F5D3002070BC7047F0B583B00B784C7861
:10259000012C29D000EB431303F5306426696F4DFD
:1025A0003540256126696E4D354025614D69002D08
:1025B00040F0A88025698E68C6F312063543256170
:1025C000256945F400252561012A00F0B080CA780C
:1025D000012A00F0AF80D3F8002B42F00442C3F888
:1025E000002B002003B0F0BD4C6934BB00EB43145A
:1025F000D4F810695A4D3540C4F81059D4F8105920
:1026000045F40025C4F81059D4F81069534D3540ED
:10261000C4F81059012A42D0CC78012C44D04C691E
:10262000002C41D0D0F834480D7805F00F06012574
:10263000B5402C43C0F8344836E000EB4314D4F8DE
:102640001069464D3540C4F81059D4F81069444D0E
:102650003540C4F81059D4F810694D698F683D446D
:10266000013DB5FBF7F53F4F07EAC5453543C4F8D3
:102670001059D4F810594E69C6F312063543C4F800
:10268000105904F51064CD78012DC3D1256925F0CA
:10269000C0452561256945F000552561BAE700EB85
:1026A00043140D69C4F81459CC78012C13D000EBF5
:1026B0004313D3F8004944F00444C3F80049CB78ED
:1026C000012B8ED114460B46C9681A789B8A009458
:1026D000FFF746FF85E7D0F8084814F4807F08D15B
:1026E00000EB4315D5F8004944F00054C5F8004903
:1026F000DDE700EB4315D5F8004944F08054C5F8F8
:102700000049D4E78E683544013DB5FBF6F52669EE
:10271000144F07EAC5473E43266127698E68ADB26C
:1027200006FB05F5C5F312053D4325614CE7CA6874
:1027300062614CE7D0F8082812F4807F06D1D3F804
:10274000002B42F00052C3F8002B44E7D3F8002BD3
:1027500042F08052C3F8002B3DE700BF0000F8FFB5
:10276000FFFF07E00000F81F0332920800239342A6
:102770000CD210B400F58054246841F8044B0133A6
:102780009342F7D308465DF8044B704708467047FC
:102790000B784A78012A14D000EB4310D0F8002BB4
:1027A000002A06DB2BB1D0F8003B23F08043C0F8B1
:1027B000003BD0F8003B43F40013C0F8003B00207E
:1027C000704700EB4310D0F80029002A06DB2BB13C
:1027D000D0F8003923F08043C0F80039D0F8003930
:1027E00043F40013C0F80039E9E70B784A78012A6E
:1027F0000ED000EB4310D0F8003B23F40013C0F8D8
:10280000003BCB78023BDBB2012B15D9002070478F
:1028100000EB4310D0F8003923F40013C0F800395E
:10282000CB78023BDBB2012BF0D8D0F8003943F073
:102830008053C0F80039E9E7D0F8003B43F08053FB
:10284000C0F8003BE2E7D0F8003823F4FE63C0F89C
:102850000038D0F80038090101F4FE610B43C0F8DC
:1028600000380020704708B5D0F8043823F0020380
:10287000C0F804380320FDF795FE002008BD08B518
:10288000D0F8043843F00203C0F804380320FDF701
:1028900089FE002008BD4269806910407047D0F869
:1028A000183800F50060C0691840000C7047D0F877
:1028B000183800F50060C069184080B2704700EB1E
:1028C0004111D1F8082B00F50060406910407047B5
:1028D00010B4D0F81048D0F8343801F00F02D340CB
:1028E000DB01DBB2234300EB411000F51060806890
:1028F00018405DF8044B7047406900F001007047D4
:10290000D0F800290B4B1340C0F8003900F50063E4
:102910009A6802F00602042A05D05A6842F48072CE
:102920005A6000207047D0F8002942F00302C0F836
:102930000029F2E700F8FFFF10B40024C0F8104BA4
:10294000D0F8104B44F40024C0F8104BD0F8104BD2
:1029500044F01804C0F8104BD0F8104B44F0C044B9
:10296000C0F8104B012903D000205DF8044B7047DC
:10297000C0F8142B4FF08023C0F8003BF4E710B5EB
:10298000D0F89042D0F894325BB194F80002FF285E
:1029900007D09B6894F8012221469847FF2384F8CA
:1029A0000032002010BD0000432303800048704720
:1029B0000800002043230380004870474C0000209B
:1029C0004323038000487047900000200A230380BF
:1029D00000487047D400002038B50446D0F8905223
:1029E00001F048F9C5F80C02D4F890324BB1D4F894
:1029F0009432DB6805F50371D5F80402984700208E
:102A000038BD0220FCE770B5D0F89022D0F898527B
:102A1000FAB101EB8104A3000344DB694BB1C1EBC4
:102A2000C106B40025446D6CB3FBF5F405FB14330B
:102A30001BB10020C2F8140270BD01EB81029300AB
:102A400003440024DC612346224601F0F7F82046C7
:102A5000F2E70220F0E770B582B005460C46D0F8E8
:102A6000906200238DF80730ADF804300B7813F036
:102A7000600227D0202A56D1CA883AB9D0F89432B9
:102A80009B6800224878984700204FE013F0800FA1
:102A90000CD0D0F894329B68314660789847E28831
:102AA0003146284600F0B9FD00203FE04B7886F81B
:102AB00000328B7986F80132CA88314600F0C2FDB7
:102AC000002033E04B780A2B14D00B2B21D01BB104
:102AD00000F082FA022029E090F87432032B05D12D
:102AE000022201A900F099FD00201FE000F074FA15
:102AF00002201BE090F87432032B06D101220DF165
:102B0000070100F08AFD002010E000F065FA0220C5
:102B10000CE090F87432032B01D1002006E000F0A5
:102B20005BFA022002E000F057FA022002B070BD0A
:102B300038B50446812101F032F80025E562012113
:102B4000204601F02CF8C4F858518221204601F0AB
:102B500026F82564D4F890324BB1D4F894325B68EF
:102B60009847D4F8900201F07BF9C4F89052002005
:102B700038BD38B50446037CA3BB4FF40073022272
:102B8000812100F0FBFF0125E5624FF40073022272
:102B90002946204600F0F2FFC4F8585108230322CA
:102BA0008221204600F0EAFF012323644FF40770DE
:102BB00001F04EF90546C4F8900268B3D4F8943297
:102BC0001B6898470023C5F81432C5F81832237CD7
:102BD000C3B14023D5F804220121204601F03CF87E
:102BE000002038BD40230222812100F0C7FF0125CB
:102BF000E562402302222946204600F0BFFFC4F8C8
:102C00005851CBE74FF40073D5F804220121204638
:102C100001F022F80020E4E70120E2E719B1C0F852
:102C200094120020704702207047D0F89032C3F809
:102C30000812C3F8102200207047D0F89032C3F871
:102C4000041200207047D0F89022A2B108B5D2F843
:102C500014320BB1012008BD0123C2F81432D2F89E
:102C600010320363B2F81032D2F80822812100F04A
:102C7000E5FF0020EFE702207047D0F890229AB1DC
:102C800008B5037C3BB14023D2F80422012100F0B7
:102C9000E3FF002008BD4FF40073D2F804220121A5
:102CA00000F0DAFF0020F5E70220704798B108B580
:102CB0000346D0F88C0210B10020C3F88C0209B191
:102CC000C3F888121846012380F87432027000F0AD
:102CD0000DFF002008BD0220704719B1C0F88C120A
:102CE000002070470220704708B500F039FF00202F
:102CF00008BD08B5D0F88C3233B11B68984708B9C5
:102D0000002008BD0220FCE70220FAE708B5D0F851
:102D10008C325B689847002008BD38B5044600F542
:102D20002075284600F044F90123C4F86C32B4F849
:102D30008632C4F8703294F8801201F01F03012B20
:102D40000ED03BB1022B10D001F08001204600F0E4
:102D500034FF03E02946204600F0C1FA002038BDC8
:102D60002946204600F0EFFAF8E72946204600F011
:102D70001AFBF3E710B5044689BB1046D4F86C3251
:102D8000032B03D0052B24D0002034E0D4F84C31A1
:102D9000D4F8502193420DD99B1AC4F84C319A4271
:102DA00006D99AB20146204600F05BFC002022E0E2
:102DB00092B2F7E7D4F88C321B692BB194F87422E5
:102DC000032A01D120469847204600F052FC0020FB
:102DD00011E00021204600F0F0FE00200BE00A4642
:102DE000D0F88C329B693BB190F87412032905D15D
:102DF00011469847002010BD0220FCE70220FAE7A8
:102E000010B50446002955D11046D4F86C32022B77
:102E100009D0002B18BF042B43D094F87832012B33
:102E200044D0002052E0236A626A93421DD8E169CF
:102E3000B1FBF2F302FB13132BB98A4203D8D4F887
:102E4000703299421FD3D4F88C32DB682BB194F8DE
:102E50007422032A01D1204698478021204600F0A1
:102E6000ACFE204600F010FCD7E79A1A226292B21C
:102E70000146204600F0DEFB00231A461946204694
:102E800000F0EAFEC9E700221146204600F0D2FB1E
:102E90000021C4F870120B460A46204600F0DCFE02
:102EA000BBE78021204600F088FEB6E7002084F8CA
:102EB00078020BE00A46D0F88C325B693BB190F89F
:102EC0007412032905D111469847002010BD022035
:102ED000FCE70220FAE770B50446402300221146C1
:102EE00000F04CFE0125C4F844514026C4F850615E
:102EF000334600228021204600F040FEA561666234
:102F000084F874520023C4F86C326360C4F87C32D5
:102F1000D4F890322BB1D4F88C325B680021204673
:102F20009847002070BD01740020704790F87432FB
:102F300080F87532042380F874320020704790F8CE
:102F4000753280F874320020704708B590F87432FA
:102F5000032B01D0002008BDD0F88C32DB69002B98
:102F6000F8D09847F6E7002070470020704700200F
:102F7000704708B5012280F87422D0F88C2252687C
:102F800001799047002008BD002302E00133DBB245
:102F900001300278002AF9D11846704708B54B88ED
:102FA000012B00D008BDC0F87C3200F062FBF9E7CD
:102FB0000B7803704B7843708B78CA7803EB02234D
:102FC00043800B794A7903EB022383808B79CA799A
:102FD00003EB0223C380704710B50446802100F044
:102FE000ECFD0021204600F0E8FD10BD30B583B0B7
:102FF00005460C464A88130A013B0E2B00F29180CD
:10300000DFE803F01B23378F8F73808F8F8F8F8FB5
:103010008F8F0800D0F88832DB690DF10601007C43
:103020009847BDF8062012B1E388002B7DD1E388D4
:10303000002B00F0848003B030BDD0F888321B68CC
:103040000DF10601007C9847EBE7037C43B9D0F80B
:103050008C329B6A0DF10600984702234370E0E72B
:10306000D0F88C32DB6A0DF10600984702234370DA
:10307000D7E7D2B2052A34D8DFE802F0030B131BDE
:10308000232BD0F888325B680DF10601007C98474D
:10309000C7E7D0F888329B680DF10601007C98479D
:1030A000BFE7D0F88832DB680DF10601007C984755
:1030B000B7E7D0F888321B690DF10601007C98470C
:1030C000AFE7D0F888325B690DF10601007C9847C4
:1030D000A7E7D0F888329B690DF10601007C98477C
:1030E0009FE72146FFF778FFA5E7037C33B9D0F8C7
:1030F0008C325B6B0DF10600984792E72146FFF793
:103100006BFF98E7037C43B9D0F88C321B6B0DF151
:10311000060098470723437083E72146FFF75CFFCB
:1031200089E72146FFF758FF85E79A4228BF1A46EC
:10313000ADF806200146284600F06FFA77E72846EA
:1031400000F097FA77E738B504468B88F3B9CB8857
:10315000E3B94B887F2B19D803F07F0590F87432C0
:10316000032B0CD080F87652294600F059FD2046FA
:1031700000F07FFA35B1022384F8743209E0FFF7DA
:103180002BFF06E0012384F8743202E02046FFF7AB
:1031900023FF38BD38B504460D468978284B197091
:1031A00001290ED890F87432022B0ED0032B21D0B7
:1031B0002946FFF711FF224B19782046FFF7A6FD9D
:1031C00002E02946FFF708FF38BD81B141600323C3
:1031D00080F87432FFF78DFD022803D0204600F0FE
:1031E00048FAF1E729462046FFF7F6FEECE700F043
:1031F00040FAE9E789B1436899421DD0D9B2FFF797
:1032000085FD0F4B197861602046FFF772FD02289B
:103210000DD0204600F02DFAD6E7022380F8743254
:103220004160FFF773FD204600F023FACCE7294602
:103230002046FFF7D1FEC7E700F01BFAC4E700BF46
:10324000F001002008B5CB88012B0BD190F8743227
:103250009BB1022B09D9032B0FD10122011D00F0D4
:10326000DCF901E0FFF7B8FE08BD0146002341F894
:10327000083F012200F0D1F9F6E7FFF7ADFEF3E7D2
:1032800008B590F87432013B022B12D8CB88022B80
:103290000CD10123C360D0F87C320BB10323C3608F
:1032A000022200F10C0100F0B8F908BDFFF794FE0E
:1032B000FBE7FFF791FEF8E708B590F87432013BA1
:1032C000022B09D84B88012B00D008BD0023C0F881
:1032D0007C3200F0CEF9F8E7FFF77EFEF5E708B59F
:1032E0000B7803F06003202B05D0402B03D043B1B3
:1032F000FFF772FE03E0D0F88C329B6898470020FD
:1033000008BD4B78092B1BD8DFE803F011171A14FE
:103310001A08051A0E0BFFF769FEF0E7FFF713FF17
:10332000EDE7FFF737FFEAE7FFF78CFFE7E7FFF787
:10333000A7FFE4E7FFF732FEE1E7FFF7BDFFDEE7B7
:10334000FFF74AFEDBE738B505460C460B7803F07D
:103350006003202B06D0402B04D01BB1FFF73CFEAE
:10336000002038BD95F87432013B022B16D8237922
:10337000012B0ED8D5F88C329B68214628469847F9
:10338000E388002BECD10028EAD1284600F071F93F
:10339000E6E721462846FFF71FFEE1E721462846DB
:1033A000FFF71AFEDCE738B504468A880B7803F08D
:1033B0006003202B08D0D0B2402B05D05BB1204653
:1033C000FFF70AFE002005E0D4F88C329B68204607
:1033D0009847002038BD202B05D1D4F88C329B684B
:1033E00020469847F6E74B78012B3CD0002B6DD058
:1033F000032B40F0EF8094F87432022B06D0032B9D
:103400001BD02046FFF7E8FD0020E3E7B0F1800382
:1034100018BF0123002808BF00234BB101462046F6
:1034200000F0CBFB8021204600F0C7FB0020D1E755
:103430002046FFF7D1FD0020CCE74B884BB9B0F117
:10344000800318BF0123002808BF00230BB1CB88DD
:1034500023B1204600F00DF90020BBE701462046CD
:1034600000F0ABFBF5E794F87432022B06D0032B87
:103470001BD02046FFF7B0FD0020ABE7B0F1800382
:1034800018BF0123002808BF00234BB10146204686
:1034900000F093FB8021204600F08FFB002099E78D
:1034A0002046FFF799FD002094E74B88002B40F061
:1034B000968010F07F0F04D1204600F0DAF800204B
:1034C00088E70146204600F086FBF5E794F8743261
:1034D000022B06D0032B2ED02046FFF77DFD0020C7
:1034E00078E7B0F1800318BF0123002808BF00234C
:1034F00093B912F0800F14D100F07F0000EB800030
:10350000830003F5A073E11800250D600222204618
:1035100000F083F828465DE72046FFF75DFD0020B8
:1035200058E700F07F0000EB8000830003F11001FA
:1035300021440431E8E752B2002A23DB00F00F03F4
:1035400003EB83039D002544D5F8443143B3002A9F
:103550002BDB00F07F0202EB8202930003F5A073E5
:10356000E518802814BF00230123002808BF012389
:103570002BB300232B6002222946204600F04DF891
:10358000002027E700F00F0303EB83039D00254491
:10359000AB69002BDBD12046FFF71EFD002019E7A9
:1035A0002046FFF719FD002014E700F07F0202EB30
:1035B0008202930003F1100525440435D1E701464A
:1035C000204600F016FB10B101232B60D3E7002347
:1035D0002B60D0E72046FFF7FFFC0020FAE6002032
:1035E000F8E6C8B170B50D4616460446FFF7CCFCA8
:1035F000013040003080287003236B70022307E005
:1036000001345A1CD2B2E9540233DBB20021A9546E
:1036100021780029F4D170BD704710B513460222FD
:10362000C0F86C22C36103620A46002100F006FB69
:10363000002010BD08B513460A46002100F0FEFA2E
:10364000002008BD10B513460322C0F86C22C0F854
:103650004831C0F84C310A46002100F0FDFA002044
:1036600010BD08B513460A46002100F0F5FA002007
:1036700008BD08B50423C0F86C3200231A46194669
:1036800000F0DCFA002008BD08B50523C0F86C3254
:1036900000231A46194600F0DFFA002008BD00009A
:1036A00082B00A4B1A6B42F001021A631A6B02F0E5
:1036B00001020092009A1A6B42F080021A631B6B9F
:1036C00003F080030193019B02B070470038024071
:1036D000FEE7000000B5B5B0314B1A6C42F08052E5
:1036E0001A641B6C03F080530193019B2D4A1368ED
:1036F00023F4404343F480431360136803F44043CE
:103700000293029B012328934FF4803329930223D1
:103710002E934FF480022F920D223092D8223192B4
:1037200032930923339328A8FDF7A8FE60BB0F232B
:10373000239302212491002325934FF4A053269331
:103740004FF48053279323A8FEF7EEF800BB4FF405
:10375000001303930023209303A8FEF79DF9D8B923
:10376000FEF794F9104BA3FB00308009FCF77EFFB5
:103770000420FCF791FF002211464FF0FF30FCF7C8
:1037800037FF35B05DF804FBA1210848FFF7A0FF23
:10379000AF210648FFF79CFFB6210448FFF798FFCA
:1037A0000038024000700040D34D621044400008D1
:1037B00000B587B00B4B01AC0FCB84E80F000023A2
:1037C0000593FCF7D1FEFFF785FFFFF769FF00F0D7
:1037D00091F80F2101A800F0CFF84FF4FA70FCF730
:1037E000E1FEF6E71840000800B583B0214B1A6CE3
:1037F00042F080521A641A6C02F080520092009AD1
:103800005A6C42F480425A645B6C03F48043019327
:10381000019B0320FCF7DAFE002211466FF00B003B
:10382000FCF7E6FE002211466FF00A00FCF7E0FE0E
:10383000002211466FF00900FCF7DAFE0022114663
:103840006FF00400FCF7D4FE002211466FF0030075
:10385000FCF7CEFE002211466FF00100FCF7C8FE17
:10386000002211464FF0FF30FCF7C2FE03B05DF8B6
:1038700004FB00BF003802407047FEE7FEE7FEE7AA
:10388000FEE770477047704708B5FCF779FEFCF714
:1038900014FF08BD08B50248FDF7E6F808BD00BFF3
:1038A000A014002010B40F4AD2F8883043F47003FB
:1038B000C2F888300C4B196841F0010119600020F2
:1038C00098601C68094921401960094959601968C4
:1038D00021F480211960D8604FF0006393605DF897
:1038E000044B704700ED00E000380240FFFFF6FE99
:1038F0001030002410B5094C002209492046FFF77A
:10390000D5F908492046FFF7E8F907492046FFF7AF
:1039100085F92046FFF7E8F910BD00BF040200203A
:1039200050010020E00000201C0100200020704712
:103930000020704710B5054C01462046FFF77DF981
:103940002046FFF79AF9002010BD00BF04020020B6
:1039500010B5064C002206492046FFF766F90549D6
:103960002046FFF76AF9002010BD00BF04020020C6
:10397000A00C0020A0040020094BD3F89032D3F80B
:1039800014320BB10120704710B50A460146044CB1
:103990002046FFF74AF92046FFF755F910BD00BF52
:1039A000040200200368B3F1A04F00D0704710B5A7
:1039B00088B04FF4C053039302230493002405946A
:1039C000032306930A23079303A91048FCF77AFE02
:1039D0000F4B5A6B42F080025A635A6B02F080021E
:1039E0000192019A5A6C42F480425A645B6C03F46F
:1039F00080430293029B224621464320FCF7F8FDB8
:103A00004320FCF727FE08B010BD00BF00000240B5
:103A10000038024008B500F57071D0F8FC03FFF7DC
:103A20007CF908BD08B5C1EBC10293000344D3F88B
:103A30000822D0F8FC03FFF79DF908BD08B5C1EBDB
:103A4000C102930003449A6CD0F8FC03FFF7D8F945
:103A500008BD08B5D0F8FC03FFF777FA08BD10B52C
:103A60000446C3684BB10121D4F8FC03FFF75BFAAD
:103A7000D4F8FC03FFF72FFA10BD0021F4E7000093
:103A800010B50446D0F8FC03FFF750FA2268D2F8CC
:103A9000003E43F00103C2F8003E236A23B1034A0B
:103AA000136943F00603136110BD00BF00ED00E091
:103AB00008B5D0F8FC03FFF742FA08BD08B5D0F806
:103AC000FC03FFF752FA08BD08B5D0F8FC03FFF776
:103AD0004AFA08BD08B5D0F8FC03FFF748FA08BD5C
:103AE00008B5D0F8FC03FFF744FA08BD03780BB122
:103AF0000020704710B503461748C0F8FC33C3F8E0
:103B000098024FF0A0430360062343600023036143
:103B1000436102228261C361036243628362C362C2
:103B20000363FCF709FF80B90B4C80212046FDF7A9
:103B30008CFC402200212046FDF763FC80220121FD
:103B40002046FDF75EFC002010BD4FF4A571034830
:103B5000FFF7BEFDE8E700BFA014002054400008B6
:103B600008B5D0F89802FCF769FF18B1022803D015
:103B7000022008BD0020FCE70120FAE710B51C4632
:103B800013462246D0F89802FDF7EAFA18B1022847
:103B900003D0022010BD0020FCE70120FAE708B5A1
:103BA000D0F89802FDF71DFB18B1022803D00220BF
:103BB00008BD0020FCE70120FAE708B5D0F898021C
:103BC000FDF7A7FB18B1022803D0022008BD002092
:103BD000FCE70120FAE708B5D0F89802FDF7DAFB18
:103BE00018B1022803D0022008BD0020FCE7012004
:103BF000FAE7D0F8983211F0800F08D101F07F0178
:103C0000C1EBC1018A00134493F8FE01704701F033
:103C10007F01C1EBC1018A00134493F83E00704755
:103C200008B5D0F89802FDF787FA18B1022803D03A
:103C3000022008BD0020FCE70120FAE708B5D0F813
:103C40009802FDF73CFB18B1022803D0022008BD02
:103C50000020FCE70120FAE708B5D0F89802FDF74C
:103C6000F7FA18B1022803D0022008BD0020FCE7B3
:103C70000120FAE708B5D0F89802FDF717FB08BD58
:103C800010B5044611B1012916D010BD036A5BB905
:103C90002268D2F8003E23F00103C2F8003ED4F8B7
:103CA000FC03FFF74CF9F0E7FFF714FD0C4A13692A
:103CB00023F006031361EBE70268D2F8003E43F0FD
:103CC0000103C2F8003ED0F8FC03FFF72FF9236A86
:103CD000002BDAD0024A136943F006031361D4E7DC
:103CE00000ED00E012230B80004870472C010020FB
:103CF00004230B8000487047400100200C230B80F8
:103D0000004870474401002008B50A4628B105491B
:103D10000548FFF766FC034808BD02490248FFF763
:103D200060FCF8E7A01800206840000810B5044CBB
:103D30000A4621460348FFF754FC204610BD00BF49
:103D4000A01800208040000808B50A4628B105499F
:103D50000548FFF746FC034808BD02490248FFF743
:103D600040FCF8E7A01800209440000808B50A4677
:103D700028B105490548FFF734FC034808BD02494E
:103D80000248FFF72EFCF8E7A0180020A440000826
:103D900008B50A4628B105490548FFF722FC034843
:103DA00008BD02490248FFF71CFCF8E7A0180020F4
:103DB000B0400008DFF834D0002103E00C4B5B5822
:103DC000435004310B480C4B42189A42F6D30B4A2D
:103DD00002E0002342F8043B094B9A42F9D3FFF773
:103DE00061FD00F011F8FFF7E3FC704700000420CC
:103DF000D040000800000020D4010020D4010020A1
:103E0000A41A0020FEE7000070B50D4E0D4CA41B57
:103E1000A4100025A54209D10B4E0C4C00F0F0F87F
:103E2000A41BA4100025A54205D170BD56F825306D
:103E300098470135EEE756F8253098470135F2E707
:103E4000C8400008C8400008C8400008CC4000082E
:103E5000024B0146186800F059B800BF70010020FD
:103E6000024B0146186800F003B800BF7001002043
:103E700038B50546002945D051F8043C0C1F002BED
:103E8000B8BFE41800F0ACF81F4A1368104633B905
:103E9000636014602846BDE8384000F0A2B8A34231
:103EA0000CD921686218934204BF1A685B6863608A
:103EB00004BF521822600460ECE713465A680AB146
:103EC000A242FAD919685818A0420BD120680144BF
:103ED000581882421960DDD1106852685A60014456
:103EE0001960D7E702D90C232B60D3E7206821188B
:103EF0008A4204BF11685268626004BF09182160D9
:103F00005C60C7E738BD00BFF401002070B5CD1C70
:103F100025F0030508350C2D38BF0C25002D06466D
:103F200001DBA94203D90C233360002070BD00F0EF
:103F300057F8214A1468214691B9204C23681BB9CF
:103F4000304600F03DF820602946304600F038F851
:103F5000431C24D10C233360304600F042F8E4E7E0
:103F60000B685B1B18D40B2B0FD90B60CD50CC18F2
:103F7000304600F036F804F10B00231D20F0070056
:103F8000C31AD3D05A42E250D0E78C424B6816BFD6
:103F9000636013600C46EBE70C464968CCE7C41C31
:103FA00024F00304A04205D0211A304600F008F89E
:103FB0000130CFD02560DBE7F4010020F8010020BC
:103FC00038B5064C002305460846236000F00AF881
:103FD000431C02D1236803B12B6038BDA01A002016
:103FE00070477047044A05491368002B08BF0B4609
:103FF0001844106018467047FC010020A81A0020E1
:10400000F8B500BFF8BC08BC9E467047F8B500BFC5
:08401000F8BC08BC9E46704795
:1040180048656C6C6F2C20576F726C64210D0A0018
:10402800000000000000000000000000010203047E
:104038000607080900000000010203042E2E2F5372
:1040480072632F6D61696E2E630000002E2E2F5350
:1040580072632F757362645F636F6E662E63000010
:1040680053544D3332205669727475616C20436F16
:104078006D506F727400000053544D6963726F6520
:104088006C656374726F6E69637300003030303032
:10409800303030303030314100000000434443209C
:1040A800436F6E666967000043444320496E746538
:0840B8007266616365000000FF
:0840C00090C1FF7F0100000028
:0440C80005020008E5
:0440CC00E101000806
:1040D000010000001000000009024300020100C0BE
:1040E000320904000001020201000524001001054C
:1040F00024010001042402020524060001070582B0
:104100000308001009040100020A0000000705016D
:104110000240000007058102400000000902430040
:10412000020100C03209040000010202010005245E
:1041300000100105240100010424020205240600E8
:10414000010705820308001009040100020A0000AB
:1041500000070501020002000705810200020000BD
:1041600009074300020104C03209040000010202F1
:1041700001000524001001052401000104240202AD
:104180000524060001070582030800100904010048
:10419000020A000000070501024000000705810235
:1041A000400000000A06000200000040010000007C
:1041B000732B0008312B0008572A0008000000006C
:1041C0007F290008072A0008D929000800000000FC
:1041D0000000000000000000B5290008A92900081F
:1041E000C1290008CD2900080024F4005139000835
:1041F0002D39000831390008353900081201010253
:104200000202004083044057000201020301000043
:1042100004030904050F0C0001071002020000004E
:10422000E53C0008F13C00082D3D0008093D000870
:10423000493D00086D3D0008913D0008FD3C000827
:1042400074010020000000000000000000000000D9
:10425000000000000000000000000000000000005E
:10426000000000000000000000000000000000004E
:10427000000000000000000000000000000000003E
:10428000000000000000000000000000000000002E
:10429000000000000000000000000000000000001E
:0442A000000000001A
:0400000508003DB5FD
:00000001FF
