:020000040800F2
:1000000000000420551F0008D11E0008D31E000860
:10001000D51E0008D71E0008D91E000800000000E9
:10002000000000000000000000000000DB1E0008CF
:10003000DD1E000800000000DF1E0008E11E0008B1
:10004000A51F0008A51F0008A51F0008A51F000880
:10005000A51F0008A51F0008E91E0008A51F00082D
:10006000A51F0008A51F0008A51F0008A51F000860
:10007000A51F0008A51F0008A51F0008A51F000850
:10008000A51F0008A51F0008A51F0008A51F000840
:10009000A51F0008A51F0008A51F0008A51F000830
:1000A000A51F0008F51E0008A51F0008A51F0008D1
:1000B000A51F0008A51F0008A51F0008A51F000810
:1000C000A51F0008A51F0008A51F0008A51F000800
:1000D000A51F0008A51F0008A51F0008A51F0008F0
:1000E000A51F0008A51F0008A51F0008A51F0008E0
:1000F000A51F0008A51F0008A51F0008A51F0008D0
:10010000A51F0008A51F0008A51F0008A51F0008BF
:10011000A51F0008A51F0008A51F0008A51F0008AF
:10012000A51F0008A51F0008A51F0008A51F00089F
:10013000A51F0008000000000000000000000000F3
:10014000000000000000000000000000A51F0008E3
:10015000A51F0008A51F0008A51F0008A51F00086F
:10016000A51F0008A51F0008A51F0008A51F00085F
:10017000A51F0008A51F00080000000000000000E7
:10018000A51F0008A51F0008A51F0008A51F00083F
:10019000A51F0008A51F000800000000A51F0008FB
:1001A000000000000000000000000000A51F000883
:1001B000A51F0008A51F00080000000000000000A7
:1001C000000000000000000000000000000000002F
:1001D000000000000000000000000000A51F000853
:1001E00010B5054C237833B9044B13B10448AFF371
:1001F00000800123237010BD0C00002000000000CF
:10020000F01F000808B5034B1BB103490348AFF3C7
:10021000008008BD0000000010000020F01F000852
:1002200053B94AB9002908BF00281CBF4FF0FF315D
:100230004FF0FF3000F072B9ADF1080C6DE904CE5B
:1002400000F006F8DDF804E0DDE9022304B07047B1
:100250002DE9F047089E04468846002B4BD18A4280
:10026000154667D9B2FA82F24AB1C2F1200701FA03
:1002700002F320FA07F7954047EA030894404FEA53
:10028000154E230CB8FBFEF71FFA85FC0EFB1788F2
:1002900043EA084307FB0CF1994209D9EB1807F12F
:1002A000FF3080F01B81994240F21881023F2B44BD
:1002B0005B1AA4B2B3FBFEF00EFB103344EA034416
:1002C00000FB0CFCA44509D92C1900F1FF3380F088
:1002D0000781A44540F2048102382C4440EA0740DB
:1002E000A4EB0C0400271EB1D4400023C6E9004350
:1002F0003946BDE8F0878B4209D9002E00F0EB802B
:100300000027C6E9000138463946BDE8F087B3FA50
:1003100083F7002F47D18B4202D3824200F2FA804A
:10032000841A61EB030301209846002EE0D0C6E951
:100330000048DDE702B9FFDEB2FA82F2002A40F09F
:100340008F80491B4FEA154E1FFA85F80127B1FB34
:10035000FEFC230C0EFB1C1143EA014308FB0CF1CD
:10036000994207D9EB180CF1FF3002D2994200F202
:10037000CD808446591AA3B2B1FBFEF00EFB1014D7
:1003800043EA044408FB00F8A04507D92C1900F102
:10039000FF3302D2A04500F2B6801846A4EB080451
:1003A00040EA0C409FE7C7F1200CBB4022FA0CFE4C
:1003B0004EEA030E01FA07F420FA0CF521FA0CF3C9
:1003C0004FEA1E482543B3FBF8F92C0C08FB193300
:1003D0001FFA8EFA44EA034309FB0AF49C4202FA2C
:1003E00007F200FA07F10BD91EEB030309F1FF3006
:1003F00080F087809C4240F28480A9F10209734416
:100400001B1BADB2B3FBF8F008FB103345EA034405
:1004100000FB0AFAA24508D91EEB040400F1FF33E1
:100420006BD2A24569D90238744440EA0940A0FB66
:100430000289A4EB0A044C45C2464B4654D351D022
:10044000002E69D0B1EB0A0564EB030404FA0CFC3E
:10045000FD40FC404CEA0505C6E90054002747E78B
:10046000C2F1200320FA03F7954001FA02F021FAC5
:1004700003F34FEA154E3843010CB3FBFEF71FFAA6
:1004800085F80EFB173341EA034107FB08F38B4263
:1004900004FA02F407D9691807F1FF3C2FD28B4206
:1004A0002DD9023F2944CB1A81B2B3FBFEF00EFBDB
:1004B000103341EA034100FB08F38B4207D9691866
:1004C00000F1FF3C17D28B4215D902382944C91AD2
:1004D00040EA07473BE73746304609E70746E7E685
:1004E0001846FBE64145ABD2B8EB020A69EB0E02B7
:1004F00001381346A4E76046E9E7184695E76746E2
:10050000D1E781467CE702382C4447E7ACF1020C86
:100510002B442FE7384608E73746E9E6704700BF27
:1005200008B5032000F02EF8002001F093FC01F044
:1005300021FC002008BD0000034A1168034B1B7812
:100540000B441360704700BF28000020000000200B
:10055000014B1868704700BF2800002038B50446DA
:10056000FFF7F6FF0546B4F1FF3F02D0044B1B78BE
:100570001C44FFF7EDFF401BA042FAD338BD00BF7B
:10058000000000200649CB6823F4E0631B041B0C29
:10059000000200F4E0600343024A1A43CA60704755
:1005A00000ED00E00000FA0530B4154BDB68C3F342
:1005B0000223C3F10704042C28BF04241D1D062DAB
:1005C00014D9033B4FF0FF3505FA04F421EA040186
:1005D000994005FA03F322EA03031943002807DBD5
:1005E0000901C9B2074B195430BC70470023E9E731
:1005F00000F00F000901C9B2034B1954F4E700BF22
:1006000000ED00E000E400E014ED00E000F01F0267
:10061000400901239340024A42F82030704700BF4E
:1006200000E100E00138B0F1807F0AD2064B58604B
:10063000064AF02182F823100020986007221A60F1
:1006400070470120704700BF10E000E000ED00E0BF
:10065000042805D0054A136823F00403136070478B
:10066000024A136843F004031360704710E000E08F
:10067000704708B5FFF7FCFF08BD000000230F2BF3
:1006800000F2D680F0B482B039E0072200E0002208
:10069000B2403A430234674E46F82420664A146852
:1006A000EA4302EA04064F6817F4803F01D045EAA6
:1006B0000406614C2660646802EA04064F6817F479
:1006C000003F01D045EA04065B4C6660A46802EA7C
:1006D00004064F6817F4801F01D045EA0406564C03
:1006E000A660E46822404E6816F4001F01D045EA77
:1006F0000402514CE26001330F2B00F2968001227C
:100700009A400C6804EA0205AA42F4D14C68122C03
:1007100018BF022C10D1DE08083650F826C003F0AE
:100720000704A7000F24BC402CEA040C0C69BC4051
:1007300044EA0C0440F8264004685F000326BE40EB
:10074000F64306EA040C4C6804F00304BC4044EA97
:100750000C0404604C6804F1FF3C112C18BFBCF180
:10076000010F01D9122C11D1846806EA040CCC685F
:10077000BC4044EA0C048460446824EA020C4C68DF
:10078000C4F300129A4042EA0C024260C26816406A
:100790008A68BA403243C2604A6812F0805FAAD0C9
:1007A000264A546C44F480445464526C02F48042EF
:1007B0000192019A9C08A61C1E4A52F8267003F06A
:1007C000030296000F22B24027EA02071C4A904219
:1007D0003FF45DAF02F5806290421AD002F580626C
:1007E000904218D002F58062904216D002F58062E5
:1007F000904214D002F58062904212D002F58062DD
:10080000904210D002F5806290423FF43EAF082241
:100810003EE701223CE702223AE7032238E70422BE
:1008200036E7052234E7062232E702B0F0BC704713
:10083000704700BF00380140003C014000380240D2
:100840000000024012B9090481617047816170475C
:100850007047000008B5054B5B69034200D108BD35
:10086000024B5861FFF7F4FFF9E700BF003C01407D
:1008700010B582B01B4B1A6C42F080521A641B6C8C
:1008800003F080530193019B174A136843F48033AC
:100890001360FFF75DFE0446134B5B6813F4803F63
:1008A00008D1FFF755FE001BB0F57A7FF4D903207D
:1008B00002B010BD0C4A136843F400331360FFF715
:1008C00047FE0446084B5B6813F4003F07D1FFF76F
:1008D0003FFE001BB0F57A7FF4D90320E8E7002043
:1008E000E6E700BF0038024000700040002800F03A
:1008F000DB8170B582B00446036813F0010F29D084
:10090000A24B9B6803F00C03042B1AD09F4B9B68EF
:1009100003F00C03082B0FD06368B3F5803F40D081
:10092000002B54D1994B1A6822F480321A601A684D
:1009300022F480221A6039E0944B5B6813F4800F34
:10094000EAD0924B1B6813F4003F03D06368002B7E
:1009500000F0AC81236813F0020F75D08B4B9B68BD
:1009600013F00C0F5ED0894B9B6803F00C03082B2F
:1009700053D0E368002B00F08A80844A136843F068
:1009800001031360FFF7E4FD0546804B1B6813F07D
:10099000020F73D1FFF7DCFD401B0228F5D90320BD
:1009A00087E17A4A136843F48033136063682BB39A
:1009B000FFF7CEFD0546754B1B6813F4003FC9D108
:1009C000FFF7C6FD401B6428F5D9032071E1B3F59C
:1009D000A02F09D06D4B1A6822F480321A601A6871
:1009E00022F480221A60E1E7684B1A6842F4802200
:1009F0001A601A6842F480321A60D7E7FFF7A8FD40
:100A00000546624B1B6813F4003FA3D0FFF7A0FD1F
:100A1000401B6428F5D903204BE15C4B5B6813F461
:100A2000800FA6D1594B1B6813F0020F04D0E36866
:100A3000012B01D001203CE1544A136823F0F80354
:100A4000216943EAC1031360236813F0080F46D0FD
:100A5000636983B34D4A536F43F001035367FFF754
:100A600077FD0546494B5B6F13F0020F37D1FFF757
:100A70006FFD401B0228F5D903201AE1434A136891
:100A800023F0F803216943EAC1031360DCE73F4A1E
:100A9000136823F001031360FFF75AFD05463B4B33
:100AA0001B6813F0020FCFD0FFF752FD401B022846
:100AB000F5D90320FDE0354A536F23F00103536756
:100AC000FFF746FD0546314B5B6F13F0020F06D072
:100AD000FFF73EFD401B0228F5D90320E9E023681B
:100AE00013F0040F7ED0294B1B6C13F0805F1ED1D6
:100AF000264B1A6C42F080521A641B6C03F0805330
:100B00000193019B0125224B1B6813F4807F10D0B9
:100B1000A368012B21D0002B3CD11C4B1A6F22F073
:100B200001021A671A6F22F004021A671AE0002500
:100B3000E9E7174A136843F480731360FFF708FD71
:100B40000646134B1B6813F4807FE1D1FFF700FDCD
:100B5000801B6428F5D90320ABE00C4A136F43F0E7
:100B600001031367A3685BB3FFF7F2FC0646074B6C
:100B70001B6F13F0020F34D1FFF7EAFC801B41F228
:100B800088339842F3D9032093E000BF0038024035
:100B900000700040052B09D0484B1A6F22F001026B
:100BA0001A671A6F22F004021A67DBE7434B1A6FC9
:100BB00042F004021A671A6F42F001021A67D1E785
:100BC000FFF7C6FC06463D4B1B6F13F0020F08D023
:100BD000FFF7BEFC801B41F288339842F3D9032013
:100BE00067E0F5B9A369002B62D0344A926802F03D
:100BF0000C02082A5FD0022B19D0304A136823F068
:100C000080731360FFF7A4FC04462C4B1B6813F0A1
:100C1000007F47D0FFF79CFC001B0228F5D903207A
:100C200047E0264A136C23F080531364DAE7234A23
:100C3000136823F080731360FFF78AFC05461F4B8F
:100C40001B6813F0007F06D0FFF782FC401B0228D0
:100C5000F5D903202DE0E369226A1343626A43EA6F
:100C60008213A26A5208013A43EA0243E26A43EA63
:100C7000026343F00053114A5360136843F08073DA
:100C80001360FFF765FC04460C4B1B6813F0007FF4
:100C900006D1FFF75DFC001B0228F5D9032008E010
:100CA000002006E0002004E001207047012000E061
:100CB000002002B070BD0120FBE700BF00380240F9
:100CC000264B9B6803F00C03042B44D0082B01D067
:100CD000234870472DE9F04B204B5A6802F03F0241
:100CE0005B6813F4800F13D01C4B5968C1F3881153
:100CF00000231C48A1FB0001FFF792FA174B5B6829
:100D0000C3F3014301335B00B0FBF3F0BDE8F08BAC
:100D1000124B5B68C3F388131E4600275C01002555
:100D2000E41A65EB0705A90141EA9461A001001BE3
:100D300061EB0501CB0043EA5073C400A01943EBFB
:100D400007018B0243EA9053840220461946002390
:100D5000FFF766FAD2E70348704700BF0038024049
:100D60000024F40040787D01002800F0A28070B5D6
:100D70000446524B1B6803F00F038B420CD24F4AC0
:100D8000136823F00F030B431360136803F00F0382
:100D90008B4201D0012070BD236813F0020F17D0E1
:100DA00013F0040F04D0464A936843F4E053936071
:100DB000236813F0080F04D0414A936843F460435A
:100DC00093603F4A936823F0F003A0680343936065
:100DD0000D46236813F0010F31D06368012B20D03A
:100DE000022B25D0364A126812F0020F63D0344924
:100DF0008A6822F0030213438B60FFF7A9FB0646C3
:100E00002F4B9B6803F00C036268B3EB820F16D084
:100E1000FFF79EFB801B41F288339842F0D90320F4
:100E2000B9E7274A126812F4003FE0D10120B2E787
:100E3000234A126812F0007FD9D10120ABE71F4B83
:100E40001B6803F00F03AB420CD91C4A136823F054
:100E50000F032B431360136803F00F03AB4201D061
:100E6000012098E7236813F0040F06D0144A936812
:100E700023F4E053E1680B439360236813F0080FF9
:100E800007D00F4A936823F46043216943EAC10302
:100E90009360FFF715FF0A4B9B68C3F30313094ADE
:100EA000D35CD840084B1860002000F0D3FF00202E
:100EB00071E70120704701206DE700BF003C024050
:100EC000003802400820000808000020014B186884
:100ED000704700BF0800002008B5FFF7F7FF044B7C
:100EE0009B68C3F34233034AD35CD84008BD00BFBC
:100EF00000380240182000080F2303600B4B9A684B
:100F000002F0030242609A6802F0F00282609A687E
:100F100002F4E052C2609B68DB0803F4E053036113
:100F2000034B1B6803F00F030B607047003802404F
:100F3000003C0240F8B505460F4616461C462B6895
:100F40009B683B40B34238D0B4F1FF3FF7D02CB19F
:100F5000FFF7FEFA069BC01AA042F0D32A68536836
:100F600023F0E00353606B68B3F5827F0BD0AB6A6C
:100F7000B3F5005F14D0012385F85D30002385F8B8
:100F80005C3003201AE0AB68B3F5806F18BFB3F58F
:100F9000004FECD12A68136823F040031360E6E7A2
:100FA0002A68136823F400531B041B0C13602A687F
:100FB000136843F400531360DDE70020F8BDF0B57B
:100FC00083B007460D4614461E4602E0B6F1FF3FC9
:100FD00010D13A6893682B40A34241D0B5F5C06F59
:100FE00008BF002CF2D1137BDBB28DF807309DF8DF
:100FF0000730EBE72EB1FFF7ABFA089BC01AB042FF
:10100000E7D33A68536823F0E00353607B68B3F595
:10101000827F0BD0BB6AB3F5005F14D0012387F841
:101020005D30002387F85C3003201AE0BB68B3F51D
:10103000806F18BFB3F5004FECD13A68136823F006
:1010400040031360E6E73A68136823F400531B0477
:101050001B0C13603A68136843F400531360DDE718
:10106000002003B0F0BD70B582B004460D461646B0
:1010700000920B4600224FF4C051FFF7A0FFB8B911
:1010800000962B46002280212046FFF753FFB8B977
:1010900000962B4600224FF4C0612046FFF78FFFD9
:1010A000034650B1236E43F020032366032304E07C
:1010B000236E43F0200323660323184602B070BD5D
:1010C000236E43F0200323660323F6E770B582B056
:1010D00004460D4616464368B3F5827F0FD000964E
:1010E0002B46002280212046FFF724FF034698B9B3
:1010F0006268B2F5827F15D0184602B070BD836871
:10110000B3F5806F18BFB3F5004FE8D102681368DC
:1011100023F040031360E2E7236E43F020032366CD
:101120000323E9E7A268B2F5806F18BFB2F5004F5C
:10113000E2D100962B4600224FF4C0612046FFF713
:101140003EFF03460028D7D0236E43F020032366DA
:101150000323D1E7002858D010B50446002383624A
:1011600090F85D30002B45D0022384F85D30226872
:10117000136823F040031360E368B3F5E06F3ED9D2
:101180000022B3F5706F18BFB3F5E06F01D00021F6
:10119000A162216B21B9B3F5E06F33D90223236338
:1011A0006368A1680B4321690B4361690B43A16923
:1011B00001F400710B43E1690B43216A0B43A06A00
:1011C000216803430B60638B03F00403616A0B43E4
:1011D000616B0B43E1680B43216813434B6022684A
:1011E000D36923F40063D36100202066012384F8CF
:1011F0005D3010BD80F85C3000F004FEB4E74FF4C1
:101200008052BEE701232363CAE7012070472DE91E
:10121000F04182B01E4690F85C30012B00F0AC80AB
:1012200004460D469046012380F85C30FFF790F9A4
:10123000074694F85D30DBB2012B09D00220012370
:1012400084F85D30002384F85C3002B0BDE8F081A2
:10125000B8FA88F35B09002D08BF0123002B40F08A
:101260008380032384F85D3000232366A563A4F8FC
:101270003C80A4F83E802364A4F84430A4F84630AF
:101280002365E364A368B3F5004F0DD023681A68A3
:1012900012F0400F03D11A6842F040021A60E3686E
:1012A000B3F5E06F0BD82FE02268136843F4804356
:1012B0001360EBE7002E59D0B6F1FF3F10D1E38F5A
:1012C0009BB2002B3BD023689A6812F0020FF1D03A
:1012D00035F8022BDA60E38F013B9BB2E387EEE740
:1012E000FFF736F9C01BB042E9D30320A7E72A78FD
:1012F0001A73E38F013B9BB2E387013504E0002EB4
:1013000036D0B6F1FF3F13D1E38F9BB2BBB1236858
:101310009A6812F0020FF2D0E28F92B2012AE6D957
:1013200035F8022BDA60E38F023B9BB2E387EBE7F1
:10133000FFF70EF9C01BB042E6D303207FE73A4621
:1013400031462046FFF78FFE08B120232366A368AD
:1013500033B901932368DA6801929B680193019B7A
:10136000236E3BB900206AE7012068E7032066E7A7
:10137000032064E7012062E7022066E72DE9F843D5
:101380009846089D90F85C30012B00F0438104469C
:101390000F461646012380F85C30FFF7D9F88146E6
:1013A00094F85D30DBB26268012B13D0B2F5827F16
:1013B00008D00220012384F85D30002384F85C30DB
:1013C000BDE8F883A268002A40F01C81042B01D0FC
:1013D0000220EFE7B6FA86F35B09002F08BF01236E
:1013E000002B40F01181B8F1000F00F00F8194F84C
:1013F0005D30DBB2042B02D0052384F85D3000237E
:1014000023662664A4F84680A4F84480A763A4F861
:101410003E80A4F83C80E3642365E368B3F5E06FA5
:1014200004D8B4F846309BB2012B22D92268536805
:1014300023F48053536023681A6812F0400F03D1DD
:101440001A6842F040021A60E368B3F5E06F54D9BD
:1014500063681BB1E38F9BB2012B07D1236837F878
:10146000022BDA60E38F013B9BB2E3874FF0010868
:101470001CE02268536843F480535360DBE7B4F800
:1014800046309BB27BB123689A6812F0010F0AD0F4
:10149000DB6826F8023BB4F84630013B9BB2A4F867
:1014A00046304FF00108B5F1FF3F1ED1E38F9BB2EC
:1014B0002BB9B4F846309BB2002B00F09780B8F1FE
:1014C000000FDCD0E38F9BB2002BD8D023689A6842
:1014D00012F0020FD3D037F8022BDA60E38F013B12
:1014E0009BB2E3874FF00008C9E7FFF731F8A0EBA4
:1014F0000900A842DAD303205CE763681BB1E38FDD
:101500009BB2012B07D1236817F8012B1A73E38FC5
:10151000013B9BB2E3874FF0010829E03A781A7348
:10152000E38F013B9BB2E38701374FF00008B4F82B
:1015300046309BB2CBB123689A6812F0010F14D0E9
:10154000B4F8462092B2012A3CD9DB6826F8023B67
:10155000B4F84630023B9BB2A4F84630B4F84630AB
:101560009BB2012B26D94FF00108B5F1FF3F35D1D1
:10157000E38F9BB223B9B4F846309BB2002B35D031
:10158000B8F1000FD3D0E38F9BB2002BCFD02368EC
:101590009A6812F0020FCAD0E28F92B2012ABDD926
:1015A00037F8022BDA60E38F023B9BB2E3874FF000
:1015B0000008BCE72268536843F4805353604FF03F
:1015C0000108D2E71B7B3370B4F84630013B9BB275
:1015D000A4F8463001364FF00108C6E7FEF7B8FF21
:1015E000A0EB0900A842C3D30320E3E64A462946FC
:1015F0002046FFF738FD08B120232366236E3BB950
:101600000020D7E60220D5E60120D3E60120D1E66E
:101610000120CFE60220D3E62DE9F04182B0044656
:101620000D4690461E464368B3F5827F19D094F864
:101630005C30012B00F0B080012384F85C30FEF7B1
:1016400087FF074694F85D30DBB2012B15D00220EE
:10165000012384F85D30002384F85C3002B0BDE8DB
:10166000F0818368002BE2D1042380F85D3000967E
:1016700013460A46FFF782FEF0E7B8FA88F35B09E3
:10168000002D08BF0123002B7ED1042384F85D3098
:10169000002323662564A4F84480A4F84680A3634D
:1016A000A387E387E3642365E368B3F5E06F16D9A6
:1016B0002268536823F480535360A368B3F5004F46
:1016C00013D023681A6812F0400F03D11A6842F051
:1016D00040021A60E368B3F5E06F11D92EE022688A
:1016E000536843F480535360E7E72268136823F498
:1016F00080431360E5E7002E48D0B6F1FF3F12D1DA
:10170000B4F846309BB29BB323689A6812F0010F7D
:10171000F1D01B7B05F8013BB4F84630013B9BB28E
:10172000A4F84630ECE7FEF713FFC01BB042E7D346
:1017300003208DE766B3B6F1FF3F12D1B4F846300F
:101740009BB2ABB123689A6812F0010FF2D0DB684C
:1017500025F8023BB4F84630013B9BB2A4F8463072
:10176000ECE7FEF7F5FEC01BB042E7D303206FE7BE
:101770003A4631462046FFF7A9FC08B120232366EC
:10178000236E3BB9002063E7012061E703205FE798
:1017900003205DE701205BE702205FE770470268F6
:1017A000D36843F00103D3600268136843F0010378
:1017B000136000207047704770477047704710B53E
:1017C000044603681A6912F0020F11D0DA6812F0A9
:1017D000020F0DD06FF002021A6101230377036834
:1017E0009B6913F0030F79D0FFF7E6FF00232377FF
:1017F00023681A6912F0040F12D0DA6812F0040F8D
:101800000ED06FF004021A610223237723689B69CC
:1018100013F4407F68D02046FFF7CEFF00232377E4
:1018200023681A6912F0080F12D0DA6812F0080F54
:101830000ED06FF008021A61042323772368DB6956
:1018400013F0030F57D02046FFF7B6FF002323778E
:1018500023681A6912F0100F12D0DA6812F0100F14
:101860000ED06FF010021A61082323772368DB691A
:1018700013F4407F46D02046FFF79EFF00232377D6
:1018800023681A6912F0010F03D0DA6812F0010F11
:101890003FD123681A6912F0800F03D0DA6812F082
:1018A000800F3DD123681A6912F4807F03D0DA6873
:1018B00012F0800F3BD123681A6912F0400F03D059
:1018C000DA6812F0400F39D123681A6912F0200F3C
:1018D00003D0DA6812F0200F37D110BDFFF76BFF8D
:1018E0002046FFF76AFF81E72046FFF764FF2046A6
:1018F000FFF763FF92E72046FFF75DFF2046FFF703
:101900005CFFA3E72046FFF756FF2046FFF755FF91
:10191000B4E76FF001021A61204600F02DF9B8E734
:101920006FF080021A61204600F0B6F8BAE76FF057
:1019300080021A61204600F0AFF8BCE76FF0400269
:101940001A612046FFF73AFFBEE76FF020021A61E6
:10195000204600F0A0F8C0E770B403683A4CA042FB
:1019600014BF00240124B0F1804F14BF224644F07C
:101970000102AAB9354DA84214BF00250125344EF5
:10198000B0420DD065B905F1804505F58235A84214
:1019900014BF0025012506F50066B04200D01DB138
:1019A00023F070034D682B43002A33D1274A90421D
:1019B00014BF00220122264DA8422BD052BB02F1B7
:1019C000804202F58232904214BF0022012205F5C6
:1019D0000065A8421ED0EAB91E4A904214BF0022F8
:1019E000012205F59A35A84214D09AB91A4A9042B4
:1019F00014BF0022012205F50065A8420AD04AB9A9
:101A0000164A904214BF00220122A5F59635A8423D
:101A100000D01AB123F44073CA68134323F0800343
:101A20004A69134303608A68C2620A6882620C4B87
:101A3000984214BF234644F001030BB10B690363C2
:101A40000123436170BC7047000001400008004062
:101A50000004004000440140001800400020004005
:101A600000040140A8B110B5044690F83D305BB1C8
:101A7000022384F83D30211D2068FFF76DFF01230C
:101A800084F83D30002010BD80F83C30FFF786FE22
:101A9000EEE701207047704770470000F0B58BB04B
:101AA000304B1A6B42F010021A631A6B02F01002EC
:101AB0000092009A1A6B42F002021A631A6B02F04B
:101AC00002020192019A1A6B42F001021A631A6B28
:101AD00002F001020292029A1A6B42F080021A632B
:101AE0001A6B02F080020392039A1A6B42F008020A
:101AF0001A631B6B03F008030493049B1A4F012223
:101B000002213846FEF79EFE184E00224FF4805107
:101B10003046FEF797FE01250595154B06930024E8
:101B2000079405A91348FEF7A9FD0223059306951E
:101B30000794089405A93846FEF7A0FD4FF480539A
:101B4000059306950794089405A93046FEF796FD7F
:101B5000224621460620FEF727FD0620FEF756FD09
:101B60000BB0F0BD0038024000000240000C024003
:101B7000000011100010024008B50268034B9A42A1
:101B800000D008BDFEF7D8FCFBE700BF0000014015
:101B9000FEE7000008B51148114B03604FF4827353
:101BA0004360002383604FF44072C260036143616D
:101BB0004FF4007282611822C26103624362836241
:101BC0000722C262036308234363FFF7C3FA00B925
:101BD00008BDED210348FFF7DBFF00BF2C0000200C
:101BE000003001402020000800B595B02D4B1A6C44
:101BF00042F080521A641B6C03F080530193019BE6
:101C0000294B1A6842F440421A601B6803F44043AF
:101C10000293029B0223089301220B9210220C9242
:101C20000E9300220F9208221092D8221192129342
:101C30000923139308A8FEF759FE38BBFEF718FED8
:101C400040BB0F23039302230493002305934FF417
:101C5000A05306934FF480530793072103A8FFF77F
:101C600083F8D8B9FFF732F9104BA3FB0030800995
:101C7000FEF7D8FC0420FEF7EBFC002211464FF0E3
:101C8000FF30FEF791FC15B05DF804FBB421084865
:101C9000FFF77EFFBB210648FFF77AFFC921044802
:101CA000FFF776FF0038024000700040D34D62100D
:101CB0002020000800B583B0FEF732FCFFF794FF48
:101CC000FFF7ECFEFFF766FF284C002202212046BA
:101CD000FEF7B8FD20238DF8043011238DF8053070
:101CE000234D3223022201A92846FFF790FA012250
:101CF00002212046FEF7A6FD002202212046FEF723
:101D0000A1FDA0238DF804303223012201A9284629
:101D1000FFF77DFA3223012269462846FFF77CFC53
:101D2000012202212046FEF78DFD104C00220221E7
:101D30002046FEF787FD02A9A02301F8043D0C4DC3
:101D4000322301222846FFF762FA32230122694634
:101D50002846FFF761FC012202212046FEF772FDB2
:101D60004FF4C870FEF7FAFBDFE700BF0000024047
:101D70002C00002000B583B0214B1A6C42F0805239
:101D80001A641A6C02F080520092009A5A6C42F463
:101D900080425A645B6C03F480430193019B0320EF
:101DA000FEF7F0FB002211466FF00B00FEF7FCFB84
:101DB000002211466FF00A00FEF7F6FB00221146E2
:101DC0006FF00900FEF7F0FB002211466FF00400EF
:101DD000FEF7EAFB002211466FF00300FEF7E4FB7A
:101DE000002211466FF00100FEF7DEFB00221146D3
:101DF0004FF0FF30FEF7D8FB03B05DF804FB00BFE7
:101E0000003802400268114B9A4200D0704700B57A
:101E100087B003F584335A6C42F480525A645B6C89
:101E200003F480530093009B382301930223029311
:101E300000230393032304930523059301A9044876
:101E4000FEF71CFC07B05DF804FB00BF003001404A
:101E50000004024000B589B0002201461920FEF7B7
:101E6000A3FB1920FEF7D2FB154B5A6C42F001027E
:101E70005A645B6C03F001030193019B02A903A860
:101E8000FFF73AF8FFF728F843000E48A0FB0323BA
:101E90009B0C013B0C480D4A026040F2E732C260E5
:101EA0004360002303618360FFF7DCFD18B101206C
:101EB00009B05DF804FB0448FFF771FCF8E700BFC8
:101EC0000038024083DE1B439000002000000140E8
:101ED0007047FEE7FEE7FEE7FEE770477047704792
:101EE00008B5FEF7C6FB08BD08B50120FEF7B2FC39
:101EF00008BD000008B50248FFF761FC08BD00BF3F
:101F00009000002010B40F4AD2F8883043F47003D8
:101F1000C2F888300C4B196841F0010119600020AB
:101F200098601C680949214019600949596019687D
:101F300021F480211960D8604FF0006393605DF850
:101F4000044B704700ED00E000380240FFFFF6FE52
:101F500010300024DFF834D0002103E00C4B5B5834
:101F6000435004310B480C4B42189A42F6D30B4AAB
:101F700002E0002342F8043B094B9A42F9D3FFF7F1
:101F8000C1FF00F011F8FFF795FE70470000042034
:101F900040200008000000200C0000200C00002061
:101FA000D0000020FEE7000070B50D4E0D4CA41BC4
:101FB000A4100025A54209D10B4E0C4C00F018F8D6
:101FC000A41BA4100025A54205D170BD56F82530EC
:101FD00098470135EEE756F8253098470135F2E786
:101FE0003820000838200008382000083C2000086D
:101FF000F8B500BFF8BC08BC9E467047F8B500BFF6
:08200000F8BC08BC9E467047C5
:1020080000000000000000000102030406070809A0
:1020180000000000010203042E2E2F5372632F6D5F
:0820280061696E2E63000000E7
:0820300020E2FF7F0100000027
:042038000502000895
:04203C00E1010008B6
:0C20400001000000100000000024F4006B
:0400000508001F557B
:00000001FF
