:020000040800F2
:10000000000004208D260008152600081726000889
:10001000192600081B2600081D2600080000000005
:100020000000000000000000000000001F26000883
:1000300021260008000000002326000825260008CD
:10004000DD260008DD260008DD260008DD26000884
:10005000DD260008DD260008DD260008DD26000874
:10006000DD260008DD260008DD260008DD26000864
:10007000DD260008DD260008DD260008DD26000854
:10008000DD260008DD260008DD260008DD26000844
:10009000DD260008DD260008DD260008DD26000834
:1000A000DD2600082D260008DD260008DD260008D4
:1000B000DD260008DD260008DD260008DD26000814
:1000C000DD260008DD260008DD260008DD26000804
:1000D000DD260008DD260008DD260008DD260008F4
:1000E000DD260008DD260008DD260008DD260008E4
:1000F000DD260008DD260008DD260008DD260008D4
:10010000DD260008DD260008DD260008DD260008C3
:10011000DD260008DD260008DD260008DD260008B3
:10012000DD260008DD260008DD260008DD260008A3
:10013000DD260008000000000000000000000000B4
:10014000000000000000000000000000DD260008A4
:10015000DD260008DD260008DD260008DD26000873
:10016000DD260008DD260008DD260008DD26000863
:10017000DD260008DD260008000000000000000069
:10018000DD260008DD260008DD260008DD26000843
:10019000DD260008DD26000800000000DD2600083E
:1001A000000000000000000000000000DD26000844
:1001B000DD260008DD260008000000000000000029
:1001C000000000000000000000000000000000002F
:1001D000000000000000000000000000DD26000814
:1001E00010B5054C237833B9044B13B10448AFF371
:1001F00000800123237010BD1800002000000000C3
:100200002827000808B5034B1BB103490348AFF387
:10021000008008BD000000001C0000202827000806
:1002200053B94AB9002908BF00281CBF4FF0FF315D
:100230004FF0FF3000F072B9ADF1080C6DE904CE5B
:1002400000F006F8DDF804E0DDE9022304B07047B1
:100250002DE9F047089E04468846002B4BD18A4280
:10026000154667D9B2FA82F24AB1C2F1200701FA03
:1002700002F320FA07F7954047EA030894404FEA53
:10028000154E230CB8FBFEF71FFA85FC0EFB1788F2
:1002900043EA084307FB0CF1994209D9EB1807F12F
:1002A000FF3080F01B81994240F21881023F2B44BD
:1002B0005B1AA4B2B3FBFEF00EFB103344EA034416
:1002C00000FB0CFCA44509D92C1900F1FF3380F088
:1002D0000781A44540F2048102382C4440EA0740DB
:1002E000A4EB0C0400271EB1D4400023C6E9004350
:1002F0003946BDE8F0878B4209D9002E00F0EB802B
:100300000027C6E9000138463946BDE8F087B3FA50
:1003100083F7002F47D18B4202D3824200F2FA804A
:10032000841A61EB030301209846002EE0D0C6E951
:100330000048DDE702B9FFDEB2FA82F2002A40F09F
:100340008F80491B4FEA154E1FFA85F80127B1FB34
:10035000FEFC230C0EFB1C1143EA014308FB0CF1CD
:10036000994207D9EB180CF1FF3002D2994200F202
:10037000CD808446591AA3B2B1FBFEF00EFB1014D7
:1003800043EA044408FB00F8A04507D92C1900F102
:10039000FF3302D2A04500F2B6801846A4EB080451
:1003A00040EA0C409FE7C7F1200CBB4022FA0CFE4C
:1003B0004EEA030E01FA07F420FA0CF521FA0CF3C9
:1003C0004FEA1E482543B3FBF8F92C0C08FB193300
:1003D0001FFA8EFA44EA034309FB0AF49C4202FA2C
:1003E00007F200FA07F10BD91EEB030309F1FF3006
:1003F00080F087809C4240F28480A9F10209734416
:100400001B1BADB2B3FBF8F008FB103345EA034405
:1004100000FB0AFAA24508D91EEB040400F1FF33E1
:100420006BD2A24569D90238744440EA0940A0FB66
:100430000289A4EB0A044C45C2464B4654D351D022
:10044000002E69D0B1EB0A0564EB030404FA0CFC3E
:10045000FD40FC404CEA0505C6E90054002747E78B
:10046000C2F1200320FA03F7954001FA02F021FAC5
:1004700003F34FEA154E3843010CB3FBFEF71FFAA6
:1004800085F80EFB173341EA034107FB08F38B4263
:1004900004FA02F407D9691807F1FF3C2FD28B4206
:1004A0002DD9023F2944CB1A81B2B3FBFEF00EFBDB
:1004B000103341EA034100FB08F38B4207D9691866
:1004C00000F1FF3C17D28B4215D902382944C91AD2
:1004D00040EA07473BE73746304609E70746E7E685
:1004E0001846FBE64145ABD2B8EB020A69EB0E02B7
:1004F00001381346A4E76046E9E7184695E76746E2
:10050000D1E781467CE702382C4447E7ACF1020C86
:100510002B442FE7384608E73746E9E6704700BF27
:1005200008B5032000F08CFA002002F035F801F045
:100530009FFF002008BD0000034A1168034B1B7891
:100540000B441360704700BF3400002000000020FF
:10055000014B1868704700BF34000020494B5A68AF
:1005600022F440325A605A6841680A435A6002686D
:10057000536823F48073536002685368016943EA47
:10058000012353600268536823F04073536002688C
:10059000536881680B4353600268936823F40063D7
:1005A000936002689368C1680B439360826A364B1C
:1005B0009A4249D00268936823F07063936002689E
:1005C0009368816A0B4393600268936823F04053F9
:1005D000936002689368C16A0B43936002689368F2
:1005E00023F00203936002689368816943EA410340
:1005F0009360036A002B32D10268536823F40063CE
:1006000053600268D36A23F47003D3620168CB6A33
:10061000C269013A43EA0253CB620268936823F449
:100620000073936002689368016B43EA412393600F
:100630000268936823F48063936002689368416959
:1006400043EA8123936070470268936823F07063E4
:1006500093600268936823F040539360BEE702689A
:10066000536843F4006353600268536823F46043A3
:10067000536001684B68426A013A43EA42334B6077
:10068000BFE700BF002301400100000F20B310B5F9
:100690000446036C43B1236C13F0100F0AD0012001
:1006A000002384F83C3010BD436480F83C3001F0F6
:1006B00027FFF0E7226C094B134043F00203236449
:1006C0002046FFF74BFF00206064236C23F00303F8
:1006D00043F001032364E3E701207047FDEEFFFFD1
:1006E00082B00023019390F83C30012B61D00123AC
:1006F00080F83C3003689A6812F0010F13D19A68B1
:1007000042F001029A602F4B1B682F4AA2FB032381
:100710009B0C03EB4303019302E0019B013B01931C
:10072000019B002BF9D10268936813F0010F42D0AE
:10073000016C264B0B4043F480730364536813F43D
:10074000806F05D0036C23F4405343F4805303645B
:10075000036C13F4805F19D0436C23F006034364E9
:10076000002380F83C306FF022031360184B5B6865
:1007700013F01F0F0DD103689A6812F0405F1DD16E
:100780009A6842F080429A60002015E0002343649A
:10079000E6E703680F4A934201D000200CE09A6814
:1007A00012F0405F0CD19A6842F080429A600020BB
:1007B00002E0022000E0002002B070470020FBE7CA
:1007C0000020F9E71400002083DE1B43FEF8FFFF42
:1007D000002301400020014003689A6812F4806FF2
:1007E00003D09B6813F4807F1CD170B50D4604467E
:1007F000FFF7AEFE064623681A6812F0020F1AD100
:10080000B5F1FF3FF7D025B1FFF7A2FE801BA8424C
:10081000F1D9236C43F004032364002384F83C30B3
:1008200003202DE0036C43F020030364002380F8D1
:100830003C30012070476FF012021A60236C43F4C1
:100840000073236423689A6812F0405F17D1A2698D
:10085000BAB9DA6A12F4700F03D09B6813F4806F90
:1008600011D1236C23F480732364236C13F4805F11
:100870000BD1236C43F001032364002000E000202F
:1008800070BD0020FCE70020FAE70020F8E70368CD
:10089000D86C704730B482B00023019390F83C309C
:1008A000012B00F0C080012380F83C300B68092B3D
:1008B00022D90568EA689BB203EB43031E3B072479
:1008C00004FA03F322EA0303EB600B68574A9342EE
:1008D0000BD00568EA688C689BB203EB43031E3BB0
:1008E00004FA03F31343EB601BE00268D3688C68DF
:1008F00043EA0463D36014E005682A699BB203EB02
:100900004303072404FA03F322EA03032B61056877
:100910002A698C680B8803EB430304FA03F313433F
:100920002B614B68062B24D805686A6B03EB8303A5
:10093000053B1F2404FA03F322EA03036B630568F3
:100940006A6B4B6803EB8303053B0C8804FA03F3E3
:1009500013436B630268364B9A423AD00268344BB9
:100960009A423FD0002380F83C30184602B030BC99
:1009700070470C2B16D805682A6B03EB8303233BC7
:100980001F2404FA03F322EA03032B6305682A6B8E
:100990004B6803EB8303233B0C8804FA03F31343F4
:1009A0002B63D7E70568EA6A03EB8303413B1F2407
:1009B00004FA03F322EA0303EB620568EA6A4B6870
:1009C00003EB8303413B0C8804FA03F31343EB620C
:1009D000C0E70B68122BC1D1164A536843F4800359
:1009E0005360BBE70B68114A112B18BF9342B9D172
:1009F000104A536843F4000353600A680B4B9A4251
:100A0000B0D10D4B1B680D4AA2FB03239B0C03EBDB
:100A100083035A00019202E0019B013B0193019B79
:100A2000002BF9D19EE70220A0E700BF12000010C2
:100A300000200140002301401400002083DE1B43FE
:100A40000649CB6823F4E0631B041B0C000200F48E
:100A5000E0600343024A1A43CA60704700ED00E0B9
:100A60000000FA0530B4154BDB68C3F30223C3F171
:100A70000704042C28BF04241D1D062D14D9033B94
:100A80004FF0FF3505FA04F421EA0401994005FA14
:100A900003F322EA03031943002807DB0901C9B263
:100AA000074B195430BC70470023E9E700F00F00F2
:100AB0000901C9B2034B1954F4E700BF00ED00E08F
:100AC00000E400E014ED00E000F01F024009012303
:100AD0009340024A42F82030704700BF00E100E036
:100AE0000138B0F1807F0AD2064B5860064AF021E7
:100AF00082F823100020986007221A6070470120B6
:100B0000704700BF10E000E000ED00E0042805D0D1
:100B1000054A136823F0040313607047024A136800
:100B200043F004031360704710E000E0704708B51D
:100B3000FFF7FCFF08BD000000230F2B00F2D6805A
:100B4000F0B482B039E0072200E00022B2403A431C
:100B50000234674E46F82420664A1468EA4302EAE3
:100B600004064F6817F4803F01D045EA0406614C43
:100B70002660646802EA04064F6817F4003F01D05B
:100B800045EA04065B4C6660A46802EA04064F6806
:100B900017F4801F01D045EA0406564CA660E468AD
:100BA00022404E6816F4001F01D045EA0402514C61
:100BB000E26001330F2B00F2968001229A400C680C
:100BC00004EA0205AA42F4D14C68122C18BF022C88
:100BD00010D1DE08083650F826C003F00704A7003D
:100BE0000F24BC402CEA040C0C69BC4044EA0C0401
:100BF00040F8264004685F000326BE40F64306EA3C
:100C0000040C4C6804F00304BC4044EA0C04046087
:100C10004C6804F1FF3C112C18BFBCF1010F01D945
:100C2000122C11D1846806EA040CCC68BC4044EA5A
:100C30000C048460446824EA020C4C68C4F300127B
:100C40009A4042EA0C024260C26816408A68BA4082
:100C50003243C2604A6812F0805FAAD0264A546CC0
:100C600044F480445464526C02F480420192019A2C
:100C70009C08A61C1E4A52F8267003F00302960038
:100C80000F22B24027EA02071C4A90423FF45DAFB0
:100C900002F5806290421AD002F58062904218D02C
:100CA00002F58062904216D002F58062904214D024
:100CB00002F58062904212D002F58062904210D01C
:100CC00002F5806290423FF43EAF08223EE70122E7
:100CD0003CE702223AE7032238E7042236E70522FE
:100CE00034E7062232E702B0F0BC7047704700BF1D
:100CF00000380140003C0140003802400000024042
:100D000010B582B01B4B1A6C42F080521A641B6CF7
:100D100003F080530193019B174A136843F4803317
:100D20001360FFF715FC0446134B5B6813F4803F18
:100D300008D1FFF70DFC001BB0F57A7FF4D9032032
:100D400002B010BD0C4A136843F400331360FFF780
:100D5000FFFB0446084B5B6813F4003F07D1FFF725
:100D6000F7FB001BB0F57A7FF4D90320E8E70020F9
:100D7000E6E700BF0038024000700040002800F0A5
:100D8000DB8170B582B00446036813F0010F29D0EF
:100D9000A24B9B6803F00C03042B1AD09F4B9B685B
:100DA00003F00C03082B0FD06368B3F5803F40D0ED
:100DB000002B54D1994B1A6822F480321A601A68B9
:100DC00022F480221A6039E0944B5B6813F4800FA0
:100DD000EAD0924B1B6813F4003F03D06368002BEA
:100DE00000F0AC81236813F0020F75D08B4B9B6829
:100DF00013F00C0F5ED0894B9B6803F00C03082B9B
:100E000053D0E368002B00F08A80844A136843F0D3
:100E100001031360FFF79CFB0546804B1B6813F032
:100E2000020F73D1FFF794FB401B0228F5D9032072
:100E300087E17A4A136843F48033136063682BB305
:100E4000FFF786FB0546754B1B6813F4003FC9D1BD
:100E5000FFF77EFB401B6428F5D9032071E1B3F551
:100E6000A02F09D06D4B1A6822F480321A601A68DC
:100E700022F480221A60E1E7684B1A6842F480226B
:100E80001A601A6842F480321A60D7E7FFF760FBF5
:100E90000546624B1B6813F4003FA3D0FFF758FBD5
:100EA000401B6428F5D903204BE15C4B5B6813F4CD
:100EB000800FA6D1594B1B6813F0020F04D0E368D2
:100EC000012B01D001203CE1544A136823F0F803C0
:100ED000216943EAC1031360236813F0080F46D069
:100EE000636983B34D4A536F43F001035367FFF7C0
:100EF0002FFB0546494B5B6F13F0020F37D1FFF70D
:100F000027FB401B0228F5D903201AE1434A136846
:100F100023F0F803216943EAC1031360DCE73F4A89
:100F2000136823F001031360FFF712FB05463B4BE8
:100F30001B6813F0020FCFD0FFF70AFB401B0228FB
:100F4000F5D90320FDE0354A536F23F001035367C1
:100F5000FFF7FEFA0546314B5B6F13F0020F06D028
:100F6000FFF7F6FA401B0228F5D90320E9E02368D1
:100F700013F0040F7ED0294B1B6C13F0805F1ED141
:100F8000264B1A6C42F080521A641B6C03F080539B
:100F90000193019B0125224B1B6813F4807F10D025
:100FA000A368012B21D0002B3CD11C4B1A6F22F0DF
:100FB00001021A671A6F22F004021A671AE000256C
:100FC000E9E7174A136843F480731360FFF7C0FA28
:100FD0000646134B1B6813F4807FE1D1FFF7B8FA84
:100FE000801B6428F5D90320ABE00C4A136F43F053
:100FF00001031367A3685BB3FFF7AAFA0646074B22
:101000001B6F13F0020F34D1FFF7A2FA801B41F2DD
:1010100088339842F3D9032093E000BF00380240A0
:1010200000700040052B09D0484B1A6F22F00102D6
:101030001A671A6F22F004021A67DBE7434B1A6F34
:1010400042F004021A671A6F42F001021A67D1E7F0
:10105000FFF77EFA06463D4B1B6F13F0020F08D0D8
:10106000FFF776FA801B41F288339842F3D90320C8
:1010700067E0F5B9A369002B62D0344A926802F0A8
:101080000C02082A5FD0022B19D0304A136823F0D3
:1010900080731360FFF75CFA04462C4B1B6813F057
:1010A000007F47D0FFF754FA001B0228F5D9032030
:1010B00047E0264A136C23F080531364DAE7234A8F
:1010C000136823F080731360FFF742FA05461F4B45
:1010D0001B6813F0007F06D0FFF73AFA401B022886
:1010E000F5D903202DE0E369226A1343626A43EADB
:1010F0008213A26A5208013A43EA0243E26A43EACF
:10110000026343F00053114A5360136843F0807345
:101110001360FFF71DFA04460C4B1B6813F0007FA9
:1011200006D1FFF715FA001B0228F5D9032008E0C5
:10113000002006E0002004E001207047012000E0CC
:10114000002002B070BD0120FBE700BF0038024064
:10115000264B9B6803F00C03042B44D0082B01D0D2
:10116000234870472DE9F04B204B5A6802F03F02AC
:101170005B6813F4800F13D01C4B5968C1F38811BE
:1011800000231C48A1FB0001FFF74AF8174B5B68DE
:10119000C3F3014301335B00B0FBF3F0BDE8F08B18
:1011A000124B5B68C3F388131E4600275C010025C1
:1011B000E41A65EB0705A90141EA9461A001001B4F
:1011C00061EB0501CB0043EA5073C400A01943EB67
:1011D00007018B0243EA90538402204619460023FC
:1011E000FFF71EF8D2E70348704700BF00380240FF
:1011F0000024F40040787D01002800F0A28070B542
:101200000446524B1B6803F00F038B420CD24F4A2B
:10121000136823F00F030B431360136803F00F03ED
:101220008B4201D0012070BD236813F0020F17D04C
:1012300013F0040F04D0464A936843F4E0539360DC
:10124000236813F0080F04D0414A936843F46043C5
:1012500093603F4A936823F0F003A06803439360D0
:101260000D46236813F0010F31D06368012B20D0A5
:10127000022B25D0364A126812F0020F63D034498F
:101280008A6822F0030213438B60FFF761F9064678
:101290002F4B9B6803F00C036268B3EB820F16D0F0
:1012A000FFF756F9801B41F288339842F0D90320AA
:1012B000B9E7274A126812F4003FE0D10120B2E7F3
:1012C000234A126812F0007FD9D10120ABE71F4BEF
:1012D0001B6803F00F03AB420CD91C4A136823F0C0
:1012E0000F032B431360136803F00F03AB4201D0CD
:1012F000012098E7236813F0040F06D0144A93687E
:1013000023F4E053E1680B439360236813F0080F64
:1013100007D00F4A936823F46043216943EAC1036D
:101320009360FFF715FF0A4B9B68C3F30313094A49
:10133000D35CD840084B1860002001F02DF9002044
:1013400071E70120704701206DE700BF003C0240BB
:10135000003802404027000814000020014B1868A4
:10136000704700BF1400002008B5FFF7F7FF044BDB
:101370009B68C3F38223034AD35CD84008BD00BFF7
:10138000003802405027000808B5FFF7E7FF044B7C
:101390009B68C3F34233034AD35CD84008BD00BF07
:1013A00000380240502700080F2303600B4B9A6857
:1013B00002F0030242609A6802F0F00282609A68CA
:1013C00002F4E052C2609B68DB0803F4E05303615F
:1013D000034B1B6803F00F030B607047003802409B
:1013E000003C0240F0B583B00446036813F0010FDF
:1013F0000CD0A44B9A6822F400029A609A68C16AE1
:101400000A439A60C36AC3B1002600E0002623683D
:1014100013F4002F15D09B4AD2F88C3023F44013DC
:10142000616B0B43C2F88C30636BB3F5801F06D041
:10143000002B00F00581002504E00126E7E70126E6
:10144000F6E70025236813F4801F0FD08D4AD2F8E9
:101450008C3023F44003A16B0B43C2F88C30A36B98
:10146000B3F5800F00F0EE8003B90125236813F077
:10147000200F40F0E980236813F0100F0CD0814B4F
:10148000D3F88C2022F08072C3F88C20D3F88C2003
:10149000216B0A43C3F88C20236813F4804F08D0D3
:1014A000784AD2F8903023F44033E16D0B43C2F810
:1014B0009030236813F4004F08D0724AD2F890306D
:1014C00023F44023216E0B43C2F89030236813F4B9
:1014D000803F08D06B4AD2F8903023F44013616EFD
:1014E0000B43C2F89030236813F0400F08D0654AD0
:1014F000D2F8903023F00303E16B0B43C2F8903035
:10150000236813F0800F08D05E4AD2F8903023F0A1
:101510000C03216C0B43C2F89030236813F4807FD6
:1015200008D0584AD2F8903023F03003616C0B4356
:10153000C2F89030236813F4007F08D0514AD2F8E3
:10154000903023F0C003A16C0B43C2F890302368A5
:1015500013F4806F08D04B4AD2F8903023F44073D4
:10156000E16C0B43C2F89030236813F4006F08D08D
:10157000444AD2F8903023F44063216D0B43C2F803
:101580009030236813F4805F08D03E4AD2F8903040
:1015900023F44053616D0B43C2F89030236813F479
:1015A000005F08D0374AD2F8903023F44043A16D51
:1015B0000B43C2F89030236813F4001F0DD0314A5A
:1015C000D2F8903023F00063616F0B43C2F8903083
:1015D000636FB3F1006F00F0A180236813F4802FD4
:1015E00008D0284AD2F8903023F04073E16E0B43C4
:1015F000C2F89030236813F4000F08D0214AD2F8C3
:10160000903023F08053A16F0B43C2F890302368D1
:1016100013F0806F08D01B4AD2F8903023F00053AB
:10162000E16F0B43C2F89030002E79D12368B3F1FB
:10163000007F75D0002D40F0E380002003B0F0BDA6
:101640000125FFE601260FE70E4B1A6C42F080528F
:101650001A641B6C03F080530193019B0A4A1368C0
:1016600043F480731360FEF773FF0746064B1B6855
:1016700013F4807F0AD1FEF76BFFC01B6428F5D9F5
:101680000320DBE700380240007000408D4B1B6FE9
:1016900013F4407315D0A26A02F440729A4210D03B
:1016A000884B1A6F22F44072196F41F48031196728
:1016B000196F21F4803119671A671B6F13F0010F3E
:1016C00012D1A36A03F44072B2F5407F1DD07D4A67
:1016D000936823F4F81393607A490B6FA26AC2F3FC
:1016E0000B0213430B67C6E6FEF732FF0746754B46
:1016F0001B6F13F0020FE4D1FEF72AFFC01B41F26B
:1017000088339842F3D9032098E76E48826822F420
:10171000F8126D4919400A438260DDE701255CE754
:10172000684A136823F080631360FEF711FF0646D2
:10173000644B1B6813F0006F06D0FEF709FF801B97
:101740006428F5D9032079E7236813F0010F0ED040
:10175000E36A63B95B4AD2F88430616803F070636E
:1017600043EA8113A16843EA0173C2F88430236815
:1017700013F4002F03D0626BB2F5801F06D013F470
:10178000801F19D0A36BB3F5800F15D14D4AD2F845
:1017900084106068E3681B0643EA801301F0E041AF
:1017A0000B43C2F88430D2F88C3023F01F03E16978
:1017B00001390B43C2F88C30236813F0007F0AD044
:1017C0006268E3681B0643EA8213A26843EA027375
:1017D0003C4AC2F884303B4A136843F0806313608C
:1017E000FEF7B6FE0646374B1B6813F0006F7FF41A
:1017F00021AFFEF7ADFE801B6428F4D903201DE75E
:10180000304A136823F080531360FEF7A1FE0546AB
:101810002C4B1B6813F0005F06D0FEF799FE401BAF
:101820006428F5D9032009E7236813F4002F01D0B9
:10183000626B22B113F4801F18D0A36BB3B9214A95
:10184000D2F88830216903F4403343EA8113616997
:1018500043EA0163C2F88830D2F88C3023F4F8539D
:10186000216A013943EA0123C2F88C30236813F45A
:10187000001F03D0636FB3F1006F13D0114A1368D8
:1018800043F080531360FEF763FE04460D4B1B6864
:1018900013F0005F14D1FEF75BFE001B6428F5D93E
:1018A0000320CBE60749D1F888202069A3691B04EF
:1018B00043EA801302F070621343C1F88830DDE719
:1018C0000020BBE600380240FFFCFF0F70470268B3
:1018D000D36843F00103D3600268136843F0010347
:1018E000136000207047704770477047704710B50D
:1018F000044603681A6912F0020F11D0DA6812F078
:10190000020F0DD06FF002021A6101230377036802
:101910009B6913F0030F79D0FFF7E6FF00232377CD
:1019200023681A6912F0040F12D0DA6812F0040F5B
:101930000ED06FF004021A610223237723689B699B
:1019400013F4407F68D02046FFF7CEFF00232377B3
:1019500023681A6912F0080F12D0DA6812F0080F23
:101960000ED06FF008021A61042323772368DB6925
:1019700013F0030F57D02046FFF7B6FF002323775D
:1019800023681A6912F0100F12D0DA6812F0100FE3
:101990000ED06FF010021A61082323772368DB69E9
:1019A00013F4407F46D02046FFF79EFF00232377A5
:1019B00023681A6912F0010F03D0DA6812F0010FE0
:1019C0003FD123681A6912F0800F03D0DA6812F051
:1019D000800F3DD123681A6912F4807F03D0DA6842
:1019E00012F0800F3BD123681A6912F0400F03D028
:1019F000DA6812F0400F39D123681A6912F0200F0B
:101A000003D0DA6812F0200F37D110BDFFF76BFF5B
:101A10002046FFF76AFF81E72046FFF764FF204674
:101A2000FFF763FF92E72046FFF75DFF2046FFF7D1
:101A30005CFFA3E72046FFF756FF2046FFF755FF60
:101A4000B4E76FF001021A61204600F011FCB8E71C
:101A50006FF080021A61204600F0B6F8BAE76FF026
:101A600080021A61204600F0AFF8BCE76FF0400238
:101A70001A612046FFF73AFFBEE76FF020021A61B5
:101A8000204600F0A0F8C0E770B403683A4CA042CA
:101A900014BF00240124B0F1804F14BF224644F04B
:101AA0000102AAB9354DA84214BF00250125344EC4
:101AB000B0420DD065B905F1804505F58235A842E3
:101AC00014BF0025012506F50066B04200D01DB107
:101AD00023F070034D682B43002A33D1274A9042EC
:101AE00014BF00220122264DA8422BD052BB02F186
:101AF000804202F58232904214BF0022012205F595
:101B00000065A8421ED0EAB91E4A904214BF0022C6
:101B1000012205F59A35A84214D09AB91A4A904282
:101B200014BF0022012205F50065A8420AD04AB977
:101B3000164A904214BF00220122A5F59635A8420C
:101B400000D01AB123F44073CA68134323F0800312
:101B50004A69134303608A68C2620A6882620C4B56
:101B6000984214BF234644F001030BB10B69036391
:101B70000123436170BC7047000001400008004031
:101B800000040040004401400018004000200040D4
:101B900000040140A8B110B5044690F83D305BB197
:101BA000022384F83D30211D2068FFF76DFF0123DB
:101BB00084F83D30002010BD80F83C30FFF786FEF1
:101BC000EEE701207047704770472DE9F041054668
:101BD0000F4616469846069C2B68DB6937EA0303D6
:101BE0000CBF01230023B3421DD1B4F1FF3FF3D05A
:101BF0002CB1FEF7ADFCA0EB0800A042ECD32A68A4
:101C0000136823F4D07313602A68936823F00103E8
:101C10009360202385F8693085F86A30002385F8C1
:101C20006830032000E00020BDE8F0812DE9F0419C
:101C300082B01E4690F86930DBB2202B52D10446A8
:101C40000D469046B2FA82F35B09002908BF0123D2
:101C5000002B4CD190F86830012B4AD0012380F83A
:101C600068300023C366212380F86930FEF770FCDA
:101C70000746A4F85080A4F8528003E02A7823682D
:101C80009A620135B4F852309BB2DBB1B4F85230ED
:101C9000013B9BB2A4F8523000963B4600228021C3
:101CA0002046FFF792FF30BBA368B3F5805FE5D114
:101CB0002369002BE2D135F8023B2268C3F3080305
:101CC0009362DFE700963B46002240212046FFF763
:101CD0007CFF034688B9202284F86920002284F81A
:101CE000682000E00223184602B0BDE8F08101231D
:101CF000F9E70223F7E70323F5E70323F3E70000FF
:101D000010B5044683680269134342691343C269EC
:101D10001343016808689D4A024013430B60226820
:101D2000536823F44053E1680B435360A369226A6C
:101D30001A4321688B6823F4306313438B60236854
:101D4000934A934219D0934A93422AD0924A93429B
:101D500040D0924A934255D0914A93426AD0914AD8
:101D6000934200F08280904A934200F099808F4A1B
:101D7000934200F0B0801022C9E002F59432D2F80C
:101D8000902002F00302032A03D8DFE802F0BF0626
:101D900004081022BBE00222B9E00422B7E00822C6
:101DA000B5E002F5FA32D2F8902002F00C020C2ACB
:101DB00008D8DFE802F0BA0707070B07070709078B
:101DC00007070D001022A2E00222A0E004229EE0FC
:101DD00008229CE002F5F832D2F8902002F030029E
:101DE000102A0DD005D9202A08D0302A04D1082283
:101DF0008DE00AB900228AE0102288E0022286E003
:101E0000042284E002F5F632D2F8902002F0C002FB
:101E1000402A0DD005D9802A08D0C02A04D1082232
:101E200075E00AB9002272E0102270E002226EE032
:101E300004226CE002F5F432D2F8902002F44072F1
:101E4000B2F5807F0FD007D9B2F5007F09D0B2F587
:101E5000407F04D108225AE00AB9002257E010223C
:101E600055E0022253E0042251E002F59232D2F80A
:101E7000902002F44062B2F5806F0FD007D9B2F51E
:101E8000006F09D0B2F5406F04D108223FE00AB9D3
:101E900001223CE010223AE0022238E0042236E03F
:101EA00002F5E032D2F8902002F44052B2F5805FA1
:101EB0000FD007D9B2F5005F09D0B2F5405F04D169
:101EC000082224E00AB9002221E010221FE00222A9
:101ED0001DE004221BE002F5DE32D2F8902002F46D
:101EE0004042B2F5804F0FD007D9B2F5004F09D06C
:101EF000B2F5404F04D1082209E00AB9002206E0F9
:101F0000102204E0022202E0042200E00122E16942
:101F1000B1F5004F0BD0082A00F29B80DFE802F0F9
:101F2000616D7999839999998F000022EFE7082ACA
:101F300054D8DFE802F0051722533F5353534A00A9
:101F4000FFF712FA6268530803EB4003B3FBF2F3A6
:101F50009BB2002023F00F02C3F342031343226815
:101F6000D36010BDFFF710FA6268530803EB40031B
:101F7000B3FBF2F39BB20020ECE762680C4B03EB7F
:101F80005203B3FBF2F39BB20020E3E7F369FFEFE8
:101F9000001001400044004000480040004C004058
:101FA000005000400014014000780040007C0040D8
:101FB0000048E801FFF7CCF86268530803EB4003E0
:101FC000B3FBF2F39BB20020C4E76268530803F549
:101FD0008033B3FBF2F39BB20020BBE70120002368
:101FE000B8E7FFF7C1F9636800EB5300B0FBF3F00B
:101FF000236880B2D8600020B3E7FFF7C5F96368B3
:1020000000EB5300B0FBF3F0236880B2D8600020EF
:10201000A7E76168104A02EB5102B2FBF1F292B2FB
:10202000DA6000209DE7FFF793F8636800EB530048
:10203000B0FBF3F0236880B2D860002091E76168BC
:102040004A0802F50042B2FBF1F292B2DA600020D7
:1020500087E7012085E700BF0024F400436A13F0FE
:10206000010F06D00268536823F40033816A0B43E2
:102070005360436A13F0020F06D00268536823F4DA
:102080008033C16A0B435360436A13F0040F06D0D8
:102090000268536823F48023016B0B435360436A47
:1020A00013F0080F06D00268536823F40043416B15
:1020B0000B435360436A13F0100F06D00268936815
:1020C00023F48053816B0B439360436A13F0200F1A
:1020D00006D00268936823F40053C16B0B439360EE
:1020E000436A13F0400F0AD00268536823F4801348
:1020F000016C0B435360036CB3F5801F0BD0436A34
:1021000013F0800F06D00268536823F40023816C1B
:102110000B43536070470268536823F4C003416C5B
:102120000B435360EBE710B582B004460023C3664F
:10213000FEF70EFA2268126812F0080F09D1202368
:1021400084F8693084F86A30002084F8680002B0AE
:1021500010BD6FF07E430093034600224FF4001140
:102160002046FFF732FD0028E9D00320EFE778B3DF
:1021700010B5044690F869300BB3242384F8693015
:102180002268136823F0010313602046FFF7B8FDAF
:10219000012813D0636ABBB92268536823F49043C3
:1021A00053602268936823F02A03936022681368BF
:1021B00043F0010313602046FFF7B5FF10BD80F820
:1021C000683000F0C1F9D8E72046FFF747FFE3E7A2
:1021D0000120704784B00F4B1A6B42F001021A6362
:1021E0001A6B02F001020192019A1A6B42F002028C
:1021F0001A631A6B02F002020292029A1A6B42F000
:1022000080021A631B6B03F080030393039B04B0EB
:10221000704700BF0038024070B40A46002406E050
:102220000134124B83FB0253D217C2EBA302002AE4
:10223000F6D10FE00D4D85FB0135CB17C3EBA503A0
:102240001E4603EB83035D004B1B31460132A51A8A
:1022500030334355A242EDDB00230355631C0A22B1
:10226000C25402340D23035570BC7047676666661E
:1022700008B50268034B9A4200D008BDFEF75CF92E
:10228000FBE700BF00000140FEE7000008B50C4876
:102290000C4B03604FF4E133436000238360C36061
:1022A00003610C2242618361C36103624362FFF7F1
:1022B0005EFF00B908BD4FF48B710348FFF7E4FFE0
:1022C00080000020001401405827000800B585B0A8
:1022D0001548164B03604FF480334360002383603E
:1022E000036183610362C362114A8262C360012297
:1022F000C26103634261FEF7C9F960B9002300932C
:1023000001220192029369460748FEF7C3FA30B9E9
:1023100005B05DF804FBF7210648FFF7B5FF40F272
:1023200001110448FFF7B0FF3800002000200140F1
:102330000100000F5827000800B5B5B0334B1A6CE8
:1023400042F080521A641B6C03F080530193019B8E
:102350002F4B1A6842F440421A601B6803F4404352
:102360000293029B0223289301222B9210222C928B
:102370002E9300222F9208223092D822319232934B
:102380000923339328A8FEF7F9FC78BBFEF7B8FCC5
:1023900080BB0F23239302232493002325934FF420
:1023A000A05326934FF480532793072123A8FEF7C9
:1023B00023FF18BB402303930023129303A8FFF7C6
:1023C00011F8F8B9FEF7CAFF124BA3FB00308009E1
:1023D000FEF786FB0420FEF799FB002211464FF022
:1023E000FF30FEF73FFB35B05DF804FBB6210A482D
:1023F000FFF74AFFBD210848FFF746FFCB210648FB
:10240000FFF742FFD2210448FFF73EFF00380240A9
:1024100000700040D34D62105827000810B5FEF739
:102420007FF8FFF789FFFFF7D5FEFFF72FFFFFF7D4
:102430004DFF0C4C2046FEF753F94FF47A712046BD
:10244000FEF7CAF92046FEF722FA074C014620465D
:10245000FFF7E2FE64230A2221460448FFF7E6FB69
:10246000E7E700BF380000200800002080000020BF
:1024700000B583B0214B1A6C42F080521A641A6C7A
:1024800002F080520092009A5A6C42F480425A64E0
:102490005B6C03F480430193019B0320FEF7D0FAA9
:1024A000002211466FF00B00FEF7DCFA0022114605
:1024B0006FF00A00FEF7D6FA002211466FF009000D
:1024C000FEF7D0FA002211466FF00400FEF7CAFAB8
:1024D000002211466FF00300FEF7C4FA00221146F5
:1024E0006FF00100FEF7BEFA002211464FF0FF30F8
:1024F000FEF7B8FA03B05DF804FB00BF00380240F5
:1025000002680F4B9A4200D0704700B587B003F5C0
:102510008C335A6C42F480725A645B6C03F480739F
:102520000093009B01230193032302930023039351
:1025300001A90448FEF700FB07B05DF804FB00BFEB
:1025400000200140000002400268114B9A4200D076
:10255000704700B587B003F594335A6C42F010020F
:102560005A645B6C03F010030093009BC02301933B
:102570000223029300230393032304930723059369
:1025800001A90448FEF7D8FA07B05DF804FB00BFC4
:10259000001001400004024000B589B0002201464D
:1025A0001920FEF75FFA1920FEF78EFA154B5A6CC8
:1025B00042F001025A645B6C03F001030193019B3A
:1025C00002A903A8FEF7F0FEFEF7DEFE43000E4868
:1025D000A0FB03239B0C013B0C480D4A026040F218
:1025E000E732C2604360002303618360FFF7D2FAE1
:1025F00018B1012009B05DF804FB0448FFF767F942
:10260000F8E700BF0038024083DE1B43F0000020E3
:10261000000001407047FEE7FEE7FEE7FEE7704777
:102620007047704708B5FEF782FA08BD08B5024842
:10263000FFF75DF908BD00BFF000002010B40F4A9D
:10264000D2F8883043F47003C2F888300C4B196814
:1026500041F001011960002098601C68094921407F
:10266000196009495960196821F480211960D860FE
:102670004FF0006393605DF8044B704700ED00E09D
:1026800000380240FFFFF6FE10300024DFF834D09F
:10269000002103E00C4B5B58435004310B480C4BBA
:1026A00042189A42F6D30B4A02E0002342F8043B58
:1026B000094B9A42F9D3FFF7C1FF00F011F8FFF779
:1026C000ADFE7047000004207827000800000020BD
:1026D000180000201800002030010020FEE7000054
:1026E00070B50D4E0D4CA41BA4100025A54209D1B8
:1026F0000B4E0C4C00F018F8A41BA4100025A542AA
:1027000005D170BD56F8253098470135EEE756F8EB
:10271000253098470135F2E7702700087027000838
:102720007027000874270008F8B500BFF8BC08BC83
:102730009E467047F8B500BFF8BC08BC9E4670477F
:102740000000000000000000010203040607080961
:1027500000000000010203042E2E2F5372632F6D20
:0827600061696E2E63000000A8
:08276800E8DAFF7F0100000028
:042770000502000856
:04277400E101000877
:1027780001000000100000004E6F6E6500000000B0
:08278800000000000024F40031
:040000050800268D3C
:00000001FF
