:020000040800F2
:1000000000000420892B0008112B0008132B000886
:10001000152B0008172B0008192B00080000000002
:100020000000000000000000000000001B2B000882
:100030001D2B0008000000001F2B0008212B0008CA
:10004000D92B0008D92B0008D92B0008D92B000880
:10005000D92B0008D92B0008D92B0008D92B000870
:10006000D92B0008D92B0008D92B0008D92B000860
:10007000D92B0008D92B0008D92B0008D92B000850
:10008000D92B0008D92B0008D92B0008D92B000840
:10009000D92B0008D92B0008D92B0008D92B000830
:1000A000D92B0008292B0008D92B0008D92B0008D0
:1000B000D92B0008D92B0008D92B0008D92B000810
:1000C000D92B0008D92B0008D92B0008D92B000800
:1000D000D92B0008D92B0008D92B0008D92B0008F0
:1000E000D92B0008D92B0008D92B0008D92B0008E0
:1000F000D92B0008D92B0008D92B0008D92B0008D0
:10010000D92B0008D92B0008D92B0008D92B0008BF
:10011000D92B0008D92B0008D92B0008D92B0008AF
:10012000D92B0008D92B0008D92B0008D92B00089F
:10013000D92B0008000000000000000000000000B3
:10014000000000000000000000000000D92B0008A3
:10015000D92B0008D92B0008D92B0008D92B00086F
:10016000D92B0008D92B0008D92B0008D92B00085F
:10017000D92B0008D92B0008000000000000000067
:10018000D92B0008D92B0008D92B0008D92B00083F
:10019000D92B0008D92B000800000000D92B00083B
:1001A000000000000000000000000000D92B000843
:1001B000D92B0008D92B0008000000000000000027
:1001C000000000000000000000000000000000002F
:1001D000000000000000000000000000D92B000813
:1001E00010B5054C237833B9044B13B10448AFF371
:1001F00000800123237010BD70000020000000006B
:100200007034000808B5034B1BB103490348AFF332
:10021000008008BD00000000740000207034000859
:1002200053B94AB9002908BF00281CBF4FF0FF315D
:100230004FF0FF3000F072B9ADF1080C6DE904CE5B
:1002400000F006F8DDF804E0DDE9022304B07047B1
:100250002DE9F047089E04468846002B4BD18A4280
:10026000154667D9B2FA82F24AB1C2F1200701FA03
:1002700002F320FA07F7954047EA030894404FEA53
:10028000154E230CB8FBFEF71FFA85FC0EFB1788F2
:1002900043EA084307FB0CF1994209D9EB1807F12F
:1002A000FF3080F01B81994240F21881023F2B44BD
:1002B0005B1AA4B2B3FBFEF00EFB103344EA034416
:1002C00000FB0CFCA44509D92C1900F1FF3380F088
:1002D0000781A44540F2048102382C4440EA0740DB
:1002E000A4EB0C0400271EB1D4400023C6E9004350
:1002F0003946BDE8F0878B4209D9002E00F0EB802B
:100300000027C6E9000138463946BDE8F087B3FA50
:1003100083F7002F47D18B4202D3824200F2FA804A
:10032000841A61EB030301209846002EE0D0C6E951
:100330000048DDE702B9FFDEB2FA82F2002A40F09F
:100340008F80491B4FEA154E1FFA85F80127B1FB34
:10035000FEFC230C0EFB1C1143EA014308FB0CF1CD
:10036000994207D9EB180CF1FF3002D2994200F202
:10037000CD808446591AA3B2B1FBFEF00EFB1014D7
:1003800043EA044408FB00F8A04507D92C1900F102
:10039000FF3302D2A04500F2B6801846A4EB080451
:1003A00040EA0C409FE7C7F1200CBB4022FA0CFE4C
:1003B0004EEA030E01FA07F420FA0CF521FA0CF3C9
:1003C0004FEA1E482543B3FBF8F92C0C08FB193300
:1003D0001FFA8EFA44EA034309FB0AF49C4202FA2C
:1003E00007F200FA07F10BD91EEB030309F1FF3006
:1003F00080F087809C4240F28480A9F10209734416
:100400001B1BADB2B3FBF8F008FB103345EA034405
:1004100000FB0AFAA24508D91EEB040400F1FF33E1
:100420006BD2A24569D90238744440EA0940A0FB66
:100430000289A4EB0A044C45C2464B4654D351D022
:10044000002E69D0B1EB0A0564EB030404FA0CFC3E
:10045000FD40FC404CEA0505C6E90054002747E78B
:10046000C2F1200320FA03F7954001FA02F021FAC5
:1004700003F34FEA154E3843010CB3FBFEF71FFAA6
:1004800085F80EFB173341EA034107FB08F38B4263
:1004900004FA02F407D9691807F1FF3C2FD28B4206
:1004A0002DD9023F2944CB1A81B2B3FBFEF00EFBDB
:1004B000103341EA034100FB08F38B4207D9691866
:1004C00000F1FF3C17D28B4215D902382944C91AD2
:1004D00040EA07473BE73746304609E70746E7E685
:1004E0001846FBE64145ABD2B8EB020A69EB0E02B7
:1004F00001381346A4E76046E9E7184695E76746E2
:10050000D1E781467CE702382C4447E7ACF1020C86
:100510002B442FE7384608E73746E9E6704700BF27
:10052000034613F8012B002AFBD1181A0138704733
:1005300001F0FF01102A2BDB10F0070F08D010F894
:10054000013B013A8B422DD010F0070F42B3F6D198
:10055000F0B441EA012141EA014122F007047FF0B1
:1005600000070023F0E80256083C85EA010586EA08
:10057000010685FA47F5A3FA87F586FA47F6A5FA44
:1005800087F68EB9EED1F0BC01F0FF0102F0070250
:1005900032B110F8013B013A83EA010313B1F8D1FB
:1005A0000020704701387047002D06BF35460338DC
:1005B000073815F0010F07D1013015F4807F02BF15
:1005C000013015F4C03F0130F0BC0138704700BF66
:1005D00008B5032000F02EF8002002F05BFA02F0CC
:1005E000B7F9002008BD0000034A1168034B1B78CF
:1005F0000B441360704700BF9800002000000020EB
:10060000014B1868704700BF9800002038B50446B9
:10061000FFF7F6FF0546B4F1FF3F02D0044B1B780D
:100620001C44FFF7EDFF401BA042FAD338BD00BFCA
:10063000000000200649CB6823F4E0631B041B0C78
:10064000000200F4E0600343024A1A43CA607047A4
:1006500000ED00E00000FA0530B4154BDB68C3F391
:100660000223C3F10704042C28BF04241D1D062DFA
:1006700014D9033B4FF0FF3505FA04F421EA0401D5
:10068000994005FA03F322EA03031943002807DB24
:100690000901C9B2074B195430BC70470023E9E780
:1006A00000F00F000901C9B2034B1954F4E700BF71
:1006B00000ED00E000E400E014ED00E000F01F02B7
:1006C000400901239340024A42F82030704700BF9E
:1006D00000E100E00138B0F1807F0AD2064B58609B
:1006E000064AF02182F823100020986007221A6041
:1006F00070470120704700BF10E000E000ED00E00F
:10070000042805D0054A136823F0040313607047DA
:10071000024A136843F004031360704710E000E0DE
:10072000704708B5FFF7FCFF08BD000000230F2B42
:1007300000F2D680F0B482B039E0072200E0002257
:10074000B2403A430234674E46F82420664A1468A1
:10075000EA4302EA04064F6817F4803F01D045EAF5
:100760000406614C2660646802EA04064F6817F4C8
:10077000003F01D045EA04065B4C6660A46802EACB
:1007800004064F6817F4801F01D045EA0406564C52
:10079000A660E46822404E6816F4001F01D045EAC6
:1007A0000402514CE26001330F2B00F296800122CB
:1007B0009A400C6804EA0205AA42F4D14C68122C53
:1007C00018BF022C10D1DE08083650F826C003F0FE
:1007D0000704A7000F24BC402CEA040C0C69BC40A1
:1007E00044EA0C0440F8264004685F000326BE403B
:1007F000F64306EA040C4C6804F00304BC4044EAE7
:100800000C0404604C6804F1FF3C112C18BFBCF1CF
:10081000010F01D9122C11D1846806EA040CCC68AE
:10082000BC4044EA0C048460446824EA020C4C682E
:10083000C4F300129A4042EA0C024260C2681640B9
:100840008A68BA403243C2604A6812F0805FAAD018
:10085000264A546C44F480445464526C02F480423E
:100860000192019A9C08A61C1E4A52F8267003F0B9
:10087000030296000F22B24027EA02071C4A904268
:100880003FF45DAF02F5806290421AD002F58062BB
:10089000904218D002F58062904216D002F5806234
:1008A000904214D002F58062904212D002F580622C
:1008B000904210D002F5806290423FF43EAF082291
:1008C0003EE701223CE702223AE7032238E704220E
:1008D00036E7052234E7062232E702B0F0BC704763
:1008E000704700BF00380140003C01400038024022
:1008F0000000024012B909048161704781617047AC
:1009000010B582B01B4B1A6C42F080521A641B6CFB
:1009100003F080530193019B174A136843F480331B
:100920001360FFF76DFE0446134B5B6813F4803FC2
:1009300008D1FFF765FE001BB0F57A7FF4D90320DC
:1009400002B010BD0C4A136843F400331360FFF784
:1009500057FE0446084B5B6813F4003F07D1FFF7CE
:100960004FFE001BB0F57A7FF4D90320E8E70020A2
:10097000E6E700BF0038024000700040002800F0A9
:10098000DB8170B582B00446036813F0010F29D0F3
:10099000A24B9B6803F00C03042B1AD09F4B9B685F
:1009A00003F00C03082B0FD06368B3F5803F40D0F1
:1009B000002B54D1994B1A6822F480321A601A68BD
:1009C00022F480221A6039E0944B5B6813F4800FA4
:1009D000EAD0924B1B6813F4003F03D06368002BEE
:1009E00000F0AC81236813F0020F75D08B4B9B682D
:1009F00013F00C0F5ED0894B9B6803F00C03082B9F
:100A000053D0E368002B00F08A80844A136843F0D7
:100A100001031360FFF7F4FD0546804B1B6813F0DC
:100A2000020F73D1FFF7ECFD401B0228F5D903201C
:100A300087E17A4A136843F48033136063682BB309
:100A4000FFF7DEFD0546754B1B6813F4003FC9D167
:100A5000FFF7D6FD401B6428F5D9032071E1B3F5FB
:100A6000A02F09D06D4B1A6822F480321A601A68E0
:100A700022F480221A60E1E7684B1A6842F480226F
:100A80001A601A6842F480321A60D7E7FFF7B8FD9F
:100A90000546624B1B6813F4003FA3D0FFF7B0FD7F
:100AA000401B6428F5D903204BE15C4B5B6813F4D1
:100AB000800FA6D1594B1B6813F0020F04D0E368D6
:100AC000012B01D001203CE1544A136823F0F803C4
:100AD000216943EAC1031360236813F0080F46D06D
:100AE000636983B34D4A536F43F001035367FFF7C4
:100AF00087FD0546494B5B6F13F0020F37D1FFF7B7
:100B00007FFD401B0228F5D903201AE1434A1368F0
:100B100023F0F803216943EAC1031360DCE73F4A8D
:100B2000136823F001031360FFF76AFD05463B4B92
:100B30001B6813F0020FCFD0FFF762FD401B0228A5
:100B4000F5D90320FDE0354A536F23F001035367C5
:100B5000FFF756FD0546314B5B6F13F0020F06D0D1
:100B6000FFF74EFD401B0228F5D90320E9E023687A
:100B700013F0040F7ED0294B1B6C13F0805F1ED145
:100B8000264B1A6C42F080521A641B6C03F080539F
:100B90000193019B0125224B1B6813F4807F10D029
:100BA000A368012B21D0002B3CD11C4B1A6F22F0E3
:100BB00001021A671A6F22F004021A671AE0002570
:100BC000E9E7174A136843F480731360FFF718FDD1
:100BD0000646134B1B6813F4807FE1D1FFF710FD2D
:100BE000801B6428F5D90320ABE00C4A136F43F057
:100BF00001031367A3685BB3FFF702FD0646074BCB
:100C00001B6F13F0020F34D1FFF7FAFC801B41F287
:100C100088339842F3D9032093E000BF00380240A4
:100C200000700040052B09D0484B1A6F22F00102DA
:100C30001A671A6F22F004021A67DBE7434B1A6F38
:100C400042F004021A671A6F42F001021A67D1E7F4
:100C5000FFF7D6FC06463D4B1B6F13F0020F08D082
:100C6000FFF7CEFC801B41F288339842F3D9032072
:100C700067E0F5B9A369002B62D0344A926802F0AC
:100C80000C02082A5FD0022B19D0304A136823F0D7
:100C900080731360FFF7B4FC04462C4B1B6813F001
:100CA000007F47D0FFF7ACFC001B0228F5D90320DA
:100CB00047E0264A136C23F080531364DAE7234A93
:100CC000136823F080731360FFF79AFC05461F4BEF
:100CD0001B6813F0007F06D0FFF792FC401B022830
:100CE000F5D903202DE0E369226A1343626A43EADF
:100CF0008213A26A5208013A43EA0243E26A43EAD3
:100D0000026343F00053114A5360136843F0807349
:100D10001360FFF775FC04460C4B1B6813F0007F53
:100D200006D1FFF76DFC001B0228F5D9032008E06F
:100D3000002006E0002004E001207047012000E0D0
:100D4000002002B070BD0120FBE700BF0038024068
:100D5000264B9B6803F00C03042B44D0082B01D0D6
:100D6000234870472DE9F04B204B5A6802F03F02B0
:100D70005B6813F4800F13D01C4B5968C1F38811C2
:100D800000231C48A1FB0001FFF74AFA174B5B68E0
:100D9000C3F3014301335B00B0FBF3F0BDE8F08B1C
:100DA000124B5B68C3F388131E4600275C010025C5
:100DB000E41A65EB0705A90141EA9461A001001B53
:100DC00061EB0501CB0043EA5073C400A01943EB6B
:100DD00007018B0243EA9053840220461946002300
:100DE000FFF71EFAD2E70348704700BF0038024001
:100DF0000024F40040787D01002800F0A28070B546
:100E00000446524B1B6803F00F038B420CD24F4A2F
:100E1000136823F00F030B431360136803F00F03F1
:100E20008B4201D0012070BD236813F0020F17D050
:100E300013F0040F04D0464A936843F4E0539360E0
:100E4000236813F0080F04D0414A936843F46043C9
:100E500093603F4A936823F0F003A06803439360D4
:100E60000D46236813F0010F31D06368012B20D0A9
:100E7000022B25D0364A126812F0020F63D0344993
:100E80008A6822F0030213438B60FFF7B9FB064622
:100E90002F4B9B6803F00C036268B3EB820F16D0F4
:100EA000FFF7AEFB801B41F288339842F0D9032054
:100EB000B9E7274A126812F4003FE0D10120B2E7F7
:100EC000234A126812F0007FD9D10120ABE71F4BF3
:100ED0001B6803F00F03AB420CD91C4A136823F0C4
:100EE0000F032B431360136803F00F03AB4201D0D1
:100EF000012098E7236813F0040F06D0144A936882
:100F000023F4E053E1680B439360236813F0080F68
:100F100007D00F4A936823F46043216943EAC10371
:100F20009360FFF715FF0A4B9B68C3F30313094A4D
:100F3000D35CD840084B1860002001F0ABFD0020C6
:100F400071E70120704701206DE700BF003C0240BF
:100F5000003802408834000808000020014B18685F
:100F6000704700BF0800002008B5FFF7F7FF044BEB
:100F70009B68C3F38223034AD35CD84008BD00BFFB
:100F8000003802409834000808B5FFF7E7FF044B2B
:100F90009B68C3F34233034AD35CD84008BD00BF0B
:100FA00000380240983400080F2303600B4B9A6806
:100FB00002F0030242609A6802F0F00282609A68CE
:100FC00002F4E052C2609B68DB0803F4E053036163
:100FD000034B1B6803F00F030B607047003802409F
:100FE000003C0240F0B583B00446036813F0010FE3
:100FF0000CD0A44B9A6822F400029A609A68C16AE5
:101000000A439A60C36AC3B1002600E00026236841
:1010100013F4002F15D09B4AD2F88C3023F44013E0
:10102000616B0B43C2F88C30636BB3F5801F06D045
:10103000002B00F00581002504E00126E7E70126EA
:10104000F6E70025236813F4801F0FD08D4AD2F8ED
:101050008C3023F44003A16B0B43C2F88C30A36B9C
:10106000B3F5800F00F0EE8003B90125236813F07B
:10107000200F40F0E980236813F0100F0CD0814B53
:10108000D3F88C2022F08072C3F88C20D3F88C2007
:10109000216B0A43C3F88C20236813F4804F08D0D7
:1010A000784AD2F8903023F44033E16D0B43C2F814
:1010B0009030236813F4004F08D0724AD2F8903071
:1010C00023F44023216E0B43C2F89030236813F4BD
:1010D000803F08D06B4AD2F8903023F44013616E01
:1010E0000B43C2F89030236813F0400F08D0654AD4
:1010F000D2F8903023F00303E16B0B43C2F8903039
:10110000236813F0800F08D05E4AD2F8903023F0A5
:101110000C03216C0B43C2F89030236813F4807FDA
:1011200008D0584AD2F8903023F03003616C0B435A
:10113000C2F89030236813F4007F08D0514AD2F8E7
:10114000903023F0C003A16C0B43C2F890302368A9
:1011500013F4806F08D04B4AD2F8903023F44073D8
:10116000E16C0B43C2F89030236813F4006F08D091
:10117000444AD2F8903023F44063216D0B43C2F807
:101180009030236813F4805F08D03E4AD2F8903044
:1011900023F44053616D0B43C2F89030236813F47D
:1011A000005F08D0374AD2F8903023F44043A16D55
:1011B0000B43C2F89030236813F4001F0DD0314A5E
:1011C000D2F8903023F00063616F0B43C2F8903087
:1011D000636FB3F1006F00F0A180236813F4802FD8
:1011E00008D0284AD2F8903023F04073E16E0B43C8
:1011F000C2F89030236813F4000F08D0214AD2F8C7
:10120000903023F08053A16F0B43C2F890302368D5
:1012100013F0806F08D01B4AD2F8903023F00053AF
:10122000E16F0B43C2F89030002E79D12368B3F1FF
:10123000007F75D0002D40F0E380002003B0F0BDAA
:101240000125FFE601260FE70E4B1A6C42F0805293
:101250001A641B6C03F080530193019B0A4A1368C4
:1012600043F480731360FFF7CBF90746064B1B6806
:1012700013F4807F0AD1FFF7C3F9C01B6428F5D9A6
:101280000320DBE700380240007000408D4B1B6FED
:1012900013F4407315D0A26A02F440729A4210D03F
:1012A000884B1A6F22F44072196F41F4803119672C
:1012B000196F21F4803119671A671B6F13F0010F42
:1012C00012D1A36A03F44072B2F5407F1DD07D4A6B
:1012D000936823F4F81393607A490B6FA26AC2F300
:1012E0000B0213430B67C6E6FFF78AF90746754BF7
:1012F0001B6F13F0020FE4D1FFF782F9C01B41F21C
:1013000088339842F3D9032098E76E48826822F424
:10131000F8126D4919400A438260DDE701255CE758
:10132000684A136823F080631360FFF769F9064683
:10133000644B1B6813F0006F06D0FFF761F9801B48
:101340006428F5D9032079E7236813F0010F0ED044
:10135000E36A63B95B4AD2F88430616803F0706372
:1013600043EA8113A16843EA0173C2F88430236819
:1013700013F4002F03D0626BB2F5801F06D013F474
:10138000801F19D0A36BB3F5800F15D14D4AD2F849
:1013900084106068E3681B0643EA801301F0E041B3
:1013A0000B43C2F88430D2F88C3023F01F03E1697C
:1013B00001390B43C2F88C30236813F0007F0AD048
:1013C0006268E3681B0643EA8213A26843EA027379
:1013D0003C4AC2F884303B4A136843F08063136090
:1013E000FFF70EF90646374B1B6813F0006F7FF4CA
:1013F00021AFFFF705F9801B6428F4D903201DE70E
:10140000304A136823F080531360FFF7F9F805465C
:101410002C4B1B6813F0005F06D0FFF7F1F8401B60
:101420006428F5D9032009E7236813F4002F01D0BD
:10143000626B22B113F4801F18D0A36BB3B9214A99
:10144000D2F88830216903F4403343EA811361699B
:1014500043EA0163C2F88830D2F88C3023F4F853A1
:10146000216A013943EA0123C2F88C30236813F45E
:10147000001F03D0636FB3F1006F13D0114A1368DC
:1014800043F080531360FFF7BBF804460D4B1B6815
:1014900013F0005F14D1FFF7B3F8001B6428F5D9EF
:1014A0000320CBE60749D1F888202069A3691B04F3
:1014B00043EA801302F070621343C1F88830DDE71D
:1014C0000020BBE600380240FFFCFF0FF8B50546E0
:1014D0000F4616461C462B689B683B40B34238D0EB
:1014E000B4F1FF3FF7D02CB1FFF78AF8069BC01A82
:1014F000A042F0D32A68536823F0E00353606B687E
:10150000B3F5827F0BD0AB6AB3F5005F14D0012333
:1015100085F85D30002385F85C3003201AE0AB6865
:10152000B3F5806F18BFB3F5004FECD12A6813688C
:1015300023F040031360E6E72A68136823F400539E
:101540001B041B0C13602A68136843F400531360D8
:10155000DDE70020F8BDF0B583B007460D46144620
:101560001E4602E0B6F1FF3F10D13A6893682B4067
:10157000A34241D0B5F5C06F08BF002CF2D1137B58
:10158000DBB28DF807309DF80730EBE72EB1FFF79F
:1015900037F8089BC01AB042E7D33A68536823F083
:1015A000E00353607B68B3F5827F0BD0BB6AB3F571
:1015B000005F14D0012387F85D30002387F85C308A
:1015C00003201AE0BB68B3F5806F18BFB3F5004F76
:1015D000ECD13A68136823F040031360E6E73A68F9
:1015E000136823F400531B041B0C13603A68136840
:1015F00043F400531360DDE7002003B0F0BD70B585
:1016000082B004460D46164600920B4600224FF467
:10161000C051FFF7A0FFB8B900962B4600228021E9
:101620002046FFF753FFB8B900962B4600224FF42F
:10163000C0612046FFF78FFF034650B1236E43F091
:1016400020032366032304E0236E43F02003236674
:101650000323184602B070BD236E43F020032366B7
:101660000323F6E770B582B004460D46164643687C
:10167000B3F5827F0FD000962B46002280212046B2
:10168000FFF724FF034698B96268B2F5827F15D050
:10169000184602B070BD8368B3F5806F18BFB3F50C
:1016A000004FE8D10268136823F040031360E2E7BB
:1016B000236E43F0200323660323E9E7A268B2F513
:1016C000806F18BFB2F5004FE2D100962B46002282
:1016D0004FF4C0612046FFF73EFF03460028D7D0F5
:1016E000236E43F0200323660323D1E7002858D05C
:1016F00010B504460023836290F85D30002B45D07E
:10170000022384F85D302268136823F040031360DD
:10171000E368B3F5E06F3ED90022B3F5706F18BFF0
:10172000B3F5E06F01D00021A162216B21B9B3F5BF
:10173000E06F33D9022323636368A1680B432169F7
:101740000B4361690B43A16901F400710B43E1692B
:101750000B43216A0B43A06A216803430B60638B30
:1017600003F00403616A0B43616B0B43E1680B43B5
:10177000216813434B602268D36923F40063D3616B
:1017800000202066012384F85D3010BD80F85C30B5
:1017900001F026F9B4E74FF48052BEE7012323633A
:1017A000CAE7012070472DE9F04182B01E4690F84B
:1017B0005C30012B00F0AC8004460D4690460123BE
:1017C00080F85C30FEF71CFF074694F85D30DBB212
:1017D000012B09D00220012384F85D30002384F816
:1017E0005C3002B0BDE8F081B8FA88F35B09002DE7
:1017F00008BF0123002B40F08380032384F85D3071
:1018000000232366A563A4F83C80A4F83E802364EB
:10181000A4F84430A4F846302365E364A368B3F524
:10182000004F0DD023681A6812F0400F03D11A68D8
:1018300042F040021A60E368B3F5E06F0BD82FE086
:101840002268136843F480431360EBE7002E59D0FD
:10185000B6F1FF3F10D1E38F9BB2002B3BD0236842
:101860009A6812F0020FF1D035F8022BDA60E38F9C
:10187000013B9BB2E387EEE7FEF7C2FEC01BB0421E
:10188000E9D30320A7E72A781A73E38F013B9BB2C1
:10189000E387013504E0002E36D0B6F1FF3F13D1C7
:1018A000E38F9BB2BBB123689A6812F0020FF2D0AB
:1018B000E28F92B2012AE6D935F8022BDA60E38F83
:1018C000023B9BB2E387EBE7FEF79AFEC01BB042F8
:1018D000E6D303207FE73A4631462046FFF78FFEE6
:1018E00008B120232366A36833B901932368DA681B
:1018F00001929B680193019B236E3BB900206AE72C
:10190000012068E7032066E7032064E7012062E71F
:10191000022066E72DE9F8439846089D90F85C3070
:10192000012B00F0438104460F461646012380F840
:101930005C30FEF765FE814694F85D30DBB262688C
:10194000012B13D0B2F5827F08D00220012384F846
:101950005D30002384F85C30BDE8F883A268002A7B
:1019600040F01C81042B01D00220EFE7B6FA86F389
:101970005B09002F08BF0123002B40F01181B8F153
:10198000000F00F00F8194F85D30DBB2042B02D021
:10199000052384F85D30002323662664A4F846807E
:1019A000A4F84480A763A4F83E80A4F83C80E364D4
:1019B0002365E368B3F5E06F04D8B4F846309BB212
:1019C000012B22D92268536823F480535360236883
:1019D0001A6812F0400F03D11A6842F040021A60F0
:1019E000E368B3F5E06F54D963681BB1E38F9BB232
:1019F000012B07D1236837F8022BDA60E38F013B14
:101A00009BB2E3874FF001081CE02268536843F45F
:101A100080535360DBE7B4F846309BB27BB1236858
:101A20009A6812F0010F0AD0DB6826F8023BB4F87E
:101A30004630013B9BB2A4F846304FF00108B5F1A7
:101A4000FF3F1ED1E38F9BB22BB9B4F846309BB257
:101A5000002B00F09780B8F1000FDCD0E38F9BB231
:101A6000002BD8D023689A6812F0020FD3D037F831
:101A7000022BDA60E38F013B9BB2E3874FF0000853
:101A8000C9E7FEF7BDFDA0EB0900A842DAD30320A9
:101A90005CE763681BB1E38F9BB2012B07D123681E
:101AA00017F8012B1A73E38F013B9BB2E3874FF0CA
:101AB000010829E03A781A73E38F013B9BB2E38770
:101AC00001374FF00008B4F846309BB2CBB1236821
:101AD0009A6812F0010F14D0B4F8462092B2012A8D
:101AE0003CD9DB6826F8023BB4F84630023B9BB297
:101AF000A4F84630B4F846309BB2012B26D94FF0FB
:101B00000108B5F1FF3F35D1E38F9BB223B9B4F89B
:101B100046309BB2002B35D0B8F1000FD3D0E38F05
:101B20009BB2002BCFD023689A6812F0020FCAD064
:101B3000E28F92B2012ABDD937F8022BDA60E38F27
:101B4000023B9BB2E3874FF00008BCE72268536872
:101B500043F4805353604FF00108D2E71B7B33708E
:101B6000B4F84630013B9BB2A4F8463001364FF042
:101B70000108C6E7FEF744FDA0EB0900A842C3D365
:101B80000320E3E64A4629462046FFF738FD08B120
:101B900020232366236E3BB90020D7E60220D5E63A
:101BA0000120D3E60120D1E60120CFE60220D3E6D2
:101BB0002DE9F04182B004460D4690461E4643682A
:101BC000B3F5827F19D094F85C30012B00F0B0801F
:101BD000012384F85C30FEF713FD074694F85D306E
:101BE000DBB2012B15D00220012384F85D300023E5
:101BF00084F85C3002B0BDE8F0818368002BE2D14C
:101C0000042380F85D30009613460A46FFF782FEF3
:101C1000F0E7B8FA88F35B09002D08BF0123002B19
:101C20007ED1042384F85D30002323662564A4F864
:101C30004480A4F84680A363A387E387E364236515
:101C4000E368B3F5E06F16D92268536823F4805334
:101C50005360A368B3F5004F13D023681A6812F0DD
:101C6000400F03D11A6842F040021A60E368B3F5EE
:101C7000E06F11D92EE02268536843F4805353601B
:101C8000E7E72268136823F480431360E5E7002E3A
:101C900048D0B6F1FF3F12D1B4F846309BB29BB3A7
:101CA00023689A6812F0010FF1D01B7B05F8013B05
:101CB000B4F84630013B9BB2A4F84630ECE7FEF79F
:101CC0009FFCC01BB042E7D303208DE766B3B6F19B
:101CD000FF3F12D1B4F846309BB2ABB123689A688B
:101CE00012F0010FF2D0DB6825F8023BB4F8463061
:101CF000013B9BB2A4F84630ECE7FEF781FCC01B29
:101D0000B042E7D303206FE73A4631462046FFF75B
:101D1000A9FC08B120232366236E3BB9002063E7AA
:101D2000012061E703205FE703205DE701205BE717
:101D300002205FE770470268D36843F00103D36075
:101D40000268136843F00103136000207047704776
:101D500070477047704710B5044603681A6912F05F
:101D6000020F11D0DA6812F0020F0DD06FF00202EC
:101D70001A610123037703689B6913F0030F79D07D
:101D8000FFF7E6FF0023237723681A6912F0040F98
:101D900012D0DA6812F0040F0ED06FF004021A614C
:101DA0000223237723689B6913F4407F68D0204681
:101DB000FFF7CEFF0023237723681A6912F0080F7C
:101DC00012D0DA6812F0080F0ED06FF008021A6114
:101DD000042323772368DB6913F0030F57D02046D1
:101DE000FFF7B6FF0023237723681A6912F0100F5C
:101DF00012D0DA6812F0100F0ED06FF010021A61D4
:101E0000082323772368DB6913F4407F46D02046FC
:101E1000FFF79EFF0023237723681A6912F0010F52
:101E200003D0DA6812F0010F3FD123681A6912F06B
:101E3000800F03D0DA6812F0800F3DD123681A6951
:101E400012F4807F03D0DA6812F0800F3BD1236850
:101E50001A6912F0400F03D0DA6812F0400F39D13E
:101E600023681A6912F0200F03D0DA6812F0200FED
:101E700037D110BDFFF76BFF2046FFF76AFF81E700
:101E80002046FFF764FF2046FFF763FF92E72046F6
:101E9000FFF75DFF2046FFF75CFFA3E72046FFF753
:101EA00056FF2046FFF755FFB4E76FF001021A61B5
:101EB000204600F013FCB8E76FF080021A6120465C
:101EC00000F0B6F8BAE76FF080021A61204600F021
:101ED000AFF8BCE76FF040021A612046FFF73AFF07
:101EE000BEE76FF020021A61204600F0A0F8C0E7BC
:101EF00070B403683A4CA04214BF00240124B0F12E
:101F0000804F14BF224644F00102AAB9354DA842C1
:101F100014BF00250125344EB0420DD065B905F13E
:101F2000804505F58235A84214BF0025012506F538
:101F30000066B04200D01DB123F070034D682B4302
:101F4000002A33D1274A904214BF00220122264D95
:101F5000A8422BD052BB02F1804202F5823290425D
:101F600014BF0022012205F50065A8421ED0EAB97F
:101F70001E4A904214BF0022012205F59A35A8425C
:101F800014D09AB91A4A904214BF0022012205F5D2
:101F90000065A8420AD04AB9164A904214BF0022EE
:101FA0000122A5F59635A84200D01AB123F440735A
:101FB000CA68134323F080034A69134303608A68A5
:101FC000C2620A6882620C4B984214BF234644F0F6
:101FD00001030BB10B6903630123436170BC7047BC
:101FE000000001400008004000040040004401409F
:101FF000001800400020004000040140A8B110B5C6
:10200000044690F83D305BB1022384F83D30211D39
:102010002068FFF76DFF012384F83D30002010BDDC
:1020200080F83C30FFF786FEEEE7012070477047EE
:1020300070472DE9F04105460F4616469846069C26
:102040002B68DB6937EA03030CBF01230023B3428B
:102050001DD1B4F1FF3FF3D02CB1FEF7D1FAA0EBC4
:102060000800A042ECD32A68136823F4D0731360ED
:102070002A68936823F001039360202385F8693070
:1020800085F86A30002385F86830032000E00020DE
:10209000BDE8F0812DE9F04182B01E4690F869302C
:1020A000DBB2202B52D104460D469046B2FA82F3A1
:1020B0005B09002908BF0123002B4CD190F8683040
:1020C000012B4AD0012380F868300023C366212306
:1020D00080F86930FEF794FA0746A4F85080A4F817
:1020E000528003E02A7823689A620135B4F85230AE
:1020F0009BB2DBB1B4F85230013B9BB2A4F8523032
:1021000000963B46002280212046FFF792FF30BB1D
:10211000A368B3F5805FE5D12369002BE2D135F8E0
:10212000023B2268C3F308039362DFE700963B4655
:10213000002240212046FFF77CFF034688B9202279
:1021400084F86920002284F8682000E00223184601
:1021500002B0BDE8F0810123F9E70223F7E703238A
:10216000F5E70323F3E7000010B50446836802692E
:10217000134342691343C2691343016808689D4AC7
:10218000024013430B602268536823F44053E16814
:102190000B435360A369226A1A4321688B6823F4B6
:1021A000306313438B602368934A934219D0934A58
:1021B00093422AD0924A934240D0924A934255D0B9
:1021C000914A93426AD0914A934200F08280904AA9
:1021D000934200F099808F4A934200F0B080102221
:1021E000C9E002F59432D2F8902002F00302032AEB
:1021F00003D8DFE802F0BF0604081022BBE0022289
:10220000B9E00422B7E00822B5E002F5FA32D2F8CC
:10221000902002F00C020C2A08D8DFE802F0BA077E
:1022200007070B070707090707070D001022A2E0A1
:102230000222A0E004229EE008229CE002F5F8328F
:10224000D2F8902002F03002102A0DD005D9202AB1
:1022500008D0302A04D108228DE00AB900228AE091
:10226000102288E0022286E0042284E002F5F632A1
:10227000D2F8902002F0C002402A0DD005D9802A61
:1022800008D0C02A04D1082275E00AB9002272E001
:10229000102270E002226EE004226CE002F5F432BB
:1022A000D2F8902002F44072B2F5807F0FD007D9A7
:1022B000B2F5007F09D0B2F5407F04D108225AE080
:1022C0000AB9002257E0102255E0022253E004220E
:1022D00051E002F59232D2F8902002F44062B2F559
:1022E000806F0FD007D9B2F5006F09D0B2F5406FFB
:1022F00004D108223FE00AB901223CE010223AE072
:10230000022238E0042236E002F5E032D2F89020D2
:1023100002F44052B2F5805F0FD007D9B2F5005FEA
:1023200009D0B2F5405F04D1082224E00AB90022A6
:1023300021E010221FE002221DE004221BE002F532
:10234000DE32D2F8902002F44042B2F5804F0FD036
:1023500007D9B2F5004F09D0B2F5404F04D1082299
:1023600009E00AB9002206E0102204E0022202E09D
:10237000042200E00122E169B1F5004F0BD0082AE8
:1023800000F29B80DFE802F0616D79998399999959
:102390008F000022EFE7082A54D8DFE802F0051783
:1023A00022533F5353534A00FEF7DEFD6268530841
:1023B00003EB4003B3FBF2F39BB2002023F00F02C8
:1023C000C3F3420313432268D36010BDFEF7DCFD64
:1023D0006268530803EB4003B3FBF2F39BB20020A7
:1023E000ECE762680C4B03EB5203B3FBF2F39BB2D6
:1023F0000020E3E7F369FFEF0010014000440040D4
:1024000000480040004C00400050004000140140D3
:1024100000780040007C00400048E801FEF798FC8E
:102420006268530803EB4003B3FBF2F39BB2002056
:10243000C4E76268530803F58033B3FBF2F39BB241
:102440000020BBE701200023B8E7FEF78DFD63689D
:1024500000EB5300B0FBF3F0236880B2D86000209B
:10246000B3E7FEF791FD636800EB5300B0FBF3F0B8
:10247000236880B2D8600020A7E76168104A02EBA9
:102480005102B2FBF1F292B2DA6000209DE7FEF752
:102490005FFC636800EB5300B0FBF3F0236880B28D
:1024A000D860002091E761684A0802F50042B2FB5B
:1024B000F1F292B2DA60002087E7012085E700BFE1
:1024C0000024F400436A13F0010F06D00268536839
:1024D00023F40033816A0B435360436A13F0020F05
:1024E00006D00268536823F48033C16A0B435360FB
:1024F000436A13F0040F06D00268536823F4802364
:10250000016B0B435360436A13F0080F06D0026857
:10251000536823F40043416B0B435360436A13F049
:10252000100F06D00268936823F48053816B0B432D
:102530009360436A13F0200F06D00268936823F477
:102540000053C16B0B439360436A13F0400F0AD0F2
:102550000268536823F48013016C0B435360036CCF
:10256000B3F5801F0BD0436A13F0800F06D00268CA
:10257000536823F40023816C0B4353607047026857
:10258000536823F4C003416C0B435360EBE710B571
:1025900082B004460023C366FEF732F82268126850
:1025A00012F0080F09D1202384F8693084F86A30CA
:1025B000002084F8680002B010BD6FF07E430093E5
:1025C000034600224FF400112046FFF732FD002899
:1025D000E9D00320EFE778B310B5044690F86930EE
:1025E0000BB3242384F869302268136823F00103B5
:1025F00013602046FFF7B8FD012813D0636ABBB90A
:102600002268536823F4904353602268936823F050
:102610002A0393602268136843F001031360204685
:10262000FFF7B5FF10BD80F8683000F00BFAD8E76F
:102630002046FFF747FFE3E701207047F0B58BB076
:10264000234B1A6B42F001021A631A6B02F001026B
:102650000192019A1A6B42F480721A631A6B02F4A7
:1026600080720292029A1A6B42F080021A631A6B0D
:1026700002F080020392039A1A6B42F004021A637A
:102680001B6B03F004030493049B124F00224FF4CE
:1026900000513846FEF72EF90F4E00220121304638
:1026A000FEF728F94FF40053059301250695002401
:1026B0000794089405A93846FEF738F8059506955D
:1026C0000794089405A93046FEF730F80BB0F0BD2A
:1026D00000380240001C02400020024008B5026899
:1026E000034B9A4200D008BDFDF77EFFFBE700BF19
:1026F00000000140FEE7000008B51148114B0360DF
:102700004FF482734360002383604FF4E062C26041
:10271000036143614FF4007282612022C26103624F
:10272000436283620722C262036308234363FEF7A6
:10273000DDFF00B908BD4FF481710348FFF7DAFFF0
:102740009C00002000380040A034000808B50C4868
:102750000C4B03604FF4E133436000238360C3609C
:1027600003610C2242618361C36103624362FFF72C
:1027700032FF00B908BD40F217110348FFF7BAFF56
:102780000001002000140140A034000800B5B5B0DD
:10279000344B1A6C42F080521A641B6C03F0805365
:1027A0000193019B304B1A6842F440421A601B6847
:1027B00003F440430293029B0223289301222B92AD
:1027C00010222C922E9300222F9208223092D8228F
:1027D000319232930923339328A8FEF7CFF880BBB8
:1027E000FEF78EF888BB0F23239302232493002344
:1027F00025934FF4A05326934FF48053279307213A
:1028000023A8FEF7F9FA20BB4FF4006303930023DB
:10281000179303A8FEF7E6FBF8B9FEF79FFB134BEF
:10282000A3FB00308009FDF755FF0420FDF768FF8A
:10283000002211464FF0FF30FDF70EFF35B05DF876
:1028400004FBC2210A48FFF755FFC9210848FFF7DA
:1028500051FFD7210648FFF74DFFDE210448FFF75F
:1028600049FF00BF0038024000700040D34D6210A5
:10287000A034000830B5ADF50F7DFDF7A9FEFFF7D8
:1028800085FFFFF7DBFEFFF737FFFFF75FFF4FF630
:10289000FF73112229492A48FFF7FCFB4FF47A7095
:1028A000FDF7B4FE09238DF8043000228DF80520D1
:1028B0008DF806208DF80720224C08212046FEF7CF
:1028C00019F8214D4FF0FF3304220DEB0201284689
:1028D000FEF769FF4FF0FF33022269462846FFF7F3
:1028E00067F9012208212046FEF704F86B46174AD3
:1028F0004FF4807102A800F095F902A8FDF710FED0
:102900000F4C4FF0FF3382B202A92046FFF7C2FB03
:102910004FF47A70FDF77AFE82AA4FF4807142A8D4
:1029200000F080F942A8FDF7FBFD4FF0FF3382B2C3
:1029300042A92046FFF7AEFBB4E700BFB034000861
:1029400000010020000802409C000020C434000860
:1029500000B583B0214B1A6C42F080521A641A6C95
:1029600002F080520092009A5A6C42F480425A64FB
:102970005B6C03F480430193019B0320FDF75AFE37
:10298000002211466FF00B00FDF766FE0022114693
:102990006FF00A00FDF760FE002211466FF009009B
:1029A000FDF75AFE002211466FF00400FDF754FEB9
:1029B000002211466FF00300FDF74EFE0022114683
:1029C0006FF00100FDF748FE002211464FF0FF3086
:1029D000FDF742FE03B05DF804FB00BF0038024083
:1029E0000268154B9A4200D07047F0B587B003F5E6
:1029F00000331A6C42F480421A641B6C03F4804367
:102A00000093009B0224019402940027039703265D
:102A100004960525059501A90848FDF787FE0C23B6
:102A20000193029403970496059501A90448FDF7C4
:102A30007DFE07B0F0BD00BF00380040002002401E
:102A4000000802400268114B9A4200D0704700B55E
:102A500087B003F592335A6C42F020025A645B6CE3
:102A600003F020030093009BC023019302230293F1
:102A700000230393032304930823059301A9044827
:102A8000FDF754FE07B05DF804FB00BF00140140E1
:102A90000008024000B589B0002201461920FDF768
:102AA000DBFD1920FDF70AFE154B5A6C42F00102BE
:102AB0005A645B6C03F001030193019B02A903A814
:102AC000FEF772FAFEF760FA43000E48A0FB0323FC
:102AD0009B0C013B0C480D4A026040F2E732C26099
:102AE0004360002303618360FFF788FA18B1012077
:102AF00009B05DF804FB0448FFF71DF9F8E700BFD3
:102B00000038024083DE1B437001002000000140BA
:102B10007047FEE7FEE7FEE7FEE770477047704745
:102B200008B5FDF7FEFD08BD08B50248FFF713F92B
:102B300008BD00BF7001002010B40F4AD2F88830E1
:102B400043F47003C2F888300C4B196841F001015E
:102B50001960002098601C680949214019600949E2
:102B60005960196821F480211960D8604FF0006322
:102B700093605DF8044B704700ED00E000380240C0
:102B8000FFFFF6FE10300024DFF834D0002103E010
:102B90000C4B5B58435004310B480C4B42189A4283
:102BA000F6D30B4A02E0002342F8043B094B9A4259
:102BB000F9D3FFF7C1FF00F011F8FFF75BFE704794
:102BC000000004201C3500080000002070000020D8
:102BD00070000020B4010020FEE7000070B50D4E2B
:102BE0000D4CA41BA4100025A54209D10B4E0C4C82
:102BF00000F03EFCA41BA4100025A54205D170BD29
:102C000056F8253098470135EEE756F825309847B5
:102C10000135F2E7143500081435000814350008B2
:102C2000183500080CB430B5174B0C1E9DB01D684C
:102C300008DA8B232B604FF0FF301DB0BDE8304029
:102C400002B070474FF40273ADF8143014BF04F1B2
:102C5000FF332346049307934FF6FF7302900690C9
:102C6000ADF81630209A21AB02A92846019300F056
:102C700067F8431CBCBF8B232B60002CDDD0029B6C
:102C800000221A70D9E700BF0C0000202DE9F047A0
:102C90008E689E4282460C469046994637D88A896D
:102CA00012F4906F31D0256809696F1A65690223A3
:102CB00005EB450595FBF3F509F101033B449D4206
:102CC00038BF1D46530530D5294600F029FB06467E
:102CD00050B90C23CAF80030A38943F04003A38104
:102CE0004FF0FF30BDE8F0873A46216900F0A6FAC0
:102CF000A38923F4906343F08003A3812661656177
:102D00003E44ED1B2660A5604E464E4500D94E461A
:102D100032464146206800F09CFAA3689B1BA360E2
:102D200023681E4426600020DCE72A4600F052FBA0
:102D300006460028E2D12169504600F0A3FAC8E710
:102D40002DE9F04F9DB0804603938B891D060C46FC
:102D500016460FD50B696BB9402100F0E1FA2060EF
:102D6000206128B90C23C8F800304FF0FF30C7E0CD
:102D7000402363610023099320238DF829303023F9
:102D80008DF82A304FF0010B37463D4615F8013BD0
:102D90000BB1252B3ED1B7EB060A0BD0534632467A
:102DA00021464046FFF772FF013000F0A480099BE6
:102DB000534409933B78002B00F09D8000234FF093
:102DC000FF32CDE90523049307938DF853301A930E
:102DD0002F46052217F8011B4F48FDF7A9FB049B5E
:102DE000D0B9D90644BF20228DF853201A0744BF1A
:102DF0002B228DF853202A782A2A15D0079A2F469D
:102E000000200A25394611F8013B303B092B4DD9EA
:102E1000B8B10FE02F46B8E73F4A801A0BFA00F02E
:102E2000184304903D46D3E7039A111D126803919D
:102E3000002A01DB079204E0524243F002030792AA
:102E400004933B782E2B0CD17B782A2B33D1039B18
:102E50001A1D1B680392002BB8BF4FF0FF330237D7
:102E600005932E4D397803222846FDF761FB38B1D2
:102E70004023401B03FA00F0049B034301370493F3
:102E8000397827488DF8281006227E1CFDF750FB64
:102E9000002838D0234B13BB039B073323F00703D1
:102EA00008330393099B4B4409936DE705FB0232FA
:102EB00001200F46A6E700230137059319460A258E
:102EC000384610F8012B303A092A03D9002BC8D014
:102ED0000591C6E705FB012101230746F0E703AB97
:102EE00000932246104B04A94046AFF30080B0F196
:102EF000FF3F8146D6D1A3895B063FF536AF0998DF
:102F00001DB0BDE8F08F03AB00932246064B04A929
:102F1000404600F081F8EAE7D8340008DE340008C3
:102F2000E2340008000000008D2C00082DE9F04775
:102F300091461F468A680B69DDF820809342B8BF2E
:102F40001346C9F8003091F8432006460C4612B1EA
:102F50000133C9F800302368990642BFD9F8003020
:102F60000233C9F80030256815F0060507D104F1D1
:102F7000190AE368D9F800209B1AAB4228DC94F8C0
:102F800043302268003318BF012392062DD404F188
:102F9000430239463046C047013020D02368E568F7
:102FA000D9F8002003F00603042B08BFAD1AA3686C
:102FB00022690CBF25EAE57500259342C4BF9B1A20
:102FC000ED184FF000091A344D451AD1002008E0E1
:102FD0000123524639463046C047013003D14FF0F5
:102FE000FF30BDE8F0870135C3E7E1185A1C3020F7
:102FF00081F84300224494F8451082F843100233CC
:10300000C5E70123224639463046C0470130E6D0A5
:1030100009F10109D8E700002DE9F04301F1430C63
:103020000C46097E85B06E291746064698460C9ACE
:1030300000F0B38022D8632936D00AD8002900F0E6
:10304000B980582900F0838004F1420584F84210C9
:1030500032E0642901D06929F6D120681368050699
:1030600003F104012AD51B681160002B03DA2D221D
:103070005B4284F843206F480A2239E0732900F04C
:103080009D8008D86F2920D07029DDD1236843F0B6
:103090002003236003E0752917D07829D4D1782341
:1030A00084F84530644855E01368191D1B681160A9
:1030B00004F1420584F8423001238CE01B68116062
:1030C00010F0400F18BF1BB2CFE713682568181D1A
:1030D0001060280601D51B6802E06806FBD51B8836
:1030E00054486F2914BF0A220822002184F8431093
:1030F0006568A560002DC0F29580216821F004016B
:103100002160002B3DD1002D40F08E806546082ABD
:103110000BD12368DB0708D5236962689A42DEBFBA
:10312000302305F8013C05F1FF35ACEB05032361C5
:10313000CDF800803B4603AA21463046FFF7F6FE55
:1031400001304DD14FF0FF3005B0BDE8F083394874
:1031500084F84510136821681D1D1B6815600A0658
:103160000BD5CA0744BF41F0200121601BB922687A
:1031700022F0200222601022B7E74D0648BF9BB222
:10318000EFE76546B3FBF2F102FB1133C35C05F8D0
:10319000013D0B460029F5D1B9E71368256861693F
:1031A000181D106028061B6801D5196002E06A0628
:1031B000FBD51980002323616546B9E71368191D03
:1031C00011601D68626800212846FDF7B1F908B159
:1031D000401B606063682361002384F84330A7E7E5
:1031E00023692A4639463046C0470130AAD02368B1
:1031F0009B0713D4E068039B9842B8BF1846A3E727
:1032000001234A4639463046C04701309AD001353D
:10321000E368039A9B1AAB42F2DCEBE7002504F16A
:103220001909F5E7002BACD1037884F8423004F19A
:1032300042056CE7E9340008FA34000810B5431E73
:103240000A44914200D110BD11F8014B03F8014F1F
:10325000F7E7884210B501EB020307D8421E9942F6
:103260000AD011F8014B02F8014FF8E78342F5D973
:103270008118D21AD34200D110BD13F8014D01F8C4
:10328000014DF7E738B50546002945D051F8043C13
:103290000C1F002BB8BFE41800F0D2F81F4A1368C7
:1032A000104633B9636014602846BDE8384000F02A
:1032B000C8B8A3420CD921686218934204BF1A68A7
:1032C0005B68636004BF521822600460ECE7134639
:1032D0005A680AB1A242FAD919685818A0420BD10B
:1032E00020680144581882421960DDD11068526884
:1032F0005A6001441960D7E702D90C232B60D3E749
:10330000206821188A4204BF11685268626004BFB5
:10331000091821605C60C7E738BD00BF8C00002041
:1033200070B5CD1C25F0030508350C2D38BF0C25D4
:10333000002D064601DBA94203D90C23336000208F
:1033400070BD00F07DF8214A1468214691B9204CE7
:1033500023681BB9304600F063F8206029463046E8
:1033600000F05EF8431C24D10C233360304600F09B
:1033700068F8E4E70B685B1B18D40B2B0FD90B60C4
:10338000CD50CC18304600F05CF804F10B00231D42
:1033900020F00700C31AD3D05A42E250D0E78C4243
:1033A0004B6816BF636013600C46EBE70C46496838
:1033B000CCE7C41C24F00304A04205D0211A3046F7
:1033C00000F02EF80130CFD02560DBE78C00002024
:1033D00090000020F8B5074614460E4621B9114664
:1033E000BDE8F840FFF79CBF22B9FFF74BFF254629
:1033F0002846F8BD00F026F8A0420FD221463846F4
:10340000FFF78EFF05460028F2D031462246FFF72F
:1034100015FF31463846FFF735FFE9E73546E7E760
:1034200038B5064C002305460846236000F012F824
:10343000431C02D1236803B12B6038BDB0010020CA
:103440007047704751F8043C181F002BBCBF0B5845
:10345000C0187047044A05491368002B08BF0B4683
:10346000184410601846704794000020B8010020EE
:10347000F8B500BFF8BC08BC9E467047F8B500BF61
:08348000F8BC08BC9E46704731
:10348800000000000000000001020304060708090C
:1034980000000000010203042E2E2F5372632F6DCB
:1034A80061696E2E63000000535441525421205527
:1034B800415254204F4B210D0A0000000D0A72653D
:1034C800676973746572203D2025640D0A00000049
:1034D800232D302B2000686C4C00656667454647F5
:1034E8000030313233343536373839414243444578
:1034F80046003031323334353637383961626364E7
:0435080065660000F4
:08350C0044CDFF7F0100000027
:0435140005020008A4
:04351800E1010008C5
:10351C0001000000100000000024F4001000002046
:10352C00000000000000000000000000000000008F
:10353C00000000000000000000000000000000007F
:10354C00000000000000000000000000000000006F
:10355C00000000000000000000000000000000005F
:10356C00000000000000000000000000000000004F
:10357C00000000000000000000000000000000003F
:0400000508002B893B
:00000001FF
