:020000040800F2
:1000000000000420D1160008591600085B160008ED
:100010005D1600085F160008611600080000000069
:10002000000000000000000000000000631600084F
:100030006516000800000000671600086916000831
:1000400021170008211700082117000821170008B0
:1000500021170008211700082117000821170008A0
:100060002117000821170008211700082117000890
:100070002117000821170008211700082117000880
:100080002117000821170008211700082117000870
:100090002117000821170008211700082117000860
:1000A0002117000871160008211700082117000801
:1000B0002117000821170008211700082117000840
:1000C0002117000821170008211700082117000830
:1000D0002117000821170008211700082117000820
:1000E0002117000821170008211700082117000810
:1000F0002117000821170008211700082117000800
:1001000021170008211700082117000821170008EF
:1001100021170008211700082117000821170008DF
:1001200021170008211700082117000821170008CF
:10013000211700080000000000000000000000007F
:10014000000000000000000000000000211700086F
:10015000211700082117000821170008211700089F
:10016000211700082117000821170008211700088F
:1001700021170008211700080000000000000000FF
:10018000211700082117000821170008211700086F
:10019000211700082117000800000000211700089F
:1001A000000000000000000000000000211700080F
:1001B00021170008211700080000000000000000BF
:1001C000000000000000000000000000000000002F
:1001D00000000000000000000000000021170008DF
:1001E00010B5054C237833B9044B13B10448AFF371
:1001F00000800123237010BD0C00002000000000CF
:100200006C17000808B5034B1BB103490348AFF353
:10021000008008BD00000000100000206C170008DE
:1002200053B94AB9002908BF00281CBF4FF0FF315D
:100230004FF0FF3000F072B9ADF1080C6DE904CE5B
:1002400000F006F8DDF804E0DDE9022304B07047B1
:100250002DE9F047089E04468846002B4BD18A4280
:10026000154667D9B2FA82F24AB1C2F1200701FA03
:1002700002F320FA07F7954047EA030894404FEA53
:10028000154E230CB8FBFEF71FFA85FC0EFB1788F2
:1002900043EA084307FB0CF1994209D9EB1807F12F
:1002A000FF3080F01B81994240F21881023F2B44BD
:1002B0005B1AA4B2B3FBFEF00EFB103344EA034416
:1002C00000FB0CFCA44509D92C1900F1FF3380F088
:1002D0000781A44540F2048102382C4440EA0740DB
:1002E000A4EB0C0400271EB1D4400023C6E9004350
:1002F0003946BDE8F0878B4209D9002E00F0EB802B
:100300000027C6E9000138463946BDE8F087B3FA50
:1003100083F7002F47D18B4202D3824200F2FA804A
:10032000841A61EB030301209846002EE0D0C6E951
:100330000048DDE702B9FFDEB2FA82F2002A40F09F
:100340008F80491B4FEA154E1FFA85F80127B1FB34
:10035000FEFC230C0EFB1C1143EA014308FB0CF1CD
:10036000994207D9EB180CF1FF3002D2994200F202
:10037000CD808446591AA3B2B1FBFEF00EFB1014D7
:1003800043EA044408FB00F8A04507D92C1900F102
:10039000FF3302D2A04500F2B6801846A4EB080451
:1003A00040EA0C409FE7C7F1200CBB4022FA0CFE4C
:1003B0004EEA030E01FA07F420FA0CF521FA0CF3C9
:1003C0004FEA1E482543B3FBF8F92C0C08FB193300
:1003D0001FFA8EFA44EA034309FB0AF49C4202FA2C
:1003E00007F200FA07F10BD91EEB030309F1FF3006
:1003F00080F087809C4240F28480A9F10209734416
:100400001B1BADB2B3FBF8F008FB103345EA034405
:1004100000FB0AFAA24508D91EEB040400F1FF33E1
:100420006BD2A24569D90238744440EA0940A0FB66
:100430000289A4EB0A044C45C2464B4654D351D022
:10044000002E69D0B1EB0A0564EB030404FA0CFC3E
:10045000FD40FC404CEA0505C6E90054002747E78B
:10046000C2F1200320FA03F7954001FA02F021FAC5
:1004700003F34FEA154E3843010CB3FBFEF71FFAA6
:1004800085F80EFB173341EA034107FB08F38B4263
:1004900004FA02F407D9691807F1FF3C2FD28B4206
:1004A0002DD9023F2944CB1A81B2B3FBFEF00EFBDB
:1004B000103341EA034100FB08F38B4207D9691866
:1004C00000F1FF3C17D28B4215D902382944C91AD2
:1004D00040EA07473BE73746304609E70746E7E685
:1004E0001846FBE64145ABD2B8EB020A69EB0E02B7
:1004F00001381346A4E76046E9E7184695E76746E2
:10050000D1E781467CE702382C4447E7ACF1020C86
:100510002B442FE7384608E73746E9E6704700BF27
:1005200008B5032000F01AF8002001F057F800F099
:10053000B9FF002008BD0000034A1168034B1B7877
:100540000B441360704700BF28000020000000200B
:10055000014B1868704700BF280000200649CB688F
:1005600023F4E0631B041B0C000200F4E06003436F
:10057000024A1A43CA60704700ED00E00000FA0525
:1005800030B4154BDB68C3F30223C3F10704042C1A
:1005900028BF04241D1D062D14D9033B4FF0FF3541
:1005A00005FA04F421EA0401994005FA03F322EA6A
:1005B00003031943002807DB0901C9B2074B19548B
:1005C00030BC70470023E9E700F00F000901C9B211
:1005D000034B1954F4E700BF00ED00E000E400E035
:1005E00014ED00E000F01F02400901239340024A8D
:1005F00042F82030704700BF00E100E00138B0F160
:10060000807F0AD2064B5860064AF02182F82310F8
:100610000020986007221A6070470120704700BFD1
:1006200010E000E000ED00E0042805D0054A136862
:1006300023F0040313607047024A136843F0040375
:100640001360704710E000E0704708B5FFF7FCFF4B
:1006500008BD000000230F2B00F2D680F0B482B05A
:1006600039E0072200E00022B2403A430234674EEC
:1006700046F82420664A1468EA4302EA04064F68F2
:1006800017F4803F01D045EA0406614C2660646897
:1006900002EA04064F6817F4003F01D045EA040659
:1006A0005B4C6660A46802EA04064F6817F4801F7A
:1006B00001D045EA0406564CA660E46822404E6824
:1006C00016F4001F01D045EA0402514CE2600133E8
:1006D0000F2B00F2968001229A400C6804EA020572
:1006E000AA42F4D14C68122C18BF022C10D1DE089B
:1006F000083650F826C003F00704A7000F24BC40BA
:100700002CEA040C0C69BC4044EA0C0440F8264076
:1007100004685F000326BE40F64306EA040C4C68FA
:1007200004F00304BC4044EA0C0404604C6804F187
:10073000FF3C112C18BFBCF1010F01D9122C11D1B3
:10074000846806EA040CCC68BC4044EA0C0484606B
:10075000446824EA020C4C68C4F300129A4042EA4E
:100760000C024260C26816408A68BA403243C260D6
:100770004A6812F0805FAAD0264A546C44F4804440
:100780005464526C02F480420192019A9C08A61CA7
:100790001E4A52F8267003F0030296000F22B24060
:1007A00027EA02071C4A90423FF45DAF02F58062DF
:1007B00090421AD002F58062904218D002F5806211
:1007C000904216D002F58062904214D002F5806209
:1007D000904212D002F58062904210D002F5806201
:1007E00090423FF43EAF08223EE701223CE702225E
:1007F0003AE7032238E7042236E7052234E70622E7
:1008000032E702B0F0BC7047704700BF00380140CB
:10081000003C0140003802400000024010B582B0A8
:100820001B4B1A6C42F080521A641B6C03F080530D
:100830000193019B174A136843F480331360FFF759
:1008400087FE0446134B5B6813F4803F08D1FFF723
:100850007FFE001BB0F57A7FF4D9032002B010BDF3
:100860000C4A136843F400331360FFF771FE04462B
:10087000084B5B6813F4003F07D1FFF769FE001BCC
:10088000B0F57A7FF4D90320E8E70020E6E700BF5F
:100890000038024000700040002800F0DB8170B595
:1008A00082B00446036813F0010F29D0A24B9B6865
:1008B00003F00C03042B1AD09F4B9B6803F00C032E
:1008C000082B0FD06368B3F5803F40D0002B54D184
:1008D000994B1A6822F480321A601A6822F4802236
:1008E0001A6039E0944B5B6813F4800FEAD0924BA6
:1008F0001B6813F4003F03D06368002B00F0AC8149
:10090000236813F0020F75D08B4B9B6813F00C0F0C
:100910005ED0894B9B6803F00C03082B53D0E3682F
:10092000002B00F08A80844A136843F001031360AF
:10093000FFF70EFE0546804B1B6813F0020F73D1C4
:10094000FFF706FE401B0228F5D9032087E17A4A0B
:10095000136843F48033136063682BB3FFF7F8FD2B
:100960000546754B1B6813F4003FC9D1FFF7F0FD36
:10097000401B6428F5D9032071E1B3F5A02F09D0FD
:100980006D4B1A6822F480321A601A6822F48022B1
:100990001A60E1E7684B1A6842F480221A601A680C
:1009A00042F480321A60D7E7FFF7D2FD0546624B6A
:1009B0001B6813F4003FA3D0FFF7CAFD401B642857
:1009C000F5D903204BE15C4B5B6813F4800FA6D193
:1009D000594B1B6813F0020F04D0E368012B01D0C0
:1009E00001203CE1544A136823F0F803216943EAEB
:1009F000C1031360236813F0080F46D0636983B303
:100A00004D4A536F43F001035367FFF7A1FD0546BD
:100A1000494B5B6F13F0020F37D1FFF799FD401B75
:100A20000228F5D903201AE1434A136823F0F8039A
:100A3000216943EAC1031360DCE73F4A136823F0EE
:100A400001031360FFF784FD05463B4B1B6813F061
:100A5000020FCFD0FFF77CFD401B0228F5D9032001
:100A6000FDE0354A536F23F001035367FFF770FD34
:100A70000546314B5B6F13F0020F06D0FFF768FDA0
:100A8000401B0228F5D90320E9E0236813F0040F86
:100A90007ED0294B1B6C13F0805F1ED1264B1A6C45
:100AA00042F080521A641B6C03F080530193019B47
:100AB0000125224B1B6813F4807F10D0A368012B03
:100AC00021D0002B3CD11C4B1A6F22F001021A6777
:100AD0001A6F22F004021A671AE00025E9E7174AA4
:100AE000136843F480731360FFF732FD0646134B1F
:100AF0001B6813F4807FE1D1FFF72AFD801B642877
:100B0000F5D90320ABE00C4A136F43F001031367E0
:100B1000A3685BB3FFF71CFD0646074B1B6F13F082
:100B2000020F34D1FFF714FD801B41F28833984245
:100B3000F3D9032093E000BF00380240007000406A
:100B4000052B09D0484B1A6F22F001021A671A6F61
:100B500022F004021A67DBE7434B1A6F42F00402EB
:100B60001A671A6F42F001021A67D1E7FFF7F0FC2B
:100B700006463D4B1B6F13F0020F08D0FFF7E8FC51
:100B8000801B41F288339842F3D9032067E0F5B91E
:100B9000A369002B62D0344A926802F00C02082A42
:100BA0005FD0022B19D0304A136823F08073136092
:100BB000FFF7CEFC04462C4B1B6813F0007F47D098
:100BC000FFF7C6FC001B0228F5D9032047E0264AA0
:100BD000136C23F080531364DAE7234A136823F07D
:100BE00080731360FFF7B4FC05461F4B1B6813F0BE
:100BF000007F06D0FFF7ACFC401B0228F5D903208C
:100C00002DE0E369226A1343626A43EA8213A26A0F
:100C10005208013A43EA0243E26A43EA026343F0BC
:100C20000053114A5360136843F080731360FFF759
:100C30008FFC04460C4B1B6813F0007F06D1FFF7B6
:100C400087FC001B0228F5D9032008E0002006E0FD
:100C5000002004E001207047012000E0002002B0E5
:100C600070BD0120FBE700BF00380240264B9B68A7
:100C700003F00C03042B44D0082B01D02348704709
:100C80002DE9F04B204B5A6802F03F025B6813F4E9
:100C9000800F13D01C4B5968C1F3881100231C48E6
:100CA000A1FB0001FFF7BCFA174B5B68C3F30143DC
:100CB00001335B00B0FBF3F0BDE8F08B124B5B68D7
:100CC000C3F388131E4600275C010025E41A65EB78
:100CD0000705A90141EA9461A001001B61EB050130
:100CE000CB0043EA5073C400A01943EB07018B0209
:100CF00043EA90538402204619460023FFF790FAF6
:100D0000D2E70348704700BF003802400024F400D7
:100D100040787D01002800F0A28070B50446524B57
:100D20001B6803F00F038B420CD24F4A136823F069
:100D30000F030B431360136803F00F038B4201D0C2
:100D4000012070BD236813F0020F17D013F0040FB9
:100D500004D0464A936843F4E0539360236813F049
:100D6000080F04D0414A936843F4604393603F4ABC
:100D7000936823F0F003A068034393600D46236853
:100D800013F0010F31D06368012B20D0022B25D046
:100D9000364A126812F0020F63D034498A6822F092
:100DA000030213438B60FFF7D3FB06462F4B9B6870
:100DB00003F00C036268B3EB820F16D0FFF7C8FB99
:100DC000801B41F288339842F0D90320B9E7274AC3
:100DD000126812F4003FE0D10120B2E7234A126802
:100DE00012F0007FD9D10120ABE71F4B1B6803F045
:100DF0000F03AB420CD91C4A136823F00F032B439B
:100E00001360136803F00F03AB4201D0012098E791
:100E1000236813F0040F06D0144A936823F4E053B8
:100E2000E1680B439360236813F0080F07D00F4A63
:100E3000936823F46043216943EAC1039360FFF799
:100E400015FF0A4B9B68C3F30313094AD35CD840D0
:100E5000084B1860002000F0C1FB002071E7012062
:100E6000704701206DE700BF003C0240003802409F
:100E70008417000808000020014B1868704700BF65
:100E80000800002008B5FFF7F7FF044B9B68C3F389
:100E90004233034AD35CD84008BD00BF003802404B
:100EA000941700080F2303600B4B9A6802F00302AB
:100EB00042609A6802F0F00282609A6802F4E0529E
:100EC000C2609B68DB0803F4E0530361034B1B68BB
:100ED00003F00F030B60704700380240003C0240F3
:100EE000002858D010B504460023836290F85D3086
:100EF000002B45D0022384F85D302268136823F06C
:100F000040031360E368B3F5E06F3ED90022B3F508
:100F1000706F18BFB3F5E06F01D00021A162216BA3
:100F200021B9B3F5E06F33D9022323636368A16865
:100F30000B4321690B4361690B43A16901F4007103
:100F40000B43E1690B43216A0B43A06A2168034309
:100F50000B60638B03F00403616A0B43616B0B430B
:100F6000E1680B43216813434B602268D36923F483
:100F70000063D36100202066012384F85D3010BD3A
:100F800080F85C3000F0D6FAB4E74FF48052BEE748
:100F900001232363CAE70120704770470268D368C2
:100FA00043F00103D3600268136843F00103136048
:100FB00000207047704770477047704710B504466F
:100FC00003681A6912F0020F11D0DA6812F0020FEA
:100FD0000DD06FF002021A610123037703689B6949
:100FE00013F0030F79D0FFF7E6FF00232377236880
:100FF0001A6912F0040F12D0DA6812F0040F0ED042
:101000006FF004021A610223237723689B6913F4AB
:10101000407F68D02046FFF7CEFF00232377236868
:101020001A6912F0080F12D0DA6812F0080F0ED009
:101030006FF008021A61042323772368DB6913F039
:10104000030F57D02046FFF7B6FF0023237723680E
:101050001A6912F0100F12D0DA6812F0100F0ED0C9
:101060006FF010021A61082323772368DB6913F4F9
:10107000407F46D02046FFF79EFF0023237723685A
:101080001A6912F0010F03D0DA6812F0010F3FD194
:1010900023681A6912F0800F03D0DA6812F0800F0B
:1010A0003DD123681A6912F4807F03D0DA6812F008
:1010B000800F3BD123681A6912F0400F03D0DA6821
:1010C00012F0400F39D123681A6912F0200F03D0B3
:1010D000DA6812F0200F37D110BDFFF76BFF204602
:1010E000FFF76AFF81E72046FFF764FF2046FFF71E
:1010F00063FF92E72046FFF75DFF2046FFF75CFFA6
:10110000A3E72046FFF756FF2046FFF755FFB4E759
:101110006FF001021A61204600F0F4F8B8E76FF0B2
:1011200080021A61204600F0B7F8BAE76FF080023B
:101130001A61204600F0B0F8BCE76FF040021A6177
:101140002046FFF73AFFBEE76FF020021A61204603
:1011500000F0A1F8C0E7000070B403683A4CA04268
:1011600014BF00240124B0F1804F14BF224644F084
:101170000102AAB9354DA84214BF00250125344EFD
:10118000B0420DD065B905F1804505F58235A8421C
:1011900014BF0025012506F50066B04200D01DB140
:1011A00023F070034D682B43002A33D1274A904225
:1011B00014BF00220122264DA8422BD052BB02F1BF
:1011C000804202F58232904214BF0022012205F5CE
:1011D0000065A8421ED0EAB91E4A904214BF002200
:1011E000012205F59A35A84214D09AB91A4A9042BC
:1011F00014BF0022012205F50065A8420AD04AB9B1
:10120000164A904214BF00220122A5F59635A84245
:1012100000D01AB123F44073CA68134323F080034B
:101220004A69134303608A68C2620A6882620C4B8F
:10123000984214BF234644F001030BB10B690363CA
:101240000123436170BC704700000140000800406A
:10125000000400400044014000180040002000400D
:1012600000040140A8B110B5044690F83D305BB1D0
:10127000022384F83D30211D2068FFF76DFF012314
:1012800084F83D30002010BD80F83C30FFF785FE2B
:10129000EEE70120704770477047000086B0184B9A
:1012A0001A6B42F002021A631A6B02F002020192F8
:1012B000019A1A6B42F001021A631A6B02F00102E2
:1012C0000292029A1A6B42F480721A631A6B02F449
:1012D00080720392039A1A6B42F008021A631A6B27
:1012E00002F008020492049A1A6B42F080021A6318
:1012F0001B6B03F080030593059B06B0704700BF8E
:101300000038024008B50268034B9A4200D008BD7D
:10131000FFF712F9FBE700BF00000140FEE7000005
:1013200008B51048104B03604FF4827343600023EC
:1013300083604FF44072C260036143614FF40072F6
:101340008261C3610362436283620722C2620363F4
:1013500008234363FFF7C4FD00B908BDCF2103484C
:10136000FFF7DCFF90000020003001409C170008D0
:1013700008B51048104B03604FF48273436000239C
:1013800083604FF44072C260036143614FF40072A6
:101390008261C3610362436283620722C2620363A4
:1013A00008234363FFF79CFD00B908BDE92103480A
:1013B000FFF7B4FF2C000020003800409C17000805
:1013C00000B595B02D4B1A6C42F080521A641B6C1C
:1013D00003F080530193019B294B1A6842F4404269
:1013E0001A601B6803F440430293029B0223089394
:1013F00001220B9210220C920E9300220F920822CF
:101400001092D822119212930923139308A8FFF780
:1014100043FA38BBFFF702FA40BB0F2303930223C2
:101420000493002305934FF4A05306934FF4805385
:101430000793072103A8FFF76DFCD8B9FFF71CFD40
:10144000104BA3FB00308009FFF7D8F80420FFF70A
:10145000EBF8002211464FF0FF30FFF791F815B07E
:101460005DF804FB96210848FFF758FF9D210648C8
:10147000FFF754FFAB210448FFF750FF003802404C
:1014800000700040D34D62109C17000808B5FFF7AC
:1014900047F8FFF795FFFFF701FFFFF741FFFFF761
:1014A00067FFFEE700B583B0214B1A6C42F0805213
:1014B0001A641A6C02F080520092009A5A6C42F43C
:1014C00080425A645B6C03F480430193019B0320C8
:1014D000FFF744F8002211466FF00B00FFF750F8B9
:1014E000002211466FF00A00FFF74AF80022114669
:1014F0006FF00900FFF744F8002211466FF0040076
:10150000FFF73EF8002211466FF00300FFF738F8AE
:10151000002211466FF00100FFF732F80022114659
:101520004FF0FF30FFF72CF803B05DF804FB00BF6D
:1015300000380240F0B589B00368224A934204D0D3
:10154000214A93421AD009B0F0BD204B5A6C42F4A4
:1015500080525A645B6C03F480530193019B3823DF
:101560000393022304930023059303230693052387
:10157000079303A91648FFF76DF8E4E7134B1A6CBD
:1015800042F480421A641B6C03F480430293029B72
:101590000C2303930227049700260596032506953E
:1015A000052407940DEB03010A48FFF753F80823BD
:1015B0000393049705960695079403A90648FFF739
:1015C00049F8C0E7003001400038004000380240D0
:1015D0000004024000200240000C024000B589B027
:1015E000002201461920FEF7CBFF1920FEF7FAFF73
:1015F000154B5A6C42F001025A645B6C03F0010314
:101600000193019B02A903A8FFF74CFCFFF73AFCEA
:1016100043000E48A0FB03239B0C013B0C480D4AE2
:10162000026040F2E732C2604360002303618360DE
:10163000FFF718FE18B1012009B05DF804FB04485B
:10164000FFF7ACFCF8E700BF0038024083DE1B4325
:10165000F4000020000001407047FEE7FEE7FEE7CF
:10166000FEE770477047704708B5FEF7EEFF08BD0C
:1016700008B50248FFF7A2FC08BD00BFF400002037
:1016800010B40F4AD2F8883043F47003C2F888309F
:101690000C4B196841F001011960002098601C682A
:1016A00009492140196009495960196821F48021CC
:1016B0001960D8604FF0006393605DF8044B704789
:1016C00000ED00E000380240FFFFF6FE103000247D
:1016D000DFF834D0002103E00C4B5B584350043159
:1016E0000B480C4B42189A42F6D30B4A02E00023F7
:1016F00042F8043B094B9A42F9D3FFF7C1FF00F0CF
:1017000011F8FFF7C3FE704700000420BC17000863
:10171000000000200C0000200C00002034010020FC
:10172000FEE7000070B50D4E0D4CA41BA410002563
:10173000A54209D10B4E0C4C00F018F8A41BA410C4
:101740000025A54205D170BD56F8253098470135D2
:10175000EEE756F8253098470135F2E7B417000850
:10176000B4170008B4170008B8170008F8B500BF90
:10177000F8BC08BC9E467047F8B500BFF8BC08BC72
:041780009E467047CA
:10178400000000000000000001020304060708092D
:1017940000000000010203042E2E2F5372632F6DEC
:0817A40061696E2E6300000074
:0817AC00A4EAFF7F0100000028
:0417B4000502000822
:0417B800E101000843
:0C17BC0001000000100000000024F400F8
:04000005080016D108
:00000001FF
