:020000040800F2
:1000000000000420811500081515000817150008C8
:10001000191500081B1500081D1500080000000038
:100020000000000000000000000000001F15000894
:100030002115000800000000231500082515000800
:10004000D1150008D1150008D1150008D1150008F8
:10005000D1150008D1150008D1150008D1150008E8
:10006000D1150008D1150008D1150008D1150008D8
:10007000D1150008D1150008D1150008D1150008C8
:10008000D1150008D1150008D1150008D1150008B8
:10009000D1150008D1150008D1150008D1150008A8
:1000A000D1150008D1150008D1150008D115000898
:1000B000D1150008D1150008D1150008D115000888
:1000C000D1150008D1150008D1150008D115000878
:1000D000D1150008D1150008D1150008D115000868
:1000E000D1150008D1150008D1150008D115000858
:1000F000D1150008D1150008D1150008D115000848
:10010000D1150008D1150008D1150008D115000837
:10011000D1150008D1150008D1150008D115000827
:10012000D1150008D1150008D1150008D115000817
:10013000D1150008000000000000000000000000D1
:10014000000000000000000000000000D1150008C1
:10015000D1150008D1150008D1150008D1150008E7
:10016000D1150008D1150008D1150008D1150008D7
:10017000D1150008D11500080000000000000000A3
:10018000D1150008D1150008D1150008D1150008B7
:10019000D1150008D115000800000000D115000895
:1001A000000000000000000000000000D115000861
:1001B000D1150008D1150008000000000000000063
:1001C000000000000000000000000000000000002F
:1001D000000000000000000000000000D115000831
:1001E00010B5054C237833B9044B13B10448AFF371
:1001F00000800123237010BD0C00002000000000CF
:100200001C16000808B5034B1BB103490348AFF3A4
:10021000008008BD00000000100000201C1600082F
:1002200053B94AB9002908BF00281CBF4FF0FF315D
:100230004FF0FF3000F072B9ADF1080C6DE904CE5B
:1002400000F006F8DDF804E0DDE9022304B07047B1
:100250002DE9F047089E04468846002B4BD18A4280
:10026000154667D9B2FA82F24AB1C2F1200701FA03
:1002700002F320FA07F7954047EA030894404FEA53
:10028000154E230CB8FBFEF71FFA85FC0EFB1788F2
:1002900043EA084307FB0CF1994209D9EB1807F12F
:1002A000FF3080F01B81994240F21881023F2B44BD
:1002B0005B1AA4B2B3FBFEF00EFB103344EA034416
:1002C00000FB0CFCA44509D92C1900F1FF3380F088
:1002D0000781A44540F2048102382C4440EA0740DB
:1002E000A4EB0C0400271EB1D4400023C6E9004350
:1002F0003946BDE8F0878B4209D9002E00F0EB802B
:100300000027C6E9000138463946BDE8F087B3FA50
:1003100083F7002F47D18B4202D3824200F2FA804A
:10032000841A61EB030301209846002EE0D0C6E951
:100330000048DDE702B9FFDEB2FA82F2002A40F09F
:100340008F80491B4FEA154E1FFA85F80127B1FB34
:10035000FEFC230C0EFB1C1143EA014308FB0CF1CD
:10036000994207D9EB180CF1FF3002D2994200F202
:10037000CD808446591AA3B2B1FBFEF00EFB1014D7
:1003800043EA044408FB00F8A04507D92C1900F102
:10039000FF3302D2A04500F2B6801846A4EB080451
:1003A00040EA0C409FE7C7F1200CBB4022FA0CFE4C
:1003B0004EEA030E01FA07F420FA0CF521FA0CF3C9
:1003C0004FEA1E482543B3FBF8F92C0C08FB193300
:1003D0001FFA8EFA44EA034309FB0AF49C4202FA2C
:1003E00007F200FA07F10BD91EEB030309F1FF3006
:1003F00080F087809C4240F28480A9F10209734416
:100400001B1BADB2B3FBF8F008FB103345EA034405
:1004100000FB0AFAA24508D91EEB040400F1FF33E1
:100420006BD2A24569D90238744440EA0940A0FB66
:100430000289A4EB0A044C45C2464B4654D351D022
:10044000002E69D0B1EB0A0564EB030404FA0CFC3E
:10045000FD40FC404CEA0505C6E90054002747E78B
:10046000C2F1200320FA03F7954001FA02F021FAC5
:1004700003F34FEA154E3843010CB3FBFEF71FFAA6
:1004800085F80EFB173341EA034107FB08F38B4263
:1004900004FA02F407D9691807F1FF3C2FD28B4206
:1004A0002DD9023F2944CB1A81B2B3FBFEF00EFBDB
:1004B000103341EA034100FB08F38B4207D9691866
:1004C00000F1FF3C17D28B4215D902382944C91AD2
:1004D00040EA07473BE73746304609E70746E7E685
:1004E0001846FBE64145ABD2B8EB020A69EB0E02B7
:1004F00001381346A4E76046E9E7184695E76746E2
:10050000D1E781467CE702382C4447E7ACF1020C86
:100510002B442FE7384608E73746E9E6704700BF27
:1005200010B504460E4B18784FF47A73B3FBF0F312
:100530000C4A1068B0FBF3F000F078F868B90F2CA3
:1005400001D901200AE0002221464FF0FF3000F0DF
:100550003BF8034B5C60002000E0012010BD00BFB1
:10056000000000200800002008B5032000F01AF861
:100570000020FFF7D5FF00F05DFF002008BD000060
:10058000034A1168034B1B780B441360704700BF8C
:100590002800002000000020014B1868704700BFB1
:1005A000280000200649CB6823F4E0631B041B0CE1
:1005B000000200F4E0600343024A1A43CA60704735
:1005C00000ED00E00000FA0530B4154BDB68C3F322
:1005D0000223C3F10704042C28BF04241D1D062D8B
:1005E00014D9033B4FF0FF3505FA04F421EA040166
:1005F000994005FA03F322EA03031943002807DBB5
:100600000901C9B2074B195430BC70470023E9E710
:1006100000F00F000901C9B2034B1954F4E700BF01
:1006200000ED00E000E400E014ED00E00138B0F17E
:10063000807F0AD2064B5860064AF02182F82310C8
:100640000020986007221A6070470120704700BFA1
:1006500010E000E000ED00E0042805D0054A136832
:1006600023F0040313607047024A136843F0040345
:100670001360704710E000E0704708B5FFF7FCFF1B
:1006800008BD000000230F2B00F2D680F0B482B02A
:1006900039E0072200E00022B2403A430234674EBC
:1006A00046F82420664A1468EA4302EA04064F68C2
:1006B00017F4803F01D045EA0406614C2660646867
:1006C00002EA04064F6817F4003F01D045EA040629
:1006D0005B4C6660A46802EA04064F6817F4801F4A
:1006E00001D045EA0406564CA660E46822404E68F4
:1006F00016F4001F01D045EA0402514CE2600133B8
:100700000F2B00F2968001229A400C6804EA020541
:10071000AA42F4D14C68122C18BF022C10D1DE086A
:10072000083650F826C003F00704A7000F24BC4089
:100730002CEA040C0C69BC4044EA0C0440F8264046
:1007400004685F000326BE40F64306EA040C4C68CA
:1007500004F00304BC4044EA0C0404604C6804F157
:10076000FF3C112C18BFBCF1010F01D9122C11D183
:10077000846806EA040CCC68BC4044EA0C0484603B
:10078000446824EA020C4C68C4F300129A4042EA1E
:100790000C024260C26816408A68BA403243C260A6
:1007A0004A6812F0805FAAD0264A546C44F4804410
:1007B0005464526C02F480420192019A9C08A61C77
:1007C0001E4A52F8267003F0030296000F22B24030
:1007D00027EA02071C4A90423FF45DAF02F58062AF
:1007E00090421AD002F58062904218D002F58062E1
:1007F000904216D002F58062904214D002F58062D9
:10080000904212D002F58062904210D002F58062D0
:1008100090423FF43EAF08223EE701223CE702222D
:100820003AE7032238E7042236E7052234E70622B6
:1008300032E702B0F0BC7047704700BF003801409B
:10084000003C0140003802400000024012B9090497
:10085000816170478161704710B582B01B4B1A6C83
:1008600042F080521A641B6C03F080530193019B89
:10087000174A136843F480331360FFF78DFE044674
:10088000134B5B6813F4803F08D1FFF785FE001B14
:10089000B0F57A7FF4D9032002B010BD0C4A13687A
:1008A00043F400331360FFF777FE0446084B5B68A0
:1008B00013F4003F07D1FFF76FFE001BB0F57A7FFE
:1008C000F4D90320E8E70020E6E700BF0038024043
:1008D00000700040002800F0DB8170B582B0044653
:1008E000036813F0010F29D0A24B9B6803F00C039F
:1008F000042B1AD09F4B9B6803F00C03082B0FD0DE
:100900006368B3F5803F40D0002B54D1994B1A68EF
:1009100022F480321A601A6822F480221A6039E0C8
:10092000944B5B6813F4800FEAD0924B1B6813F46E
:10093000003F03D06368002B00F0AC81236813F004
:10094000020F75D08B4B9B6813F00C0F5ED0894B58
:100950009B6803F00C03082B53D0E368002B00F0D6
:100960008A80844A136843F001031360FFF714FE82
:100970000546804B1B6813F0020F73D1FFF70CFE86
:10098000401B0228F5D9032087E17A4A136843F413
:100990008033136063682BB3FFF7FEFD0546754B8C
:1009A0001B6813F4003FC9D1FFF7F6FD401B642814
:1009B000F5D9032071E1B3F5A02F09D06D4B1A686A
:1009C00022F480321A601A6822F480221A60E1E769
:1009D000684B1A6842F480221A601A6842F4803226
:1009E0001A60D7E7FFF7D8FD0546624B1B6813F482
:1009F000003FA3D0FFF7D0FD401B6428F5D90320AA
:100A00004BE15C4B5B6813F4800FA6D1594B1B681C
:100A100013F0020F04D0E368012B01D001203CE168
:100A2000544A136823F0F803216943EAC1031360B1
:100A3000236813F0080F46D0636983B34D4A536FA0
:100A400043F001035367FFF7A7FD0546494B5B6F72
:100A500013F0020F37D1FFF79FFD401B0228F5D995
:100A600003201AE1434A136823F0F803216943EA9B
:100A7000C1031360DCE73F4A136823F001031360EE
:100A8000FFF78AFD05463B4B1B6813F0020FCFD0E2
:100A9000FFF782FD401B0228F5D90320FDE0354A0F
:100AA000536F23F001035367FFF776FD0546314B83
:100AB0005B6F13F0020F06D0FFF76EFD401B02289C
:100AC000F5D90320E9E0236813F0040F7ED0294B09
:100AD0001B6C13F0805F1ED1264B1A6C42F08052C3
:100AE0001A641B6C03F080530193019B0125224B78
:100AF0001B6813F4807F10D0A368012B21D0002B3A
:100B00003CD11C4B1A6F22F001021A671A6F22F0B7
:100B100004021A671AE00025E9E7174A136843F44C
:100B200080731360FFF738FD0646134B1B6813F400
:100B3000807FE1D1FFF730FD801B6428F5D90320C9
:100B4000ABE00C4A136F43F001031367A3685BB378
:100B5000FFF722FD0646074B1B6F13F0020F34D13F
:100B6000FFF71AFD801B41F288339842F3D9032026
:100B700093E000BF0038024000700040052B09D010
:100B8000484B1A6F22F001021A671A6F22F0040212
:100B90001A67DBE7434B1A6F42F004021A671A6FB9
:100BA00042F001021A67D1E7FFF7F6FC06463D4B1B
:100BB0001B6F13F0020F08D0FFF7EEFC801B41F211
:100BC00088339842F3D9032067E0F5B9A369002B75
:100BD00062D0344A926802F00C02082A5FD0022BDD
:100BE00019D0304A136823F080731360FFF7D4FCE8
:100BF00004462C4B1B6813F0007F47D0FFF7CCFC5A
:100C0000001B0228F5D9032047E0264A136C23F085
:100C100080531364DAE7234A136823F08073136068
:100C2000FFF7BAFC05461F4B1B6813F0007F06D088
:100C3000FFF7B2FC401B0228F5D903202DE0E36941
:100C4000226A1343626A43EA8213A26A5208013A93
:100C500043EA0243E26A43EA026343F00053114A63
:100C60005360136843F080731360FFF795FC0446EC
:100C70000C4B1B6813F0007F06D1FFF78DFC001BA7
:100C80000228F5D9032008E0002006E0002004E057
:100C900001207047012000E0002002B070BD01205B
:100CA000FBE700BF00380240264B9B6803F00C03B3
:100CB000042B44D0082B01D0234870472DE9F04B7A
:100CC000204B5A6802F03F025B6813F4800F13D088
:100CD0001C4B5968C1F3881100231C48A1FB00017B
:100CE000FFF79EFA174B5B68C3F3014301335B00C8
:100CF000B0FBF3F0BDE8F08B124B5B68C3F38813D5
:100D00001E4600275C010025E41A65EB0705A901D2
:100D100041EA9461A001001B61EB0501CB0043EAAD
:100D20005073C400A01943EB07018B0243EA9053B0
:100D30008402204619460023FFF772FAD2E70348DF
:100D4000704700BF003802400024F40040787D0165
:100D5000002800F0A28070B50446524B1B6803F0D7
:100D60000F038B420CD24F4A136823F00F030B433F
:100D70001360136803F00F038B4201D0012070BD94
:100D8000236813F0020F17D013F0040F04D0464A63
:100D9000936843F4E0539360236813F0080F04D082
:100DA000414A936843F4604393603F4A936823F059
:100DB000F003A068034393600D46236813F0010F0E
:100DC00031D06368012B20D0022B25D0364A12681F
:100DD00012F0020F63D034498A6822F003021343F1
:100DE0008B60FFF7D9FB06462F4B9B6803F00C0383
:100DF0006268B3EB820F16D0FFF7CEFB801B41F287
:100E000088339842F0D90320B9E7274A126812F4D0
:100E1000003FE0D10120B2E7234A126812F0007FC0
:100E2000D9D10120ABE71F4B1B6803F00F03AB4286
:100E30000CD91C4A136823F00F032B43136013686B
:100E400003F00F03AB4201D0012098E7236813F0B1
:100E5000040F06D0144A936823F4E053E1680B436F
:100E60009360236813F0080F07D00F4A936823F4A8
:100E70006043216943EAC1039360FFF715FF0A4B02
:100E80009B68C3F30313094AD35CD840084B18602E
:100E90000020FFF745FB002071E70120704701208B
:100EA0006DE700BF003C02400038024034160008E5
:100EB00008000020014B1868704700BF08000020A0
:100EC000F8B505460F4616461C462B689B683B4006
:100ED000B34238D0B4F1FF3FF7D02CB1FFF75CFB41
:100EE000069BC01AA042F0D32A68536823F0E0039F
:100EF00053606B68B3F5827F0BD0AB6AB3F5005FCC
:100F000014D0012385F85D30002385F85C30032080
:100F10001AE0AB68B3F5806F18BFB3F5004FECD1A2
:100F20002A68136823F040031360E6E72A68136811
:100F300023F400531B041B0C13602A68136843F44A
:100F400000531360DDE70020F8BDF0B583B007461D
:100F50000D4614461E4602E0B6F1FF3F10D13A6836
:100F600093682B40A34241D0B5F5C06F08BF002C59
:100F7000F2D1137BDBB28DF807309DF80730EBE739
:100F80002EB1FFF709FB089BC01AB042E7D33A68BD
:100F9000536823F0E00353607B68B3F5827F0BD086
:100FA000BB6AB3F5005F14D0012387F85D300023DE
:100FB00087F85C3003201AE0BB68B3F5806F18BF78
:100FC000B3F5004FECD13A68136823F04003136087
:100FD000E6E73A68136823F400531B041B0C136004
:100FE0003A68136843F400531360DDE7002003B050
:100FF000F0BD70B582B004460D46164600920B4611
:1010000000224FF4C051FFF7A0FFB8B900962B465D
:10101000002280212046FFF753FFB8B900962B46E7
:1010200000224FF4C0612046FFF78FFF034650B106
:10103000236E43F020032366032304E0236E43F072
:10104000200323660323184602B070BD236E43F0CD
:10105000200323660323F6E7002858D010B5044682
:101060000023836290F85D30002B45D0022384F882
:101070005D302268136823F040031360E368B3F522
:10108000E06F3ED90022B3F5706F18BFB3F5E06F83
:1010900001D00021A162216B21B9B3F5E06F33D9F2
:1010A000022323636368A1680B4321690B436169D1
:1010B0000B43A16901F400710B43E1690B43216A01
:1010C0000B43A06A216803430B60638B03F00403A6
:1010D000616A0B43616B0B43E1680B432168134367
:1010E0004B602268D36923F40063D361002020663B
:1010F000012384F85D3010BD80F85C3000F0E2F927
:10110000B4E74FF48052BEE701232363CAE701200E
:1011100070472DE9F04182B01E4690F85C30012BFB
:1011200000F0AC8004460D469046012380F85C3008
:10113000FFF732FA074694F85D30DBB2012B09D095
:101140000220012384F85D30002384F85C3002B073
:10115000BDE8F081B8FA88F35B09002D08BF0123D0
:10116000002B40F08380032384F85D300023236646
:10117000A563A4F83C80A4F83E802364A4F844301E
:10118000A4F846302365E364A368B3F5004F0DD09F
:1011900023681A6812F0400F03D11A6842F0400227
:1011A0001A60E368B3F5E06F0BD82FE0226813688C
:1011B00043F480431360EBE7002E59D0B6F1FF3FB4
:1011C00010D1E38F9BB2002B3BD023689A6812F0BA
:1011D000020FF1D035F8022BDA60E38F013B9BB2AE
:1011E000E387EEE7FFF7D8F9C01BB042E9D303204D
:1011F000A7E72A781A73E38F013B9BB2E387013597
:1012000004E0002E36D0B6F1FF3F13D1E38F9BB23E
:10121000BBB123689A6812F0020FF2D0E28F92B24B
:10122000012AE6D935F8022BDA60E38F023B9BB244
:10123000E387EBE7FFF7B0F9C01BB042E6D303202A
:101240007FE73A4631462046FFF7D3FE08B1202318
:101250002366A36833B901932368DA6801929B6817
:101260000193019B236E3BB900206AE7012068E7E8
:10127000032066E7032064E7012062E7022066E7B7
:1012800084B00F4B1A6B42F001021A631A6B02F022
:1012900001020192019A1A6B42F480721A631A6B6E
:1012A00002F480720292029A1A6B42F080021A6370
:1012B0001B6B03F080030393039B04B0704700BFD4
:1012C00000380240FEE7000008B51148114B0360EA
:1012D0004FF482734360002383604FF44072C26016
:1012E000036143614FF4007282612022C261036294
:1012F000436283620722C262036308234363FFF7EA
:10130000ABFE00B908BDDF210348FFF7DBFF00BFDC
:101310002C000020003800404C16000800B595B0A5
:101320002D4B1A6C42F080521A641B6C03F08053F0
:101330000193019B294B1A6842F440421A601B68D2
:1013400003F440430293029B0223089301220B9271
:1013500010220C920E9300220F9208221092D82293
:10136000119212930923139308A8FFF7B3FA38BB1D
:10137000FFF772FA40BB0F23039302230493002369
:1013800005934FF4A05306934FF48053079307211E
:1013900003A8FFF7DDFCD8B9FFF78CFD104BA3FBCA
:1013A00000308009FFF742F90420FFF755F90022C9
:1013B00011464FF0FF30FFF707F915B05DF804FB59
:1013C000A6210848FFF77EFFAD210648FFF77AFF08
:1013D000BB210448FFF776FF003802400070004050
:1013E000D34D62104C16000800B583B0FFF7BCF86F
:1013F000FFF794FFFFF744FFFFF766FF0B4C002257
:1014000008212046FFF722FA55238DF804300023E7
:101410008DF805303223022201A90548FFF779FE35
:10142000012208212046FFF711FAE7E700200240D9
:101430002C00002000B583B0214B1A6C42F0805282
:101440001A641A6C02F080520092009A5A6C42F4AC
:1014500080425A645B6C03F480430193019B032038
:10146000FFF7A0F8002211466FF00B00FFF7ACF871
:10147000002211466FF00A00FFF7A6F8002211467D
:101480006FF00900FFF7A0F8002211466FF004008A
:10149000FFF79AF8002211466FF00300FFF794F867
:1014A000002211466FF00100FFF78EF8002211466E
:1014B0004FF0FF30FFF788F803B05DF804FB00BF82
:1014C000003802400268114B9A4200D0704700B5C4
:1014D00087B003F500331A6C42F480421A641B6C27
:1014E00003F480430093009B0E2301930223029395
:1014F00000230393032304930523059301A90448C0
:10150000FFF7C0F807B05DF804FB00BF00380040EB
:10151000002002407047FEE7FEE7FEE7FEE7704767
:101520007047704708B5FFF72BF8FFF7A6F808BD1E
:1015300010B40F4AD2F8883043F47003C2F88830F0
:101540000C4B196841F001011960002098601C687B
:1015500009492140196009495960196821F480211D
:101560001960D8604FF0006393605DF8044B7047DA
:1015700000ED00E000380240FFFFF6FE10300024CE
:10158000DFF834D0002103E00C4B5B5843500431AA
:101590000B480C4B42189A42F6D30B4A02E0002348
:1015A00042F8043B094B9A42F9D3FFF7C1FF00F020
:1015B00011F8FFF719FF7047000004206C160008AF
:1015C000000000200C0000200C00002090000020F3
:1015D000FEE7000070B50D4E0D4CA41BA4100025B5
:1015E000A54209D10B4E0C4C00F018F8A41BA41016
:1015F0000025A54205D170BD56F825309847013524
:10160000EEE756F8253098470135F2E764160008F2
:10161000641600086416000868160008F8B500BFD4
:10162000F8BC08BC9E467047F8B500BFF8BC08BCC3
:041630009E4670471B
:10163400000000000000000001020304060708097E
:1016440000000000010203042E2E2F5372632F6D3D
:0816540061696E2E63000000C5
:08165C00F4EBFF7F0100000028
:041664000502000873
:04166800E101000894
:0C166C0001000000100000000024F40049
:040000050800158159
:00000001FF
