:020000040800F2
:10000000000004206D220008F5210008F7210008F7
:10001000F9210008FB210008FD2100080000000074
:10002000000000000000000000000000FF210008A8
:100030000122000800000000032200080522000839
:10004000BD220008BD220008BD220008BD22000814
:10005000BD220008BD220008BD220008BD22000804
:10006000BD220008BD220008BD220008BD220008F4
:10007000BD220008BD220008BD220008BD220008E4
:10008000BD220008BD220008BD220008BD220008D4
:10009000BD220008BD220008BD220008BD220008C4
:1000A000BD2200080D220008BD220008BD22000864
:1000B000BD220008BD220008BD220008BD220008A4
:1000C000BD220008BD220008BD220008BD22000894
:1000D000BD220008BD220008BD220008BD22000884
:1000E000BD220008BD220008BD220008BD22000874
:1000F000BD220008BD220008BD220008BD22000864
:10010000BD220008BD220008BD220008BD22000853
:10011000BD220008BD220008BD220008BD22000843
:10012000BD220008BD220008BD220008BD22000833
:10013000BD220008000000000000000000000000D8
:10014000000000000000000000000000BD220008C8
:10015000BD220008BD220008BD220008BD22000803
:10016000BD220008BD220008BD220008BD220008F3
:10017000BD220008BD2200080000000000000000B1
:10018000BD220008BD220008BD220008BD220008D3
:10019000BD220008BD22000800000000BD220008AA
:1001A000000000000000000000000000BD22000868
:1001B000BD220008BD220008000000000000000071
:1001C000000000000000000000000000000000002F
:1001D000000000000000000000000000BD22000838
:1001E00010B5054C237833B9044B13B10448AFF371
:1001F00000800123237010BD70000020000000006B
:10020000CC35000808B5034B1BB103490348AFF3D5
:10021000008008BD0000000074000020CC350008FC
:1002200053B94AB9002908BF00281CBF4FF0FF315D
:100230004FF0FF3000F072B9ADF1080C6DE904CE5B
:1002400000F006F8DDF804E0DDE9022304B07047B1
:100250002DE9F047089E04468846002B4BD18A4280
:10026000154667D9B2FA82F24AB1C2F1200701FA03
:1002700002F320FA07F7954047EA030894404FEA53
:10028000154E230CB8FBFEF71FFA85FC0EFB1788F2
:1002900043EA084307FB0CF1994209D9EB1807F12F
:1002A000FF3080F01B81994240F21881023F2B44BD
:1002B0005B1AA4B2B3FBFEF00EFB103344EA034416
:1002C00000FB0CFCA44509D92C1900F1FF3380F088
:1002D0000781A44540F2048102382C4440EA0740DB
:1002E000A4EB0C0400271EB1D4400023C6E9004350
:1002F0003946BDE8F0878B4209D9002E00F0EB802B
:100300000027C6E9000138463946BDE8F087B3FA50
:1003100083F7002F47D18B4202D3824200F2FA804A
:10032000841A61EB030301209846002EE0D0C6E951
:100330000048DDE702B9FFDEB2FA82F2002A40F09F
:100340008F80491B4FEA154E1FFA85F80127B1FB34
:10035000FEFC230C0EFB1C1143EA014308FB0CF1CD
:10036000994207D9EB180CF1FF3002D2994200F202
:10037000CD808446591AA3B2B1FBFEF00EFB1014D7
:1003800043EA044408FB00F8A04507D92C1900F102
:10039000FF3302D2A04500F2B6801846A4EB080451
:1003A00040EA0C409FE7C7F1200CBB4022FA0CFE4C
:1003B0004EEA030E01FA07F420FA0CF521FA0CF3C9
:1003C0004FEA1E482543B3FBF8F92C0C08FB193300
:1003D0001FFA8EFA44EA034309FB0AF49C4202FA2C
:1003E00007F200FA07F10BD91EEB030309F1FF3006
:1003F00080F087809C4240F28480A9F10209734416
:100400001B1BADB2B3FBF8F008FB103345EA034405
:1004100000FB0AFAA24508D91EEB040400F1FF33E1
:100420006BD2A24569D90238744440EA0940A0FB66
:100430000289A4EB0A044C45C2464B4654D351D022
:10044000002E69D0B1EB0A0564EB030404FA0CFC3E
:10045000FD40FC404CEA0505C6E90054002747E78B
:10046000C2F1200320FA03F7954001FA02F021FAC5
:1004700003F34FEA154E3843010CB3FBFEF71FFAA6
:1004800085F80EFB173341EA034107FB08F38B4263
:1004900004FA02F407D9691807F1FF3C2FD28B4206
:1004A0002DD9023F2944CB1A81B2B3FBFEF00EFBDB
:1004B000103341EA034100FB08F38B4207D9691866
:1004C00000F1FF3C17D28B4215D902382944C91AD2
:1004D00040EA07473BE73746304609E70746E7E685
:1004E0001846FBE64145ABD2B8EB020A69EB0E02B7
:1004F00001381346A4E76046E9E7184695E76746E2
:10050000D1E781467CE702382C4447E7ACF1020C86
:100510002B442FE7384608E73746E9E6704700BF27
:10052000034613F8012B002AFBD1181A0138704733
:1005300001F0FF01102A2BDB10F0070F08D010F894
:10054000013B013A8B422DD010F0070F42B3F6D198
:10055000F0B441EA012141EA014122F007047FF0B1
:1005600000070023F0E80256083C85EA010586EA08
:10057000010685FA47F5A3FA87F586FA47F6A5FA44
:1005800087F68EB9EED1F0BC01F0FF0102F0070250
:1005900032B110F8013B013A83EA010313B1F8D1FB
:1005A0000020704701387047002D06BF35460338DC
:1005B000073815F0010F07D1013015F4807F02BF15
:1005C000013015F4C03F0130F0BC0138704700BF66
:1005D00008B5032000F01AF8002001F0CFFD01F06B
:1005E00051FD002008BD0000034A1168034B1B7831
:1005F0000B441360704700BF9800002000000020EB
:10060000014B1868704700BF980000200649CB686E
:1006100023F4E0631B041B0C000200F4E0600343BE
:10062000024A1A43CA60704700ED00E00000FA0574
:1006300030B4154BDB68C3F30223C3F10704042C69
:1006400028BF04241D1D062D14D9033B4FF0FF3590
:1006500005FA04F421EA0401994005FA03F322EAB9
:1006600003031943002807DB0901C9B2074B1954DA
:1006700030BC70470023E9E700F00F000901C9B260
:10068000034B1954F4E700BF00ED00E000E400E084
:1006900014ED00E000F01F02400901239340024ADC
:1006A00042F82030704700BF00E100E00138B0F1AF
:1006B000807F0AD2064B5860064AF02182F8231048
:1006C0000020986007221A6070470120704700BF21
:1006D00010E000E000ED00E0042805D0054A1368B2
:1006E00023F0040313607047024A136843F00403C5
:1006F0001360704710E000E0704708B5FFF7FCFF9B
:1007000008BD000000230F2B00F2D680F0B482B0A9
:1007100039E0072200E00022B2403A430234674E3B
:1007200046F82420664A1468EA4302EA04064F6841
:1007300017F4803F01D045EA0406614C26606468E6
:1007400002EA04064F6817F4003F01D045EA0406A8
:100750005B4C6660A46802EA04064F6817F4801FC9
:1007600001D045EA0406564CA660E46822404E6873
:1007700016F4001F01D045EA0402514CE260013337
:100780000F2B00F2968001229A400C6804EA0205C1
:10079000AA42F4D14C68122C18BF022C10D1DE08EA
:1007A000083650F826C003F00704A7000F24BC4009
:1007B0002CEA040C0C69BC4044EA0C0440F82640C6
:1007C00004685F000326BE40F64306EA040C4C684A
:1007D00004F00304BC4044EA0C0404604C6804F1D7
:1007E000FF3C112C18BFBCF1010F01D9122C11D103
:1007F000846806EA040CCC68BC4044EA0C048460BB
:10080000446824EA020C4C68C4F300129A4042EA9D
:100810000C024260C26816408A68BA403243C26025
:100820004A6812F0805FAAD0264A546C44F480448F
:100830005464526C02F480420192019A9C08A61CF6
:100840001E4A52F8267003F0030296000F22B240AF
:1008500027EA02071C4A90423FF45DAF02F580622E
:1008600090421AD002F58062904218D002F5806260
:10087000904216D002F58062904214D002F5806258
:10088000904212D002F58062904210D002F5806250
:1008900090423FF43EAF08223EE701223CE70222AD
:1008A0003AE7032238E7042236E7052234E7062236
:1008B00032E702B0F0BC7047704700BF003801401B
:1008C000003C01400038024000000240002800F0D7
:1008D000DB8170B582B00446036813F0010F29D0A4
:1008E000A24B9B6803F00C03042B1AD09F4B9B6810
:1008F00003F00C03082B0FD06368B3F5803F40D0A2
:10090000002B54D1994B1A6822F480321A601A686D
:1009100022F480221A6039E0944B5B6813F4800F54
:10092000EAD0924B1B6813F4003F03D06368002B9E
:1009300000F0AC81236813F0020F75D08B4B9B68DD
:1009400013F00C0F5ED0894B9B6803F00C03082B4F
:1009500053D0E368002B00F08A80844A136843F088
:1009600001031360FFF74CFE0546804B1B6813F034
:10097000020F73D1FFF744FE401B0228F5D9032074
:1009800087E17A4A136843F48033136063682BB3BA
:10099000FFF736FE0546754B1B6813F4003FC9D1BF
:1009A000FFF72EFE401B6428F5D9032071E1B3F553
:1009B000A02F09D06D4B1A6822F480321A601A6891
:1009C00022F480221A60E1E7684B1A6842F4802220
:1009D0001A601A6842F480321A60D7E7FFF710FEF7
:1009E0000546624B1B6813F4003FA3D0FFF708FED7
:1009F000401B6428F5D903204BE15C4B5B6813F482
:100A0000800FA6D1594B1B6813F0020F04D0E36886
:100A1000012B01D001203CE1544A136823F0F80374
:100A2000216943EAC1031360236813F0080F46D01D
:100A3000636983B34D4A536F43F001035367FFF774
:100A4000DFFD0546494B5B6F13F0020F37D1FFF70F
:100A5000D7FD401B0228F5D903201AE1434A136849
:100A600023F0F803216943EAC1031360DCE73F4A3E
:100A7000136823F001031360FFF7C2FD05463B4BEB
:100A80001B6813F0020FCFD0FFF7BAFD401B0228FE
:100A9000F5D90320FDE0354A536F23F00103536776
:100AA000FFF7AEFD0546314B5B6F13F0020F06D02A
:100AB000FFF7A6FD401B0228F5D90320E9E02368D3
:100AC00013F0040F7ED0294B1B6C13F0805F1ED1F6
:100AD000264B1A6C42F080521A641B6C03F0805350
:100AE0000193019B0125224B1B6813F4807F10D0DA
:100AF000A368012B21D0002B3CD11C4B1A6F22F094
:100B000001021A671A6F22F004021A671AE0002520
:100B1000E9E7174A136843F480731360FFF770FD29
:100B20000646134B1B6813F4807FE1D1FFF768FD85
:100B3000801B6428F5D90320ABE00C4A136F43F007
:100B400001031367A3685BB3FFF75AFD0646074B23
:100B50001B6F13F0020F34D1FFF752FD801B41F2DF
:100B600088339842F3D9032093E000BF0038024055
:100B700000700040052B09D0484B1A6F22F001028B
:100B80001A671A6F22F004021A67DBE7434B1A6FE9
:100B900042F004021A671A6F42F001021A67D1E7A5
:100BA000FFF72EFD06463D4B1B6F13F0020F08D0DA
:100BB000FFF726FD801B41F288339842F3D90320CA
:100BC00067E0F5B9A369002B62D0344A926802F05D
:100BD0000C02082A5FD0022B19D0304A136823F088
:100BE00080731360FFF70CFD04462C4B1B6813F059
:100BF000007F47D0FFF704FD001B0228F5D9032032
:100C000047E0264A136C23F080531364DAE7234A43
:100C1000136823F080731360FFF7F2FC05461F4B47
:100C20001B6813F0007F06D0FFF7EAFC401B022888
:100C3000F5D903202DE0E369226A1343626A43EA8F
:100C40008213A26A5208013A43EA0243E26A43EA83
:100C5000026343F00053114A5360136843F08073FA
:100C60001360FFF7CDFC04460C4B1B6813F0007FAC
:100C700006D1FFF7C5FC001B0228F5D9032008E0C8
:100C8000002006E0002004E001207047012000E081
:100C9000002002B070BD0120FBE700BF0038024019
:100CA000264B9B6803F00C03042B44D0082B01D087
:100CB000234870472DE9F04B204B5A6802F03F0261
:100CC0005B6813F4800F13D01C4B5968C1F3881173
:100CD00000231C48A1FB0001FFF7A2FA174B5B6839
:100CE000C3F3014301335B00B0FBF3F0BDE8F08BCD
:100CF000124B5B68C3F388131E4600275C01002576
:100D0000E41A65EB0705A90141EA9461A001001B03
:100D100061EB0501CB0043EA5073C400A01943EB1B
:100D200007018B0243EA90538402204619460023B0
:100D3000FFF776FAD2E70348704700BF0038024059
:100D40000024F40040787D01002800F0A28070B5F6
:100D50000446524B1B6803F00F038B420CD24F4AE0
:100D6000136823F00F030B431360136803F00F03A2
:100D70008B4201D0012070BD236813F0020F17D001
:100D800013F0040F04D0464A936843F4E053936091
:100D9000236813F0080F04D0414A936843F460437A
:100DA00093603F4A936823F0F003A0680343936085
:100DB0000D46236813F0010F31D06368012B20D05A
:100DC000022B25D0364A126812F0020F63D0344944
:100DD0008A6822F0030213438B60FFF711FC06467A
:100DE0002F4B9B6803F00C036268B3EB820F16D0A5
:100DF000FFF706FC801B41F288339842F0D90320AC
:100E0000B9E7274A126812F4003FE0D10120B2E7A7
:100E1000234A126812F0007FD9D10120ABE71F4BA3
:100E20001B6803F00F03AB420CD91C4A136823F074
:100E30000F032B431360136803F00F03AB4201D081
:100E4000012098E7236813F0040F06D0144A936832
:100E500023F4E053E1680B439360236813F0080F19
:100E600007D00F4A936823F46043216943EAC10322
:100E70009360FFF715FF0A4B9B68C3F30313094AFE
:100E8000D35CD840084B1860002001F077F90020AF
:100E900071E70120704701206DE700BF003C024070
:100EA00000380240E435000808000020014B1868B3
:100EB000704700BF0800002008B5FFF7F7FF044B9C
:100EC0009B68C3F38223034AD35CD84008BD00BFAC
:100ED00000380240F435000808B5FFF7E7FF044B7F
:100EE0009B68C3F34233034AD35CD84008BD00BFBC
:100EF00000380240F43500080F2303600B4B9A685A
:100F000002F0030242609A6802F0F00282609A687E
:100F100002F4E052C2609B68DB0803F4E053036113
:100F2000034B1B6803F00F030B607047003802404F
:100F3000003C0240F0B583B00446036813F0010F93
:100F40000CD0A44B9A6822F400029A609A68C16A95
:100F50000A439A60C36AC3B1002600E000262368F2
:100F600013F4002F15D09B4AD2F88C3023F4401391
:100F7000616B0B43C2F88C30636BB3F5801F06D0F6
:100F8000002B00F00581002504E00126E7E701269B
:100F9000F6E70025236813F4801F0FD08D4AD2F89E
:100FA0008C3023F44003A16B0B43C2F88C30A36B4D
:100FB000B3F5800F00F0EE8003B90125236813F02C
:100FC000200F40F0E980236813F0100F0CD0814B04
:100FD000D3F88C2022F08072C3F88C20D3F88C20B8
:100FE000216B0A43C3F88C20236813F4804F08D088
:100FF000784AD2F8903023F44033E16D0B43C2F8C5
:101000009030236813F4004F08D0724AD2F8903021
:1010100023F44023216E0B43C2F89030236813F46D
:10102000803F08D06B4AD2F8903023F44013616EB1
:101030000B43C2F89030236813F0400F08D0654A84
:10104000D2F8903023F00303E16B0B43C2F89030E9
:10105000236813F0800F08D05E4AD2F8903023F056
:101060000C03216C0B43C2F89030236813F4807F8B
:1010700008D0584AD2F8903023F03003616C0B430B
:10108000C2F89030236813F4007F08D0514AD2F898
:10109000903023F0C003A16C0B43C2F8903023685A
:1010A00013F4806F08D04B4AD2F8903023F4407389
:1010B000E16C0B43C2F89030236813F4006F08D042
:1010C000444AD2F8903023F44063216D0B43C2F8B8
:1010D0009030236813F4805F08D03E4AD2F89030F5
:1010E00023F44053616D0B43C2F89030236813F42E
:1010F000005F08D0374AD2F8903023F44043A16D06
:101100000B43C2F89030236813F4001F0DD0314A0E
:10111000D2F8903023F00063616F0B43C2F8903037
:10112000636FB3F1006F00F0A180236813F4802F88
:1011300008D0284AD2F8903023F04073E16E0B4378
:10114000C2F89030236813F4000F08D0214AD2F877
:10115000903023F08053A16F0B43C2F89030236886
:1011600013F0806F08D01B4AD2F8903023F0005360
:10117000E16F0B43C2F89030002E79D12368B3F1B0
:10118000007F75D0002D40F0E380002003B0F0BD5B
:101190000125FFE601260FE70E4B1A6C42F0805244
:1011A0001A641B6C03F080530193019B0A4A136875
:1011B00043F480731360FFF723FA0746064B1B685E
:1011C00013F4807F0AD1FFF71BFAC01B6428F5D9FE
:1011D0000320DBE700380240007000408D4B1B6F9E
:1011E00013F4407315D0A26A02F440729A4210D0F0
:1011F000884B1A6F22F44072196F41F480311967DD
:10120000196F21F4803119671A671B6F13F0010FF2
:1012100012D1A36A03F44072B2F5407F1DD07D4A1B
:10122000936823F4F81393607A490B6FA26AC2F3B0
:101230000B0213430B67C6E6FFF7E2F90746754B4F
:101240001B6F13F0020FE4D1FFF7DAF9C01B41F274
:1012500088339842F3D9032098E76E48826822F4D5
:10126000F8126D4919400A438260DDE701255CE709
:10127000684A136823F080631360FFF7C1F90646DC
:10128000644B1B6813F0006F06D0FFF7B9F9801BA1
:101290006428F5D9032079E7236813F0010F0ED0F5
:1012A000E36A63B95B4AD2F88430616803F0706323
:1012B00043EA8113A16843EA0173C2F884302368CA
:1012C00013F4002F03D0626BB2F5801F06D013F425
:1012D000801F19D0A36BB3F5800F15D14D4AD2F8FA
:1012E00084106068E3681B0643EA801301F0E04164
:1012F0000B43C2F88430D2F88C3023F01F03E1692D
:1013000001390B43C2F88C30236813F0007F0AD0F8
:101310006268E3681B0643EA8213A26843EA027329
:101320003C4AC2F884303B4A136843F08063136040
:10133000FFF766F90646374B1B6813F0006F7FF422
:1013400021AFFFF75DF9801B6428F4D903201DE766
:10135000304A136823F080531360FFF751F90546B4
:101360002C4B1B6813F0005F06D0FFF749F9401BB8
:101370006428F5D9032009E7236813F4002F01D06E
:10138000626B22B113F4801F18D0A36BB3B9214A4A
:10139000D2F88830216903F4403343EA811361694C
:1013A00043EA0163C2F88830D2F88C3023F4F85352
:1013B000216A013943EA0123C2F88C30236813F40F
:1013C000001F03D0636FB3F1006F13D0114A13688D
:1013D00043F080531360FFF713F904460D4B1B686D
:1013E00013F0005F14D1FFF70BF9001B6428F5D947
:1013F0000320CBE60749D1F888202069A3691B04A4
:1014000043EA801302F070621343C1F88830DDE7CD
:101410000020BBE600380240FFFCFF0F7047026867
:10142000D36843F00103D3600268136843F00103FB
:10143000136000207047704770477047704710B5C1
:10144000044603681A6912F0020F11D0DA6812F02C
:10145000020F0DD06FF002021A61012303770368B7
:101460009B6913F0030F79D0FFF7E6FF0023237782
:1014700023681A6912F0040F12D0DA6812F0040F10
:101480000ED06FF004021A610223237723689B6950
:1014900013F4407F68D02046FFF7CEFF0023237768
:1014A00023681A6912F0080F12D0DA6812F0080FD8
:1014B0000ED06FF008021A61042323772368DB69DA
:1014C00013F0030F57D02046FFF7B6FF0023237712
:1014D00023681A6912F0100F12D0DA6812F0100F98
:1014E0000ED06FF010021A61082323772368DB699E
:1014F00013F4407F46D02046FFF79EFF002323775A
:1015000023681A6912F0010F03D0DA6812F0010F94
:101510003FD123681A6912F0800F03D0DA6812F005
:10152000800F3DD123681A6912F4807F03D0DA68F6
:1015300012F0800F3BD123681A6912F0400F03D0DC
:10154000DA6812F0400F39D123681A6912F0200FBF
:1015500003D0DA6812F0200F37D110BDFFF76BFF10
:101560002046FFF76AFF81E72046FFF764FF204629
:10157000FFF763FF92E72046FFF75DFF2046FFF786
:101580005CFFA3E72046FFF756FF2046FFF755FF15
:10159000B4E76FF001021A61204600F0EDFBB8E7F6
:1015A0006FF080021A61204600F0B6F8BAE76FF0DB
:1015B00080021A61204600F0AFF8BCE76FF04002ED
:1015C0001A612046FFF73AFFBEE76FF020021A616A
:1015D000204600F0A0F8C0E770B403683A4CA0427F
:1015E00014BF00240124B0F1804F14BF224644F000
:1015F0000102AAB9354DA84214BF00250125344E79
:10160000B0420DD065B905F1804505F58235A84297
:1016100014BF0025012506F50066B04200D01DB1BB
:1016200023F070034D682B43002A33D1274A9042A0
:1016300014BF00220122264DA8422BD052BB02F13A
:10164000804202F58232904214BF0022012205F549
:101650000065A8421ED0EAB91E4A904214BF00227B
:10166000012205F59A35A84214D09AB91A4A904237
:1016700014BF0022012205F50065A8420AD04AB92C
:10168000164A904214BF00220122A5F59635A842C1
:1016900000D01AB123F44073CA68134323F08003C7
:1016A0004A69134303608A68C2620A6882620C4B0B
:1016B000984214BF234644F001030BB10B69036346
:1016C0000123436170BC70470000014000080040E6
:1016D0000004004000440140001800400020004089
:1016E00000040140A8B110B5044690F83D305BB14C
:1016F000022384F83D30211D2068FFF76DFF012390
:1017000084F83D30002010BD80F83C30FFF786FEA5
:10171000EEE701207047704770472DE9F04105461C
:101720000F4616469846069C2B68DB6937EA03038A
:101730000CBF01230023B3421DD1B4F1FF3FF3D00E
:101740002CB1FEF75DFFA0EB0800A042ECD32A68A5
:10175000136823F4D07313602A68936823F001039D
:101760009360202385F8693085F86A30002385F876
:101770006830032000E00020BDE8F0812DE9F04151
:1017800082B01E4690F86930DBB2202B52D104465D
:101790000D469046B2FA82F35B09002908BF012387
:1017A000002B4CD190F86830012B4AD0012380F8EF
:1017B00068300023C366212380F86930FEF720FFDC
:1017C0000746A4F85080A4F8528003E02A782368E2
:1017D0009A620135B4F852309BB2DBB1B4F85230A2
:1017E000013B9BB2A4F8523000963B460022802178
:1017F0002046FFF792FF30BBA368B3F5805FE5D1C9
:101800002369002BE2D135F8023B2268C3F30803B9
:101810009362DFE700963B46002240212046FFF717
:101820007CFF034688B9202284F86920002284F8CE
:10183000682000E00223184602B0BDE8F0810123D1
:10184000F9E70223F7E70323F5E70323F3E70000B3
:1018500010B5044683680269134342691343C269A1
:101860001343016808689D4A024013430B602268D5
:10187000536823F44053E1680B435360A369226A21
:101880001A4321688B6823F4306313438B60236809
:10189000934A934219D0934A93422AD0924A934250
:1018A00040D0924A934255D0914A93426AD0914A8D
:1018B000934200F08280904A934200F099808F4AD0
:1018C000934200F0B0801022C9E002F59432D2F8C1
:1018D000902002F00302032A03D8DFE802F0BF06DB
:1018E00004081022BBE00222B9E00422B7E008227B
:1018F000B5E002F5FA32D2F8902002F00C020C2A80
:1019000008D8DFE802F0BA0707070B07070709073F
:1019100007070D001022A2E00222A0E004229EE0B0
:1019200008229CE002F5F832D2F8902002F0300252
:10193000102A0DD005D9202A08D0302A04D1082237
:101940008DE00AB900228AE0102288E0022286E0B7
:10195000042284E002F5F632D2F8902002F0C002B0
:10196000402A0DD005D9802A08D0C02A04D10822E7
:1019700075E00AB9002272E0102270E002226EE0E7
:1019800004226CE002F5F432D2F8902002F44072A6
:10199000B2F5807F0FD007D9B2F5007F09D0B2F53C
:1019A000407F04D108225AE00AB9002257E01022F1
:1019B00055E0022253E0042251E002F59232D2F8BF
:1019C000902002F44062B2F5806F0FD007D9B2F5D3
:1019D000006F09D0B2F5406F04D108223FE00AB988
:1019E00001223CE010223AE0022238E0042236E0F4
:1019F00002F5E032D2F8902002F44052B2F5805F56
:101A00000FD007D9B2F5005F09D0B2F5405F04D11D
:101A1000082224E00AB9002221E010221FE002225D
:101A20001DE004221BE002F5DE32D2F8902002F421
:101A30004042B2F5804F0FD007D9B2F5004F09D020
:101A4000B2F5404F04D1082209E00AB9002206E0AD
:101A5000102204E0022202E0042200E00122E169F7
:101A6000B1F5004F0BD0082A00F29B80DFE802F0AE
:101A7000616D7999839999998F000022EFE7082A7F
:101A800054D8DFE802F0051722533F5353534A005E
:101A9000FFF712FA6268530803EB4003B3FBF2F35B
:101AA0009BB2002023F00F02C3F3420313432268CA
:101AB000D36010BDFFF710FA6268530803EB4003D0
:101AC000B3FBF2F39BB20020ECE762680C4B03EB34
:101AD0005203B3FBF2F39BB20020E3E7F369FFEF9D
:101AE000001001400044004000480040004C00400D
:101AF000005000400014014000780040007C00408D
:101B00000048E801FFF7CCF86268530803EB400394
:101B1000B3FBF2F39BB20020C4E76268530803F5FD
:101B20008033B3FBF2F39BB20020BBE7012000231C
:101B3000B8E7FFF7C1F9636800EB5300B0FBF3F0BF
:101B4000236880B2D8600020B3E7FFF7C5F9636867
:101B500000EB5300B0FBF3F0236880B2D8600020A4
:101B6000A7E76168104A02EB5102B2FBF1F292B2B0
:101B7000DA6000209DE7FFF793F8636800EB5300FD
:101B8000B0FBF3F0236880B2D860002091E7616871
:101B90004A0802F50042B2FBF1F292B2DA6000208C
:101BA00087E7012085E700BF0024F400436A13F0B3
:101BB000010F06D00268536823F40033816A0B4397
:101BC0005360436A13F0020F06D00268536823F48F
:101BD0008033C16A0B435360436A13F0040F06D08D
:101BE0000268536823F48023016B0B435360436AFC
:101BF00013F0080F06D00268536823F40043416BCA
:101C00000B435360436A13F0100F06D002689368C9
:101C100023F48053816B0B439360436A13F0200FCE
:101C200006D00268936823F40053C16B0B439360A2
:101C3000436A13F0400F0AD00268536823F48013FC
:101C4000016C0B435360036CB3F5801F0BD0436AE8
:101C500013F0800F06D00268536823F40023816CD0
:101C60000B43536070470268536823F4C003416C10
:101C70000B435360EBE710B582B004460023C36604
:101C8000FEF7BEFC2268126812F0080F09D120236B
:101C900084F8693084F86A30002084F8680002B063
:101CA00010BD6FF07E430093034600224FF40011F5
:101CB0002046FFF732FD0028E9D00320EFE778B394
:101CC00010B5044690F869300BB3242384F86930CA
:101CD0002268136823F0010313602046FFF7B8FD64
:101CE000012813D0636ABBB92268536823F4904378
:101CF00053602268936823F02A0393602268136874
:101D000043F0010313602046FFF7B5FF10BD80F8D4
:101D1000683000F0FFF9D8E72046FFF747FFE3E718
:101D20000120704784B0134B1A6B42F001021A6312
:101D30001A6B02F001020092009A1A6B42F0400204
:101D40001A631A6B02F040020192019A1A6B42F078
:101D500080021A631A6B02F080020292029A1A6BD6
:101D600042F004021A631B6B03F004030393039B0A
:101D700004B070470038024008B50268034B9A422D
:101D800000D008BDFEF730FCFBE700BF00000140BB
:101D9000FEE7000008B50C480C4B03604FF4E1333C
:101DA000436000238360C36003610C22426183614E
:101DB000C36103624362FFF782FF00B908BDFE21E1
:101DC0000348FFF7E5FF00BF9C000020001401401E
:101DD000FC35000800B5B5B02A4B1A6C42F08052B1
:101DE0001A641B6C03F080530193019B264A13680D
:101DF00023F4404343F480431360136803F44043E7
:101E00000293029B0223289301232B9310232C93EC
:101E100000232E9328A8FEF759FD38BB0F232393E8
:101E20000021249125912691279123A8FEF78CFF6C
:101E300000BB4FF4006303930023179303A8FFF73D
:101E400079F8D8B9FFF732F8104BA3FB00308009BE
:101E5000FEF72CFC0420FEF73FFC002211464FF059
:101E6000FF30FEF7E5FB35B05DF804FBCA210848FA
:101E7000FFF78EFFD8210648FFF78AFFDF210448CD
:101E8000FFF786FF0038024000700040D34D62101B
:101E9000FC350008F0B587B0FEF79AFBFFF79AFF14
:101EA000FFF740FFFFF776FF0123564A0E2102A8F5
:101EB00000F0AEFA02A8FEF733FB534C4FF0FF33AD
:101EC00082B202A92046FFF759FC4FF0FF330E22E1
:101ED0004E492046FFF752FC4FF0FF332E224C496B
:101EE0002046FFF74BFC4B4E00242146304600F0C5
:101EF00013FA494F2168384600F00EFA0199474815
:101F000000F00AFA2146464800F006FA21684548E2
:101F100000F002FA444D0199284600F0FDF94348CB
:101F200000F06EFA35210091414B0193414800F0D9
:101F3000F3F90099384600F0EFF906AC54F8181D93
:101F40003D4800F0E9F92146304600F0E5F9214628
:101F50003A4800F0E1F92146394800F0DDF90099EE
:101F6000384800F0D9F90199374800F0D5F9019BBC
:101F70001978364800F0D0F9019B1978344800F000
:101F8000CBF90199334800F0C7F90199324800F0C4
:101F9000C3F9019B1978314800F0BEF9019B5978CB
:101FA0002F4800F0B9F9019B59782E4800F0B4F998
:101FB000019B59782C4800F0AFF9019B19782B4808
:101FC00000F0AAF9019B1978294800F0A5F90199B8
:101FD000284600F0A1F90199264800F09DF90199E1
:101FE0000131254800F098F906AC54F8141D013170
:101FF000224800F091F92146214800F08DF9002097
:1020000007B0F0BD0C3600089C0000202036000808
:10201000303600086036000878360008943600082C
:10202000B0360008CC360008E8360008043700084F
:102030003837000850370008683700088437000830
:10204000A0370008BC370008D8370008F43700086C
:1020500014380008303800084C3800086C38000884
:1020600090380008B0380008D4380008F838000864
:102070001839000834390008543900087439000848
:102080009439000800B583B0214B1A6C42F080529D
:102090001A641A6C02F080520092009A5A6C42F450
:1020A00080425A645B6C03F480430193019B0320DC
:1020B000FEF7ACFA002211466FF00B00FEF7B8FAFB
:1020C000002211466FF00A00FEF7B2FA0022114614
:1020D0006FF00900FEF7ACFA002211466FF0040021
:1020E000FEF7A6FA002211466FF00300FEF7A0FAF1
:1020F000002211466FF00100FEF79AFA0022114605
:102100004FF0FF30FEF794FA03B05DF804FB00BF18
:10211000003802400268164B9A4200D07047F0B572
:1021200087B003F592335A6C42F020025A645B6C1C
:1021300003F020030093009B4FF4007301930227E8
:10214000029700260396032504950824059401A907
:102150000848FEF7D7FA40230193029703960495A7
:10216000059401A90448FEF7CDFA07B0F0BD00BF01
:1021700000140140001802400008024000B589B078
:10218000002201461920FEF753FA1920FEF782FAC1
:10219000144B5A6C42F001025A645B6C03F0010369
:1021A0000193019B02A903A8FEF7A6FEFEF794FE89
:1021B0000D4BA3FB00239B0C013B0C480C4A026017
:1021C00040F2E732C2604360002303618360FFF79F
:1021D00089FA18B1012009B05DF804FB0348FFF744
:1021E0001EF9F8E70038024083DE1B430C01002093
:1021F000000001407047FEE7FEE7FEE7FEE770479C
:102200007047704708B5FEF778FA08BD08B5024870
:10221000FFF715F908BD00BF0C01002010B40F4AEC
:10222000D2F8883043F47003C2F888300C4B196838
:1022300041F001011960002098601C6809492140A3
:10224000196009495960196821F480211960D86022
:102250004FF0006393605DF8044B704700ED00E0C1
:1022600000380240FFFFF6FE10300024DFF834D0C3
:10227000002103E00C4B5B58435004310B480C4BDE
:1022800042189A42F6D30B4A02E0002342F8043B7C
:10229000094B9A42F9D3FFF7C1FF00F011F8FFF79D
:1022A000F9FD7047000004205C3A0008000000209F
:1022B000700000207000002050010020FEE70000A8
:1022C00070B50D4E0D4CA41BA4100025A54209D1DC
:1022D0000B4E0C4C01F07AF9A41BA4100025A5426A
:1022E00005D170BD56F8253098470135EEE756F810
:1022F000253098470135F2E7543A0008543A00086F
:10230000543A0008583A000802440346934200D168
:10231000704703F8011BF9E70FB40A4B13B51C68AB
:1023200024B1A36913B9204600F056FA05AB049A0C
:10233000A1680193204600F05FFD02B0BDE81040A7
:1023400004B070470C00002070B50E46054618B169
:1023500083690BB900F040FAAB69AC6813B9284641
:1023600000F03AFA234B9C4217D16C68A3891B07F3
:102370001DD52369DBB1013EA36816F8011F013B9F
:10238000A360E9B9002B2EDA22460A21284600F084
:1023900073F8013011D00A2011E0174B9C4201D193
:1023A000AC68E3E7154B9C4208BFEC68DEE72146CA
:1023B000284600F0B3F80028DDD04FF0FF3070BDA4
:1023C000002B04DAA2699A4206DC0A2904D02368A9
:1023D0005A1C22601970CFE72246284600F04CF8BC
:1023E0000130C9D1E9E723680A205A1C226018701D
:1023F000E5E700BFD8390008F8390008B839000807
:10240000024B01461868FFF79FBF00BF0C00002079
:102410000CB430B5174B0C1E9DB01D6808DA8B2329
:102420002B604FF0FF301DB0BDE8304002B0704768
:102430004FF40273ADF8143014BF04F1FF33234698
:10244000049307934FF6FF7302900690ADF8163091
:10245000209A21AB02A92846019300F0ADFB431C52
:10246000BCBF8B232B60002CDDD0029B00221A7096
:10247000D9E700BF0C000020F8B50E46144605460B
:1024800018B183690BB900F0A7F9214B9C422AD1FE
:102490006C68A369A360A3891A072ED5236963B367
:1024A00023692068C01A6369F6B28342374604DCA8
:1024B0002146284600F026F928BBA368013BA3600B
:1024C00023685A1C22601E7063690130834204D065
:1024D000A389DB0719D50A2E17D12146284600F01B
:1024E00011F990B10FE00B4B9C4201D1AC68D0E7E1
:1024F000094B9C4208BFEC68CBE72146284600F018
:102500000DF80028CCD04FF0FF373846F8BD00BF9B
:10251000D8390008F8390008B8390008324B70B5CE
:102520001D6806460C4625B1AB6913B9284600F074
:1025300053F92E4B9C420FD16C68B4F90C309AB20F
:1025400015072CD4D00611D40922326043F0400381
:10255000A3814FF0FF303EE0254B9C4201D1AC6897
:10256000EBE7244B9C4208BFEC68E6E7510712D525
:10257000616B41B104F14403994202D0304600F04E
:1025800019FA00236363A38923F02403A3810023A2
:10259000636023692360A38943F00803A38123694F
:1025A0004BB9A38903F42073B3F5007F03D0214610
:1025B000304600F0BFF9A28912F001030CD00023CD
:1025C000A36063695B42A361236953B9B4F90C301A
:1025D00013F08000BAD170BD920758BF6369A36041
:1025E000F2E70020F7E700BF0C000020D839000810
:1025F000F8390008B83900088A892DE9F041054604
:1026000010070C4658D44B68002B05DC0B6C002BD4
:1026100002DC0020BDE8F081E66A002EF9D000233C
:1026200012F480522F68216A2B6032D0606DA3892A
:102630005A0705D56368C01A636B0BB1236CC01AC7
:1026400000230246E66A216A2846B047431CA38954
:1026500006D129681D2948D8294ACA40D60744D539
:1026600000226260D9042269226004D5421C01D193
:102670002B6803B96065616B2F600029C9D004F134
:102680004403994202D0284600F094F90020606388
:10269000C0E701232846B047411CC8D12B68002B56
:1026A000C5D01D2B01D0162B01D12F60B1E7A38916
:1026B00043F04003A381ADE70F69002FA9D0930732
:1026C0000E6808BF4B690F6018BF0023A6EB070810
:1026D0008B60B8F1000F9CDD43463A46216AA66A3A
:1026E0002846B047002806DCA38943F04003A381B5
:1026F0004FF0FF308EE70744A8EB0008E9E700BF82
:102700000100402038B50B6905460C46DBB118B115
:1027100083690BB900F060F80C4B9C4209D16C68DE
:10272000B4F90C307BB121462846BDE83840FFF7AC
:1027300063BF074B9C4201D1AC68F1E7054B9C425B
:1027400008BFEC68ECE7002038BD00BFD8390008AE
:10275000F8390008B8390008002310B50446C0E96C
:102760000033836081814366C281C0E904338361A1
:10277000194608225C30FFF7C7FD054B6362054B25
:10278000A362054BE362054B2462236310BD00BFC7
:102790005133000873330008AB330008CF3300080F
:1027A000014900F085B800BF0527000870B54A1E32
:1027B000682555430E4605F1740100F049F90446B9
:1027C00040B10021C0E900160C30A06005F168029C
:1027D000FFF79AFD204670BD836910B5044633BBF0
:1027E000C0E912330365124B124A1B688262984299
:1027F00004BF0123836100F01FF86060204600F0F1
:102800001BF8A060204600F017F80022E0600421C9
:102810006068FFF7A1FF01220921A068FFF79CFF74
:1028200002221221E068FFF797FF0123A36110BD88
:10283000B4390008A1270008F8B51B4B1E68B3691E
:10284000074613B93046FFF7C7FF4836D6E90134CB
:10285000013B03D5336833B13668F7E7B4F90C5060
:102860006DB16834F4E704213846FFF79FFF30600C
:102870000028F1D10C233B6004462046F8BD0B4BE9
:102880006566C4E90055A560C4E90335C4E905558A
:102890000822294604F15C00FFF736FDC4E90D5516
:1028A000C4E91255E9E700BFB43900080100FFFF91
:1028B0002DE9F8438046894600F14804002614B902
:1028C0003046BDE8F883D4E90175013F01D524689D
:1028D000F5E7AB89012B07D9B5F90E30013303D0E9
:1028E00029464046C84706436835EEE770B50E46B0
:1028F000B1F90E10002996B014461D4607DA0023E0
:102900002B60B3891A0610D44FF480630EE06A4638
:1029100000F084FD0028F2DB019A02F47042A2F577
:1029200000535A425A412A60EEE7402300202360B8
:1029300016B070BD8B8973B59D0706460C4607D54A
:1029400004F14703236023610123636102B070BD7A
:1029500001AB6A46FFF7CAFF00990546304600F012
:1029600077F848B9B4F90C309A05EFD423F0030393
:1029700043F00203A381E3E70D4BB362A389206018
:1029800043F08003A381009B6361019B20615BB1E5
:10299000B4F90E10304600F053FD28B1A38923F09E
:1029A000030343F00103A381A3891D43A581CDE760
:1029B000A127000838B50546002945D051F8043C48
:1029C0000C1F002BB8BFE41800F080FD1F4A1368ED
:1029D000104633B9636014602846BDE8384000F003
:1029E00076BDA3420CD921686218934204BF1A68CD
:1029F0005B68636004BF521822600460ECE7134612
:102A00005A680AB1A242FAD919685818A0420BD1E3
:102A100020680144581882421960DDD1106852685C
:102A20005A6001441960D7E702D90C232B60D3E721
:102A3000206821188A4204BF11685268626004BF8E
:102A4000091821605C60C7E738BD00BF8C0000201A
:102A500070B5CD1C25F0030508350C2D38BF0C25AD
:102A6000002D064601DBA94203D90C233360002068
:102A700070BD00F02BFD214A1468214691B9204C0D
:102A800023681BB9304600F053FC206029463046CD
:102A900000F04EFC431C24D10C233360304600F080
:102AA00016FDE4E70B685B1B18D40B2B0FD90B60EA
:102AB000CD50CC18304600F00AFD04F10B00231D68
:102AC00020F00700C31AD3D05A42E250D0E78C421C
:102AD0004B6816BF636013600C46EBE70C46496811
:102AE000CCE7C41C24F00304A04205D0211A3046D0
:102AF00000F01EFC0130CFD02560DBE78C00002009
:102B0000900000202DE9F0478E689E4282460C46D8
:102B10009046994637D88A8912F4906F31D025684B
:102B200009696F1A6569022305EB450595FBF3F505
:102B300009F101033B449D4238BF1D46530530D582
:102B40002946FFF785FF064650B90C23CAF8003026
:102B5000A38943F04003A3814FF0FF30BDE8F08725
:102B60003A46216900F08EFCA38923F4906343F078
:102B70008003A381266165613E44ED1B2660A5604C
:102B80004E464E4500D94E4632464146206800F03A
:102B900084FCA3689B1BA36023681E44266000205E
:102BA000DCE72A4600F094FC06460028E2D12169C1
:102BB0005046FFF7FFFEC8E72DE9F04F9DB0804675
:102BC00003938B891D060C4616460FD50B696BB90E
:102BD0004021FFF73DFF2060206128B90C23C8F891
:102BE00000304FF0FF30C7E04023636100230993BA
:102BF00020238DF8293030238DF82A304FF0010B37
:102C000037463D4615F8013B0BB1252B3ED1B7EBBE
:102C1000060A0BD05346324621464046FFF772FF64
:102C2000013000F0A480099B534409933B78002BAA
:102C300000F09D8000234FF0FF32CDE9052304937F
:102C400007938DF853301A932F46052217F8011B6E
:102C50004F48FDF76DFC049BD0B9D90644BF202234
:102C60008DF853201A0744BF2B228DF853202A7861
:102C70002A2A15D0079A2F4600200A25394611F82E
:102C8000013B303B092B4DD9B8B10FE02F46B8E7D7
:102C90003F4A801A0BFA00F0184304903D46D3E7F0
:102CA000039A111D12680391002A01DB079204E0C8
:102CB000524243F00203079204933B782E2B0CD12F
:102CC0007B782A2B33D1039B1A1D1B680392002BA0
:102CD000B8BF4FF0FF33023705932E4D39780322EA
:102CE0002846FDF725FC38B14023401B03FA00F0CD
:102CF000049B034301370493397827488DF8281043
:102D000006227E1CFDF714FC002838D0234B13BB91
:102D1000039B073323F0070308330393099B4B44BA
:102D200009936DE705FB023201200F46A6E7002359
:102D30000137059319460A25384610F8012B303A19
:102D4000092A03D9002BC8D00591C6E705FB01214C
:102D500001230746F0E703AB00932246104B04A97A
:102D60004046AFF30080B0F1FF3F8146D6D1A38942
:102D70005B063FF536AF09981DB0BDE8F08F03AB99
:102D800000932246064B04A9404600F0BFF9EAE74B
:102D9000183A00081E3A0008223A00080000000015
:102DA000052B00089368013B002B10B4936008DAF0
:102DB0009469A34201DB0A2903D15DF8044BFFF7B4
:102DC0005BBB1368581C1060197008465DF8044B13
:102DD0007047F8B506460F461446D518AC4201D1E7
:102DE000002007E03A4614F8011B3046FFF7DAFFEF
:102DF000431CF3D1F8BD00002DE9F04F9DB00C4607
:102E000017460393064618B183690BB9FFF7E4FC34
:102E10007B4B9C4257D17468A38918075DD5236901
:102E2000002B5AD00023099320238DF8293030231A
:102E30008DF82A304FF0010BB846454615F8013B96
:102E40000BB1252B54D1B8EB070A0BD053463A46A9
:102E500021463046FFF7BDFF013000F0C280099BDC
:102E60005344099398F80030002B00F0BA800023F7
:102E70004FF0FF32CDE90523049307938DF85330CB
:102E80001A93A846052218F8011B5E48FDF750FB6F
:102E9000049B78BBD90644BF20228DF853201A0723
:102EA00044BF2B228DF853202A782A2A2AD0079A49
:102EB000A84600200A25414611F8013B303B092B6A
:102EC00069D960B324E0504B9C4201D1B468A3E7B8
:102ED0004E4B9C4208BFF4689EE721463046FFF700
:102EE0001DFB00289ED04FF0FF301DB0BDE8F08FD5
:102EF000A846A2E7434A801A0BFA00F01843049050
:102F00004546BEE7039A111D12680391002A01DBB2
:102F1000079204E0524243F002030792049398F8A8
:102F200000302E2B0ED198F801302A2B38D1039B7C
:102F30001A1D1B680392002BB8BF4FF0FF3308F136
:102F400002080593324D98F8001003222846FDF739
:102F5000EFFA40B14023401B03FA00F0049B034307
:102F600008F10108049398F800102A488DF82810F9
:102F7000062208F10107FDF7DBFA002837D0264BBF
:102F80001BBB039B073323F0070308330393099B01
:102F90004B44099350E705FB0232012088468AE73B
:102FA000002308F10108059319460A25404610F848
:102FB000012B303A092A03D9002BC3D00591C1E770
:102FC00005FB012101238046F0E703AB0093224675
:102FD000124B04A93046AFF30080B0F1FF3F8146A9
:102FE000D5D1A3895B063FF57EAF09987DE703AB9A
:102FF00000932246094B04A9304600F087F8ECE71D
:10300000D8390008183A0008F8390008B83900081B
:103010001E3A0008223A000800000000D32D0008E4
:103020002DE9F04791461F468A680B69DDF820803C
:103030009342B8BF1346C9F8003091F843200646C2
:103040000C4612B10133C9F800302368990642BF1B
:10305000D9F800300233C9F80030256815F00605AC
:1030600007D104F1190AE368D9F800209B1AAB4292
:1030700028DC94F843302268003318BF01239206FD
:103080002DD404F1430239463046C047013020D0E8
:103090002368E568D9F8002003F00603042B08BF75
:1030A000AD1AA36822690CBF25EAE5750025934295
:1030B000C4BF9B1AED184FF000091A344D451AD1C0
:1030C000002008E00123524639463046C04701300F
:1030D00003D14FF0FF30BDE8F0870135C3E7E118B9
:1030E0005A1C302081F84300224494F8451082F89D
:1030F00043100233C5E70123224639463046C04714
:103100000130E6D009F10109D8E700002DE9F043CC
:1031100001F1430C0C46097E85B06E291746064620
:1031200098460C9A00F0B38022D8632936D00AD88A
:10313000002900F0B980582900F0838004F142058D
:1031400084F8421032E0642901D06929F6D1206860
:103150001368050603F104012AD51B681160002BD2
:1031600003DA2D225B4284F843206F480A2239E0BB
:10317000732900F09D8008D86F2920D07029DDD1F7
:10318000236843F02003236003E0752917D07829D2
:10319000D4D1782384F84530644855E01368191D6C
:1031A0001B68116004F1420584F8423001238CE071
:1031B0001B68116010F0400F18BF1BB2CFE71368F7
:1031C0002568181D1060280601D51B6802E06806F6
:1031D000FBD51B8854486F2914BF0A2208220021FE
:1031E00084F843106568A560002DC0F295802168C1
:1031F00021F004012160002B3DD1002D40F08E8094
:103200006546082A0BD12368DB0708D52369626865
:103210009A42DEBF302305F8013C05F1FF35ACEBE7
:1032200005032361CDF800803B4603AA21463046C2
:10323000FFF7F6FE01304DD14FF0FF3005B0BDE88D
:10324000F083394884F84510136821681D1D1B68F8
:1032500015600A060BD5CA0744BF41F02001216062
:103260001BB9226822F0200222601022B7E74D0627
:1032700048BF9BB2EFE76546B3FBF2F102FB1133A7
:10328000C35C05F8013D0B460029F5D1B9E7136889
:1032900025686169181D106028061B6801D5196032
:1032A00002E06A06FBD51980002323616546B9E771
:1032B0001368191D11601D68626800212846FDF71A
:1032C00037F908B1401B606063682361002384F80C
:1032D0004330A7E723692A4639463046C0470130C4
:1032E000AAD023689B0713D4E068039B9842B8BF19
:1032F0001846A3E701234A4639463046C047013005
:103300009AD00135E368039A9B1AAB42F2DCEBE7F3
:10331000002504F11909F5E7002BACD1037884F8F6
:10332000423004F142056CE7293A00083A3A0008B5
:1033300038B5064C002305460846236000F030F9F6
:10334000431C02D1236803B12B6038BD4C0100201F
:1033500010B50C46B1F90E1000F0E0F80028ABBF34
:10336000636DA3891B1823F48053ACBF6365A381ED
:1033700010BD2DE9F0411F468B89DB0505460C4643
:10338000164605D502230022B1F90E1000F068F8A8
:10339000A389B4F90E1023F48053A38132463B462F
:1033A0002846BDE8F04100F017B810B50C46B1F959
:1033B0000E1000F055F8431CA38915BF606523F477
:1033C000805343F48053A38118BFA38110BDB1F98A
:1033D0000E1000F013B8000038B5074C054608463B
:1033E0001146002222601A4600F0E8F8431C02D180
:1033F000236803B12B6038BD4C01002038B5064C62
:10340000002305460846236000F0A2F8431C02D1C1
:10341000236803B12B6038BD4C01002038B5074C40
:103420000023054608461146236000F099F8431C26
:1034300002D1236803B12B6038BD00BF4C010020CE
:1034400038B5064C002305460846236000F090F886
:10345000431C02D1236803B12B6038BD4C0100200E
:1034600038B5074C054608461146002222601A4628
:1034700000F086F8431C02D1236803B12B6038BDED
:103480004C01002010B5431E0A44914200D110BDEA
:1034900011F8014B03F8014FF7E7884210B501EB33
:1034A000020307D8421E99420AD011F8014B02F8D4
:1034B000014FF8E78342F5D98118D21AD34200D1DF
:1034C00010BD13F8014D01F8014DF7E77047704743
:1034D000F8B5074614460E4621B91146BDE8F84036
:1034E000FFF7B6BA22B9FFF765FA25462846F8BDB8
:1034F00000F026F8A0420FD221463846FFF7A8FA7E
:1035000005460028F2D031462246FFF7BBFF314680
:103510003846FFF74FFAE9E73546E7E738B5074C95
:10352000054608461146002222601A4600F030F88F
:10353000431C02D1236803B12B6038BD4C0100202D
:1035400051F8043C181F002BBCBF0B58C018704723
:10355000024B58221A604FF0FF3070474C01002098
:10356000024B58221A604FF0FF3070474C01002088
:10357000024B58221A600020704700BF4C01002007
:10358000024B58221A604FF0FF3070474C01002068
:10359000024B58221A604FF0FF3070474C01002058
:1035A000044A05491368002B08BF0B4618441060F5
:1035B000184670479400002050010020024B58220A
:1035C0001A604FF0FF3070474C010020F8B500BF83
:1035D000F8BC08BC9E467047F8B500BFF8BC08BCF4
:0435E0009E4670474C
:1035E40000000000000000000102030406070809AF
:1035F40000000000010203042E2E2F5372632F6D6E
:1036040061696E2E630000000D0A206E756D62659F
:1036140072203D2025640D0A0A0000000A4C6574DE
:103624002773207374617274210A00000A4465636D
:103634006C61726174696F6E206F66206D79496E7A
:10364400742C20705F6D79496E7420616E64206DF6
:1036540079537472696E672E0A0A000056616C759C
:1036640065206F6620705F6D79496E74203D20255A
:10367400642E0A0056616C7565206F66202A705F9F
:103684006D79496E74203D2025642E0A00000000E7
:1036940056616C7565206F66206D79537472696E1E
:1036A40067203D2025732E0A000000000A4164644F
:1036B40072657373206F6620705F6D79496E742034
:1036C4003D2025702E0A00004164647265737320E6
:1036D4006F66202A705F6D79496E74203D202570D5
:1036E4002E0A000041646472657373206F66206D56
:1036F40079537472696E67203D2025702E0A00008C
:103704000A496E697469616C69736174696F6E20CA
:103714006F66206D79496E742C20705F6D79496EE7
:103724007420616E64206D79537472696E672E0A19
:103734000000000048656C6C6F20576F726C642049
:10374400506F696E746572732100000056616C7568
:1037540065206F66206D79496E74203D2025642EA6
:103764000A00000056616C7565206F66202A2826C1
:103774006D79496E7429203D2025642E0A000000CD
:103784000A41646472657373206F6620266D7949FB
:103794006E74203D2025702E0A000000416464727E
:1037A400657373206F6620705F6D79496E74203D78
:1037B4002025702E0A000000416464726573732032
:1037C4006F66202A705F6D79496E74203D202570E4
:1037D4002E0A0A0056616C7565206F66206D795358
:1037E4007472696E67203D2025732E0A0A0000005A
:1037F400436861726163746572206D795374726990
:103804006E675B305D203D2025632E0A00000000BA
:10381400436861726163746572202A6D79537472AE
:10382400696E67203D2025632E0A0000436861729B
:103834006163746572206D79537472696E67203D9B
:103844002025632E0A000000436861726163746579
:103854007220266D79537472696E675B305D203D0A
:103864002025632E0A000000436861726163746559
:1038740072202A28266D79537472696E675B305DF5
:1038840029203D2025632E0A000000004368617250
:103894006163746572206D79537472696E675B310C
:1038A4005D203D2025632E0A0000000043686172FC
:1038B4006163746572202A286D79537472696E6726
:1038C400202B203129203D2025632E0A00000000F2
:1038D400436861726163746572202A28266D795386
:1038E4007472696E675B315D29203D2025632E0A61
:1038F4000A00000041646472657373206F66206D72
:1039040079537472696E675B305D203D2025702E9B
:103914000A00000041646472657373206F66202A94
:103924006D79537472696E67203D2025702E0A00EC
:1039340041646472657373206F6620266D795374D5
:1039440072696E675B305D203D2025702E0A000091
:1039540041646472657373206F66206D7953747269
:10396400696E67202B2031203D2025702E0A00002F
:1039740041646472657373206F6620266D79537495
:1039840072696E675B315D203D2025702E0A000050
:1039940041646472657373206F6620266D79537475
:1039A40072696E67203D2025702E0A0A000000000F
:1039B40010000020000000000000000000000000D3
:1039C40000000000000000000000000000000000F3
:1039D40000000000000000000000000000000000E3
:1039E40000000000000000000000000000000000D3
:1039F40000000000000000000000000000000000C3
:103A040000000000000000000000000000000000B2
:103A140000000000232D302B2000686C4C006566EC
:103A2400674546470030313233343536373839410B
:103A34004243444546003031323334353637383921
:083A4400616263646566000025
:083A4C0004C8FF7F0100000027
:043A5400050200085F
:043A5800E101000880
:103A5C0001000000100000000024F4001000002001
:103A6C0000000000D8390008F8390008B8390008FF
:103A7C00000000000000000000000000000000003A
:103A8C00000000000000000000000000000000002A
:103A9C00000000000000000000000000000000001A
:103AAC00000000000000000000000000000000000A
:103ABC0000000000000000000000000000000000FA
:040000050800226D60
:00000001FF
