:020000040800F2
:1000000000000420092A000891290008932900080B
:100010009529000897290008992900080000000088
:100020000000000000000000000000009B29000804
:100030009D290008000000009F290008A129000850
:10004000592A0008592A0008592A0008592A000884
:10005000592A0008592A0008592A0008592A000874
:10006000592A0008592A0008592A0008592A000864
:10007000592A0008592A0008592A0008592A000854
:10008000592A0008592A0008592A0008592A000844
:10009000592A0008592A0008592A0008592A000834
:1000A000592A0008A9290008592A0008592A0008D5
:1000B000592A0008592A0008592A0008592A000814
:1000C000592A0008592A0008592A0008592A000804
:1000D000592A0008592A0008592A0008592A0008F4
:1000E000592A0008592A0008592A0008592A0008E4
:1000F000592A0008592A0008592A0008592A0008D4
:10010000592A0008592A0008592A0008592A0008C3
:10011000592A0008592A0008592A0008592A0008B3
:10012000592A0008592A0008592A0008592A0008A3
:10013000592A000800000000000000000000000034
:10014000000000000000000000000000592A000824
:10015000592A0008592A0008592A0008592A000873
:10016000592A0008592A0008592A0008592A000863
:10017000592A0008592A0008000000000000000069
:10018000592A0008592A0008592A0008592A000843
:10019000592A0008592A000800000000592A0008BE
:1001A000000000000000000000000000592A0008C4
:1001B000592A0008592A0008000000000000000029
:1001C000000000000000000000000000000000002F
:1001D000000000000000000000000000592A000894
:1001E00010B5054C237833B9044B13B10448AFF371
:1001F00000800123237010BD0C00002000000000CF
:10020000A42A000808B5034B1BB103490348AFF308
:10021000008008BD0000000010000020A42A000893
:1002200053B94AB9002908BF00281CBF4FF0FF315D
:100230004FF0FF3000F072B9ADF1080C6DE904CE5B
:1002400000F006F8DDF804E0DDE9022304B07047B1
:100250002DE9F047089E04468846002B4BD18A4280
:10026000154667D9B2FA82F24AB1C2F1200701FA03
:1002700002F320FA07F7954047EA030894404FEA53
:10028000154E230CB8FBFEF71FFA85FC0EFB1788F2
:1002900043EA084307FB0CF1994209D9EB1807F12F
:1002A000FF3080F01B81994240F21881023F2B44BD
:1002B0005B1AA4B2B3FBFEF00EFB103344EA034416
:1002C00000FB0CFCA44509D92C1900F1FF3380F088
:1002D0000781A44540F2048102382C4440EA0740DB
:1002E000A4EB0C0400271EB1D4400023C6E9004350
:1002F0003946BDE8F0878B4209D9002E00F0EB802B
:100300000027C6E9000138463946BDE8F087B3FA50
:1003100083F7002F47D18B4202D3824200F2FA804A
:10032000841A61EB030301209846002EE0D0C6E951
:100330000048DDE702B9FFDEB2FA82F2002A40F09F
:100340008F80491B4FEA154E1FFA85F80127B1FB34
:10035000FEFC230C0EFB1C1143EA014308FB0CF1CD
:10036000994207D9EB180CF1FF3002D2994200F202
:10037000CD808446591AA3B2B1FBFEF00EFB1014D7
:1003800043EA044408FB00F8A04507D92C1900F102
:10039000FF3302D2A04500F2B6801846A4EB080451
:1003A00040EA0C409FE7C7F1200CBB4022FA0CFE4C
:1003B0004EEA030E01FA07F420FA0CF521FA0CF3C9
:1003C0004FEA1E482543B3FBF8F92C0C08FB193300
:1003D0001FFA8EFA44EA034309FB0AF49C4202FA2C
:1003E00007F200FA07F10BD91EEB030309F1FF3006
:1003F00080F087809C4240F28480A9F10209734416
:100400001B1BADB2B3FBF8F008FB103345EA034405
:1004100000FB0AFAA24508D91EEB040400F1FF33E1
:100420006BD2A24569D90238744440EA0940A0FB66
:100430000289A4EB0A044C45C2464B4654D351D022
:10044000002E69D0B1EB0A0564EB030404FA0CFC3E
:10045000FD40FC404CEA0505C6E90054002747E78B
:10046000C2F1200320FA03F7954001FA02F021FAC5
:1004700003F34FEA154E3843010CB3FBFEF71FFAA6
:1004800085F80EFB173341EA034107FB08F38B4263
:1004900004FA02F407D9691807F1FF3C2FD28B4206
:1004A0002DD9023F2944CB1A81B2B3FBFEF00EFBDB
:1004B000103341EA034100FB08F38B4207D9691866
:1004C00000F1FF3C17D28B4215D902382944C91AD2
:1004D00040EA07473BE73746304609E70746E7E685
:1004E0001846FBE64145ABD2B8EB020A69EB0E02B7
:1004F00001381346A4E76046E9E7184695E76746E2
:10050000D1E781467CE702382C4447E7ACF1020C86
:100510002B442FE7384608E73746E9E6704700BF27
:1005200008B5032000F01AF8002002F0F3F902F0F9
:100530004FF9002008BD0000034A1168034B1B78E7
:100540000B441360704700BF28000020000000200B
:10055000014B1868704700BF280000200649CB688F
:1005600023F4E0631B041B0C000200F4E06003436F
:10057000024A1A43CA60704700ED00E00000FA0525
:1005800030B4154BDB68C3F30223C3F10704042C1A
:1005900028BF04241D1D062D14D9033B4FF0FF3541
:1005A00005FA04F421EA0401994005FA03F322EA6A
:1005B00003031943002807DB0901C9B2074B19548B
:1005C00030BC70470023E9E700F00F000901C9B211
:1005D000034B1954F4E700BF00ED00E000E400E035
:1005E00014ED00E000F01F02400901239340024A8D
:1005F00042F82030704700BF00E100E00138B0F160
:10060000807F0AD2064B5860064AF02182F82310F8
:100610000020986007221A6070470120704700BFD1
:1006200010E000E000ED00E0042805D0054A136862
:1006300023F0040313607047024A136843F0040375
:100640001360704710E000E0704708B5FFF7FCFF4B
:1006500008BD000000230F2B00F2D680F0B482B05A
:1006600039E0072200E00022B2403A430234674EEC
:1006700046F82420664A1468EA4302EA04064F68F2
:1006800017F4803F01D045EA0406614C2660646897
:1006900002EA04064F6817F4003F01D045EA040659
:1006A0005B4C6660A46802EA04064F6817F4801F7A
:1006B00001D045EA0406564CA660E46822404E6824
:1006C00016F4001F01D045EA0402514CE2600133E8
:1006D0000F2B00F2968001229A400C6804EA020572
:1006E000AA42F4D14C68122C18BF022C10D1DE089B
:1006F000083650F826C003F00704A7000F24BC40BA
:100700002CEA040C0C69BC4044EA0C0440F8264076
:1007100004685F000326BE40F64306EA040C4C68FA
:1007200004F00304BC4044EA0C0404604C6804F187
:10073000FF3C112C18BFBCF1010F01D9122C11D1B3
:10074000846806EA040CCC68BC4044EA0C0484606B
:10075000446824EA020C4C68C4F300129A4042EA4E
:100760000C024260C26816408A68BA403243C260D6
:100770004A6812F0805FAAD0264A546C44F4804440
:100780005464526C02F480420192019A9C08A61CA7
:100790001E4A52F8267003F0030296000F22B24060
:1007A00027EA02071C4A90423FF45DAF02F58062DF
:1007B00090421AD002F58062904218D002F5806211
:1007C000904216D002F58062904214D002F5806209
:1007D000904212D002F58062904210D002F5806201
:1007E00090423FF43EAF08223EE701223CE702225E
:1007F0003AE7032238E7042236E7052234E70622E7
:1008000032E702B0F0BC7047704700BF00380140CB
:10081000003C0140003802400000024012B90904C7
:10082000816170478161704710B582B01B4B1A6CB3
:1008300042F080521A641B6C03F080530193019BB9
:10084000174A136843F480331360FFF781FE0446B0
:10085000134B5B6813F4803F08D1FFF779FE001B50
:10086000B0F57A7FF4D9032002B010BD0C4A1368AA
:1008700043F400331360FFF76BFE0446084B5B68DC
:1008800013F4003F07D1FFF763FE001BB0F57A7F3A
:10089000F4D90320E8E70020E6E700BF0038024073
:1008A00000700040002800F0DB8170B582B0044683
:1008B000036813F0010F29D0A24B9B6803F00C03CF
:1008C000042B1AD09F4B9B6803F00C03082B0FD00E
:1008D0006368B3F5803F40D0002B54D1994B1A6820
:1008E00022F480321A601A6822F480221A6039E0F9
:1008F000944B5B6813F4800FEAD0924B1B6813F49F
:10090000003F03D06368002B00F0AC81236813F034
:10091000020F75D08B4B9B6813F00C0F5ED0894B88
:100920009B6803F00C03082B53D0E368002B00F006
:100930008A80844A136843F001031360FFF708FEBE
:100940000546804B1B6813F0020F73D1FFF700FEC2
:10095000401B0228F5D9032087E17A4A136843F443
:100960008033136063682BB3FFF7F2FD0546754BC8
:100970001B6813F4003FC9D1FFF7EAFD401B642850
:10098000F5D9032071E1B3F5A02F09D06D4B1A689A
:1009900022F480321A601A6822F480221A60E1E799
:1009A000684B1A6842F480221A601A6842F4803256
:1009B0001A60D7E7FFF7CCFD0546624B1B6813F4BE
:1009C000003FA3D0FFF7C4FD401B6428F5D90320E6
:1009D0004BE15C4B5B6813F4800FA6D1594B1B684D
:1009E00013F0020F04D0E368012B01D001203CE199
:1009F000544A136823F0F803216943EAC1031360E2
:100A0000236813F0080F46D0636983B34D4A536FD0
:100A100043F001035367FFF79BFD0546494B5B6FAE
:100A200013F0020F37D1FFF793FD401B0228F5D9D1
:100A300003201AE1434A136823F0F803216943EACB
:100A4000C1031360DCE73F4A136823F0010313601E
:100A5000FFF77EFD05463B4B1B6813F0020FCFD01E
:100A6000FFF776FD401B0228F5D90320FDE0354A4B
:100A7000536F23F001035367FFF76AFD0546314BBF
:100A80005B6F13F0020F06D0FFF762FD401B0228D8
:100A9000F5D90320E9E0236813F0040F7ED0294B39
:100AA0001B6C13F0805F1ED1264B1A6C42F08052F3
:100AB0001A641B6C03F080530193019B0125224BA8
:100AC0001B6813F4807F10D0A368012B21D0002B6A
:100AD0003CD11C4B1A6F22F001021A671A6F22F0E8
:100AE00004021A671AE00025E9E7174A136843F47D
:100AF00080731360FFF72CFD0646134B1B6813F43D
:100B0000807FE1D1FFF724FD801B6428F5D9032005
:100B1000ABE00C4A136F43F001031367A3685BB3A8
:100B2000FFF716FD0646074B1B6F13F0020F34D17B
:100B3000FFF70EFD801B41F288339842F3D9032062
:100B400093E000BF0038024000700040052B09D040
:100B5000484B1A6F22F001021A671A6F22F0040242
:100B60001A67DBE7434B1A6F42F004021A671A6FE9
:100B700042F001021A67D1E7FFF7EAFC06463D4B57
:100B80001B6F13F0020F08D0FFF7E2FC801B41F24D
:100B900088339842F3D9032067E0F5B9A369002BA5
:100BA00062D0344A926802F00C02082A5FD0022B0D
:100BB00019D0304A136823F080731360FFF7C8FC24
:100BC00004462C4B1B6813F0007F47D0FFF7C0FC96
:100BD000001B0228F5D9032047E0264A136C23F0B6
:100BE00080531364DAE7234A136823F08073136099
:100BF000FFF7AEFC05461F4B1B6813F0007F06D0C5
:100C0000FFF7A6FC401B0228F5D903202DE0E3697D
:100C1000226A1343626A43EA8213A26A5208013AC3
:100C200043EA0243E26A43EA026343F00053114A93
:100C30005360136843F080731360FFF789FC044628
:100C40000C4B1B6813F0007F06D1FFF781FC001BE3
:100C50000228F5D9032008E0002006E0002004E087
:100C600001207047012000E0002002B070BD01208B
:100C7000FBE700BF00380240264B9B6803F00C03E3
:100C8000042B44D0082B01D0234870472DE9F04BAA
:100C9000204B5A6802F03F025B6813F4800F13D0B8
:100CA0001C4B5968C1F3881100231C48A1FB0001AB
:100CB000FFF7B6FA174B5B68C3F3014301335B00E0
:100CC000B0FBF3F0BDE8F08B124B5B68C3F3881305
:100CD0001E4600275C010025E41A65EB0705A90103
:100CE00041EA9461A001001B61EB0501CB0043EADE
:100CF0005073C400A01943EB07018B0243EA9053E1
:100D00008402204619460023FFF78AFAD2E70348F7
:100D1000704700BF003802400024F40040787D0195
:100D2000002800F0A28070B50446524B1B6803F007
:100D30000F038B420CD24F4A136823F00F030B436F
:100D40001360136803F00F038B4201D0012070BDC4
:100D5000236813F0020F17D013F0040F04D0464A93
:100D6000936843F4E0539360236813F0080F04D0B2
:100D7000414A936843F4604393603F4A936823F089
:100D8000F003A068034393600D46236813F0010F3E
:100D900031D06368012B20D0022B25D0364A12684F
:100DA00012F0020F63D034498A6822F00302134321
:100DB0008B60FFF7CDFB06462F4B9B6803F00C03BF
:100DC0006268B3EB820F16D0FFF7C2FB801B41F2C3
:100DD00088339842F0D90320B9E7274A126812F401
:100DE000003FE0D10120B2E7234A126812F0007FF1
:100DF000D9D10120ABE71F4B1B6803F00F03AB42B7
:100E00000CD91C4A136823F00F032B43136013689B
:100E100003F00F03AB4201D0012098E7236813F0E1
:100E2000040F06D0144A936823F4E053E1680B439F
:100E30009360236813F0080F07D00F4A936823F4D8
:100E40006043216943EAC1039360FFF715FF0A4B32
:100E50009B68C3F30313094AD35CD840084B18605E
:100E6000002001F057FD002071E7012070470120AC
:100E70006DE700BF003C024000380240BC2A000879
:100E800008000020014B1868704700BF08000020D0
:100E900008B5FFF7F7FF044B9B68C3F38223034AAF
:100EA000D35CD84008BD00BF00380240CC2A0008FF
:100EB00008B5FFF7E7FF044B9B68C3F34233034ACF
:100EC000D35CD84008BD00BF00380240CC2A0008DF
:100ED0000F2303600B4B9A6802F0030242609A688A
:100EE00002F0F00282609A6802F4E052C2609B68ED
:100EF000DB0803F4E0530361034B1B6803F00F03AB
:100F00000B60704700380240003C0240F0B583B0EF
:100F10000446036813F0010F0CD0A44B9A6822F426
:100F200000029A609A68C16A0A439A60C36AC3B1B0
:100F3000002600E00026236813F4002F15D09B4AFA
:100F4000D2F88C3023F44013616B0B43C2F88C3021
:100F5000636BB3F5801F06D0002B00F005810025E0
:100F600004E00126E7E70126F6E70025236813F4ED
:100F7000801F0FD08D4AD2F88C3023F44003A16B30
:100F80000B43C2F88C30A36BB3F5800F00F0EE80FA
:100F900003B90125236813F0200F40F0E98023688E
:100FA00013F0100F0CD0814BD3F88C2022F08072FC
:100FB000C3F88C20D3F88C20216B0A43C3F88C2013
:100FC000236813F4804F08D0784AD2F8903023F485
:100FD0004033E16D0B43C2F89030236813F4004FA7
:100FE00008D0724AD2F8903023F44023216E0B438C
:100FF000C2F89030236813F4803F08D06B4AD2F8CF
:10100000903023F44013616E0B43C2F89030236894
:1010100013F0400F08D0654AD2F8903023F0030354
:10102000E16B0B43C2F89030236813F0800F08D0B7
:101030005E4AD2F8903023F00C03216C0B43C2F8C7
:101040009030236813F4807F08D0584AD2F890304B
:1010500023F03003616C0B43C2F89030236813F423
:10106000007F08D0514AD2F8903023F0C003A16C21
:101070000B43C2F89030236813F4806F08D04B4ABA
:10108000D2F8903023F44073E16C0B43C2F89030F7
:10109000236813F4006F08D0444AD2F8903023F448
:1010A0004063216D0B43C2F89030236813F4805FD6
:1010B00008D03E4AD2F8903023F44053616D0B4380
:1010C000C2F89030236813F4005F08D0374AD2F892
:1010D000903023F44043A16D0B43C2F89030236855
:1010E00013F4001F0DD0314AD2F8903023F0006382
:1010F000616F0B43C2F89030636FB3F1006F00F083
:10110000A180236813F4802F08D0284AD2F89030A9
:1011100023F04073E16E0B43C2F89030236813F460
:10112000000F08D0214AD2F8903023F08053A16FED
:101130000B43C2F89030236813F0806F08D01B4A2D
:10114000D2F8903023F00053E16F0B43C2F8903097
:10115000002E79D12368B3F1007F75D0002D40F0C7
:10116000E380002003B0F0BD0125FFE601260FE774
:101170000E4B1A6C42F080521A641B6C03F08053C1
:101180000193019B0A4A136843F480731360FFF7CD
:10119000DFF90746064B1B6813F4807F0AD1FFF77F
:1011A000D7F9C01B6428F5D90320DBE700380240DB
:1011B000007000408D4B1B6F13F4407315D0A26A72
:1011C00002F440729A4210D0884B1A6F22F4407297
:1011D000196F41F480311967196F21F48031196753
:1011E0001A671B6F13F0010F12D1A36A03F4407248
:1011F000B2F5407F1DD07D4A936823F4F8139360C5
:101200007A490B6FA26AC2F30B0213430B67C6E65F
:10121000FFF79EF90746754B1B6F13F0020FE4D1E1
:10122000FFF796F9C01B41F288339842F3D90320A7
:1012300098E76E48826822F4F8126D4919400A4313
:101240008260DDE701255CE7684A136823F080636C
:101250001360FFF77DF90646644B1B6813F0006FBF
:1012600006D0FFF775F9801B6428F5D9032079E7CC
:10127000236813F0010F0ED0E36A63B95B4AD2F81A
:101280008430616803F0706343EA8113A16843EA24
:101290000173C2F88430236813F4002F03D0626B0B
:1012A000B2F5801F06D013F4801F19D0A36BB3F5DD
:1012B000800F15D14D4AD2F884106068E3681B0690
:1012C00043EA801301F0E0410B43C2F88430D2F8C6
:1012D0008C3023F01F03E16901390B43C2F88C30D5
:1012E000236813F0007F0AD06268E3681B0643EAB4
:1012F0008213A26843EA02733C4AC2F884303B4A34
:10130000136843F080631360FFF722F90646374BFA
:101310001B6813F0006F7FF421AFFFF719F9801BF2
:101320006428F4D903201DE7304A136823F0805362
:101330001360FFF70DF905462C4B1B6813F0005F97
:1013400006D0FFF705F9401B6428F5D9032009E70B
:10135000236813F4002F01D0626B22B113F4801FB5
:1013600018D0A36BB3B9214AD2F88830216903F4AD
:10137000403343EA8113616943EA0163C2F888306C
:10138000D2F88C3023F4F853216A013943EA01235F
:10139000C2F88C30236813F4001F03D0636FB3F1DD
:1013A000006F13D0114A136843F080531360FFF7A6
:1013B000CFF804460D4B1B6813F0005F14D1FFF704
:1013C000C7F8001B6428F5D90320CBE60749D1F8FC
:1013D00088202069A3691B0443EA801302F070622D
:1013E0001343C1F88830DDE70020BBE60038024037
:1013F000FFFCFF0FF8B505460F4616461C462B6846
:101400009B683B40B34238D0B4F1FF3FF7D02CB1DA
:10141000FFF79EF8069BC01AA042F0D32A685368D3
:1014200023F0E00353606B68B3F5827F0BD0AB6AA7
:10143000B3F5005F14D0012385F85D30002385F8F3
:101440005C3003201AE0AB68B3F5806F18BFB3F5CA
:10145000004FECD12A68136823F040031360E6E7DD
:101460002A68136823F400531B041B0C13602A68BA
:10147000136843F400531360DDE70020F8BDF0B5B6
:1014800083B007460D4614461E4602E0B6F1FF3F04
:1014900010D13A6893682B40A34241D0B5F5C06F94
:1014A00008BF002CF2D1137BDBB28DF807309DF81A
:1014B0000730EBE72EB1FFF74BF8089BC01AB0429C
:1014C000E7D33A68536823F0E00353607B68B3F5D1
:1014D000827F0BD0BB6AB3F5005F14D0012387F87D
:1014E0005D30002387F85C3003201AE0BB68B3F559
:1014F000806F18BFB3F5004FECD13A68136823F042
:1015000040031360E6E73A68136823F400531B04B2
:101510001B0C13603A68136843F400531360DDE753
:10152000002003B0F0BD70B582B004460D461646EB
:1015300000920B4600224FF4C051FFF7A0FFB8B94C
:1015400000962B46002280212046FFF753FFB8B9B2
:1015500000962B4600224FF4C0612046FFF78FFF14
:10156000034650B1236E43F020032366032304E0B7
:10157000236E43F0200323660323184602B070BD98
:10158000236E43F0200323660323F6E770B582B091
:1015900004460D4616464368B3F5827F0FD0009689
:1015A0002B46002280212046FFF724FF034698B9EE
:1015B0006268B2F5827F15D0184602B070BD8368AC
:1015C000B3F5806F18BFB3F5004FE8D10268136818
:1015D00023F040031360E2E7236E43F02003236609
:1015E0000323E9E7A268B2F5806F18BFB2F5004F98
:1015F000E2D100962B4600224FF4C0612046FFF74F
:101600003EFF03460028D7D0236E43F02003236615
:101610000323D1E7002858D010B504460023836285
:1016200090F85D30002B45D0022384F85D302268AD
:10163000136823F040031360E368B3F5E06F3ED90D
:101640000022B3F5706F18BFB3F5E06F01D0002131
:10165000A162216B21B9B3F5E06F33D90223236373
:101660006368A1680B4321690B4361690B43A1695E
:1016700001F400710B43E1690B43216A0B43A06A3B
:10168000216803430B60638B03F00403616A0B431F
:10169000616B0B43E1680B43216813434B60226885
:1016A000D36923F40063D36100202066012384F80A
:1016B0005D3010BD80F85C3001F0D2F8B4E74FF433
:1016C0008052BEE701232363CAE7012070472DE95A
:1016D000F04182B01E4690F85C30012B00F0AC80E7
:1016E00004460D469046012380F85C30FEF730FF3B
:1016F000074694F85D30DBB2012B09D002200123AC
:1017000084F85D30002384F85C3002B0BDE8F081DD
:10171000B8FA88F35B09002D08BF0123002B40F0C5
:101720008380032384F85D3000232366A563A4F837
:101730003C80A4F83E802364A4F84430A4F84630EA
:101740002365E364A368B3F5004F0DD023681A68DE
:1017500012F0400F03D11A6842F040021A60E368A9
:10176000B3F5E06F0BD82FE02268136843F4804391
:101770001360EBE7002E59D0B6F1FF3F10D1E38F95
:101780009BB2002B3BD023689A6812F0020FF1D075
:1017900035F8022BDA60E38F013B9BB2E387EEE77B
:1017A000FEF7D6FEC01BB042E9D30320A7E72A7894
:1017B0001A73E38F013B9BB2E387013504E0002EEF
:1017C00036D0B6F1FF3F13D1E38F9BB2BBB1236894
:1017D0009A6812F0020FF2D0E28F92B2012AE6D993
:1017E00035F8022BDA60E38F023B9BB2E387EBE72D
:1017F000FEF7AEFEC01BB042E6D303207FE73A46B9
:1018000031462046FFF78FFE08B120232366A368E8
:1018100033B901932368DA6801929B680193019BB5
:10182000236E3BB900206AE7012068E7032066E7E2
:10183000032064E7012062E7022066E72DE9F84310
:101840009846089D90F85C30012B00F043810446D7
:101850000F461646012380F85C30FEF779FE81467C
:1018600094F85D30DBB26268012B13D0B2F5827F51
:1018700008D00220012384F85D30002384F85C3016
:10188000BDE8F883A268002A40F01C81042B01D037
:101890000220EFE7B6FA86F35B09002F08BF0123A9
:1018A000002B40F01181B8F1000F00F00F8194F887
:1018B0005D30DBB2042B02D0052384F85D300023B9
:1018C00023662664A4F84680A4F84480A763A4F89D
:1018D0003E80A4F83C80E3642365E368B3F5E06FE1
:1018E00004D8B4F846309BB2012B22D92268536841
:1018F00023F48053536023681A6812F0400F03D119
:101900001A6842F040021A60E368B3F5E06F54D9F8
:1019100063681BB1E38F9BB2012B07D1236837F8B3
:10192000022BDA60E38F013B9BB2E3874FF00108A3
:101930001CE02268536843F480535360DBE7B4F83B
:1019400046309BB27BB123689A6812F0010F0AD02F
:10195000DB6826F8023BB4F84630013B9BB2A4F8A2
:1019600046304FF00108B5F1FF3F1ED1E38F9BB227
:101970002BB9B4F846309BB2002B00F09780B8F139
:10198000000FDCD0E38F9BB2002BD8D023689A687D
:1019900012F0020FD3D037F8022BDA60E38F013B4D
:1019A0009BB2E3874FF00008C9E7FEF7D1FDA0EB3B
:1019B0000900A842DAD303205CE763681BB1E38F18
:1019C0009BB2012B07D1236817F8012B1A73E38F01
:1019D000013B9BB2E3874FF0010829E03A781A7384
:1019E000E38F013B9BB2E38701374FF00008B4F867
:1019F00046309BB2CBB123689A6812F0010F14D025
:101A0000B4F8462092B2012A3CD9DB6826F8023BA2
:101A1000B4F84630023B9BB2A4F84630B4F84630E6
:101A20009BB2012B26D94FF00108B5F1FF3F35D10C
:101A3000E38F9BB223B9B4F846309BB2002B35D06C
:101A4000B8F1000FD3D0E38F9BB2002BCFD0236827
:101A50009A6812F0020FCAD0E28F92B2012ABDD961
:101A600037F8022BDA60E38F023B9BB2E3874FF03B
:101A70000008BCE72268536843F4805353604FF07A
:101A80000108D2E71B7B3370B4F84630013B9BB2B0
:101A9000A4F8463001364FF00108C6E7FEF758FDBE
:101AA000A0EB0900A842C3D30320E3E64A46294637
:101AB0002046FFF738FD08B120232366236E3BB98B
:101AC0000020D7E60220D5E60120D3E60120D1E6AA
:101AD0000120CFE60220D3E62DE9F04182B0044692
:101AE0000D4690461E464368B3F5827F19D094F8A0
:101AF0005C30012B00F0B080012384F85C30FEF7ED
:101B000027FD074694F85D30DBB2012B15D002208B
:101B1000012384F85D30002384F85C3002B0BDE816
:101B2000F0818368002BE2D1042380F85D300096B9
:101B300013460A46FFF782FEF0E7B8FA88F35B091E
:101B4000002D08BF0123002B7ED1042384F85D30D3
:101B5000002323662564A4F84480A4F84680A36388
:101B6000A387E387E3642365E368B3F5E06F16D9E1
:101B70002268536823F480535360A368B3F5004F81
:101B800013D023681A6812F0400F03D11A6842F08C
:101B900040021A60E368B3F5E06F11D92EE02268C5
:101BA000536843F480535360E7E72268136823F4D3
:101BB00080431360E5E7002E48D0B6F1FF3F12D115
:101BC000B4F846309BB29BB323689A6812F0010FB9
:101BD000F1D01B7B05F8013BB4F84630013B9BB2CA
:101BE000A4F84630ECE7FEF7B3FCC01BB042E7D3E5
:101BF00003208DE766B3B6F1FF3F12D1B4F846304B
:101C00009BB2ABB123689A6812F0010FF2D0DB6887
:101C100025F8023BB4F84630013B9BB2A4F84630AD
:101C2000ECE7FEF795FCC01BB042E7D303206FE75B
:101C30003A4631462046FFF7A9FC08B12023236627
:101C4000236E3BB9002063E7012061E703205FE7D3
:101C500003205DE701205BE702205FE77047026831
:101C6000D36843F00103D3600268136843F00103B3
:101C7000136000207047704770477047704710B579
:101C8000044603681A6912F0020F11D0DA6812F0E4
:101C9000020F0DD06FF002021A610123037703686F
:101CA0009B6913F0030F79D0FFF7E6FF002323773A
:101CB00023681A6912F0040F12D0DA6812F0040FC8
:101CC0000ED06FF004021A610223237723689B6908
:101CD00013F4407F68D02046FFF7CEFF0023237720
:101CE00023681A6912F0080F12D0DA6812F0080F90
:101CF0000ED06FF008021A61042323772368DB6992
:101D000013F0030F57D02046FFF7B6FF00232377C9
:101D100023681A6912F0100F12D0DA6812F0100F4F
:101D20000ED06FF010021A61082323772368DB6955
:101D300013F4407F46D02046FFF79EFF0023237711
:101D400023681A6912F0010F03D0DA6812F0010F4C
:101D50003FD123681A6912F0800F03D0DA6812F0BD
:101D6000800F3DD123681A6912F4807F03D0DA68AE
:101D700012F0800F3BD123681A6912F0400F03D094
:101D8000DA6812F0400F39D123681A6912F0200F77
:101D900003D0DA6812F0200F37D110BDFFF76BFFC8
:101DA0002046FFF76AFF81E72046FFF764FF2046E1
:101DB000FFF763FF92E72046FFF75DFF2046FFF73E
:101DC0005CFFA3E72046FFF756FF2046FFF755FFCD
:101DD000B4E76FF001021A61204600F0F7FBB8E7A4
:101DE0006FF080021A61204600F0B6F8BAE76FF093
:101DF00080021A61204600F0AFF8BCE76FF04002A5
:101E00001A612046FFF73AFFBEE76FF020021A6121
:101E1000204600F0A0F8C0E770B403683A4CA04236
:101E200014BF00240124B0F1804F14BF224644F0B7
:101E30000102AAB9354DA84214BF00250125344E30
:101E4000B0420DD065B905F1804505F58235A8424F
:101E500014BF0025012506F50066B04200D01DB173
:101E600023F070034D682B43002A33D1274A904258
:101E700014BF00220122264DA8422BD052BB02F1F2
:101E8000804202F58232904214BF0022012205F501
:101E90000065A8421ED0EAB91E4A904214BF002233
:101EA000012205F59A35A84214D09AB91A4A9042EF
:101EB00014BF0022012205F50065A8420AD04AB9E4
:101EC000164A904214BF00220122A5F59635A84279
:101ED00000D01AB123F44073CA68134323F080037F
:101EE0004A69134303608A68C2620A6882620C4BC3
:101EF000984214BF234644F001030BB10B690363FE
:101F00000123436170BC704700000140000800409D
:101F10000004004000440140001800400020004040
:101F200000040140A8B110B5044690F83D305BB103
:101F3000022384F83D30211D2068FFF76DFF012347
:101F400084F83D30002010BD80F83C30FFF786FE5D
:101F5000EEE701207047704770472DE9F0410546D4
:101F60000F4616469846069C2B68DB6937EA030342
:101F70000CBF01230023B3421DD1B4F1FF3FF3D0C6
:101F80002CB1FEF7E5FAA0EB0800A042ECD32A68DA
:101F9000136823F4D07313602A68936823F0010355
:101FA0009360202385F8693085F86A30002385F82E
:101FB0006830032000E00020BDE8F0812DE9F04109
:101FC00082B01E4690F86930DBB2202B52D1044615
:101FD0000D469046B2FA82F35B09002908BF01233F
:101FE000002B4CD190F86830012B4AD0012380F8A7
:101FF00068300023C366212380F86930FEF7A8FA11
:102000000746A4F85080A4F8528003E02A78236899
:102010009A620135B4F852309BB2DBB1B4F8523059
:10202000013B9BB2A4F8523000963B46002280212F
:102030002046FFF792FF30BBA368B3F5805FE5D180
:102040002369002BE2D135F8023B2268C3F3080371
:102050009362DFE700963B46002240212046FFF7CF
:102060007CFF034688B9202284F86920002284F886
:10207000682000E00223184602B0BDE8F081012389
:10208000F9E70223F7E70323F5E70323F3E700006B
:1020900010B5044683680269134342691343C26959
:1020A0001343016808689D4A024013430B6022688D
:1020B000536823F44053E1680B435360A369226AD9
:1020C0001A4321688B6823F4306313438B602368C1
:1020D000934A934219D0934A93422AD0924A934208
:1020E00040D0924A934255D0914A93426AD0914A45
:1020F000934200F08280904A934200F099808F4A88
:10210000934200F0B0801022C9E002F59432D2F878
:10211000902002F00302032A03D8DFE802F0BF0692
:1021200004081022BBE00222B9E00422B7E0082232
:10213000B5E002F5FA32D2F8902002F00C020C2A37
:1021400008D8DFE802F0BA0707070B0707070907F7
:1021500007070D001022A2E00222A0E004229EE068
:1021600008229CE002F5F832D2F8902002F030020A
:10217000102A0DD005D9202A08D0302A04D10822EF
:102180008DE00AB900228AE0102288E0022286E06F
:10219000042284E002F5F632D2F8902002F0C00268
:1021A000402A0DD005D9802A08D0C02A04D108229F
:1021B00075E00AB9002272E0102270E002226EE09F
:1021C00004226CE002F5F432D2F8902002F440725E
:1021D000B2F5807F0FD007D9B2F5007F09D0B2F5F4
:1021E000407F04D108225AE00AB9002257E01022A9
:1021F00055E0022253E0042251E002F59232D2F877
:10220000902002F44062B2F5806F0FD007D9B2F58A
:10221000006F09D0B2F5406F04D108223FE00AB93F
:1022200001223CE010223AE0022238E0042236E0AB
:1022300002F5E032D2F8902002F44052B2F5805F0D
:102240000FD007D9B2F5005F09D0B2F5405F04D1D5
:10225000082224E00AB9002221E010221FE0022215
:102260001DE004221BE002F5DE32D2F8902002F4D9
:102270004042B2F5804F0FD007D9B2F5004F09D0D8
:10228000B2F5404F04D1082209E00AB9002206E065
:10229000102204E0022202E0042200E00122E169AF
:1022A000B1F5004F0BD0082A00F29B80DFE802F066
:1022B000616D7999839999998F000022EFE7082A37
:1022C00054D8DFE802F0051722533F5353534A0016
:1022D000FEF7DEFD6268530803EB4003B3FBF2F345
:1022E0009BB2002023F00F02C3F342031343226882
:1022F000D36010BDFEF7DCFD6268530803EB4003BA
:10230000B3FBF2F39BB20020ECE762680C4B03EBEB
:102310005203B3FBF2F39BB20020E3E7F369FFEF54
:10232000001001400044004000480040004C0040C4
:10233000005000400014014000780040007C004044
:102340000048E801FEF798FC6268530803EB40037D
:10235000B3FBF2F39BB20020C4E76268530803F5B5
:102360008033B3FBF2F39BB20020BBE701200023D4
:10237000B8E7FEF78DFD636800EB5300B0FBF3F0A8
:10238000236880B2D8600020B3E7FEF791FD636850
:1023900000EB5300B0FBF3F0236880B2D86000205C
:1023A000A7E76168104A02EB5102B2FBF1F292B268
:1023B000DA6000209DE7FEF75FFC636800EB5300E6
:1023C000B0FBF3F0236880B2D860002091E7616829
:1023D0004A0802F50042B2FBF1F292B2DA60002044
:1023E00087E7012085E700BF0024F400436A13F06B
:1023F000010F06D00268536823F40033816A0B434F
:102400005360436A13F0020F06D00268536823F446
:102410008033C16A0B435360436A13F0040F06D044
:102420000268536823F48023016B0B435360436AB3
:1024300013F0080F06D00268536823F40043416B81
:102440000B435360436A13F0100F06D00268936881
:1024500023F48053816B0B439360436A13F0200F86
:1024600006D00268936823F40053C16B0B4393605A
:10247000436A13F0400F0AD00268536823F48013B4
:10248000016C0B435360036CB3F5801F0BD0436AA0
:1024900013F0800F06D00268536823F40023816C88
:1024A0000B43536070470268536823F4C003416CC8
:1024B0000B435360EBE710B582B004460023C366BC
:1024C000FEF746F82268126812F0080F09D120239F
:1024D00084F8693084F86A30002084F8680002B01B
:1024E00010BD6FF07E430093034600224FF40011AD
:1024F0002046FFF732FD0028E9D00320EFE778B34C
:1025000010B5044690F869300BB3242384F8693081
:102510002268136823F0010313602046FFF7B8FD1B
:10252000012813D0636ABBB92268536823F490432F
:1025300053602268936823F02A039360226813682B
:1025400043F0010313602046FFF7B5FF10BD80F88C
:10255000683000F0B7F9D8E72046FFF747FFE3E718
:102560000120704786B0184B1A6B42F040021A6384
:102570001A6B02F040020192019A1A6B42F00102BA
:102580001A631A6B02F001020292029A1A6B42F469
:1025900080721A631A6B02F480720392039A1A6BA8
:1025A00042F080021A631A6B02F080020492049ACD
:1025B0001A6B42F004021A631B6B03F004030593C9
:1025C000059B06B0704700BF0038024008B502689E
:1025D000034B9A4200D008BDFDF7AEFFFBE700BFFA
:1025E00000000140FEE7000008B51148114B0360F0
:1025F0004FF482734360002383604FF44072C260E3
:10260000036143614FF4007282612022C261036260
:10261000436283620722C262036308234363FEF7B7
:10262000F9FF00B908BDEE210348FFF7DBFF00BF4B
:102630002C00002000380040D42A000808B50C48BF
:102640000C4B03604FF4E133436000238360C360AD
:1026500003610C2242618361C36103624362FFF73D
:102660004EFF00B908BD40F203110348FFF7BAFF5F
:102670009000002000140140D42A000800B5B5B035
:10268000344B1A6C42F080521A641B6C03F0805376
:102690000193019B304B1A6842F440421A601B6858
:1026A00003F440430293029B0223289301222B92BE
:1026B00010222C922E9300222F9208223092D822A0
:1026C000319232930923339328A8FEF7EBF880BBAD
:1026D000FEF7AAF888BB0F23239302232493002339
:1026E00025934FF4A05326934FF48053279307214B
:1026F00023A8FEF715FB20BB4FF4006303930023D0
:10270000179303A8FEF702FCF8B9FEF7BBFB134BC7
:10271000A3FB00308009FDF771FF0420FDF784FF63
:10272000002211464FF0FF30FDF72AFF35B05DF86B
:1027300004FBAE210A48FFF755FFB5210848FFF713
:1027400051FFC3210648FFF74DFFCA210448FFF798
:1027500049FF00BF0038024000700040D34D6210B6
:10276000D42A000870B582B0FDF7DAFEFFF786FFC5
:10277000FFF7F8FEFFF738FFFFF760FF02ACDD233D
:1027800004F8083D0F4D002208212846FEF746F8C0
:102790000D4E3223012221463046FEF798FF3223A8
:1027A000012201A93046FFF797F9012208212846A6
:1027B000FEF734F83223012221460448FFF7FEFBDE
:1027C000DCE700BF000802402C0000209000002041
:1027D00000B583B0214B1A6C42F080521A641A6C17
:1027E00002F080520092009A5A6C42F480425A647D
:1027F0005B6C03F480430193019B0320FDF7AEFE65
:10280000002211466FF00B00FDF7BAFE00221146C0
:102810006FF00A00FDF7B4FE002211466FF00900C8
:10282000FDF7AEFE002211466FF00400FDF7A8FE92
:10283000002211466FF00300FDF7A2FE00221146B0
:102840006FF00100FDF79CFE002211464FF0FF30B3
:10285000FDF796FE03B05DF804FB00BF00380240B0
:102860000268154B9A4200D07047F0B587B003F567
:1028700000331A6C42F480421A641B6C03F48043E8
:102880000093009B022401940294002703970326DF
:1028900004960525059501A90848FDF7DBFE0C23E4
:1028A0000193029403970496059501A90448FDF746
:1028B000D1FE07B0F0BD00BF00380040002002404C
:1028C000000802400268114B9A4200D0704700B5E0
:1028D00087B003F592335A6C42F020025A645B6C65
:1028E00003F020030093009B4FF4844301930223E1
:1028F000029300230393032304930823059301A960
:102900000348FDF7A7FE07B05DF804FB0014014083
:102910000018024000B589B0002201461920FDF7D9
:102920002FFE1920FDF75EFE154B5A6C42F0010296
:102930005A645B6C03F001030193019B02A903A895
:10294000FEF7C6FAFEF7B4FA43000E48A0FB0323D5
:102950009B0C013B0C480D4A026040F2E732C2601A
:102960004360002303618360FFF7DCFA18B10120A4
:1029700009B05DF804FB0448FFF771F9F8E700BF00
:102980000038024083DE1B430001002000000140AC
:102990007047FEE7FEE7FEE7FEE7704770477047C7
:1029A00008B5FDF752FE08BD08B50248FFF767F904
:1029B00008BD00BF0001002010B40F4AD2F88830D3
:1029C00043F47003C2F888300C4B196841F00101E0
:1029D0001960002098601C68094921401960094964
:1029E0005960196821F480211960D8604FF00063A4
:1029F00093605DF8044B704700ED00E00038024042
:102A0000FFFFF6FE10300024DFF834D0002103E091
:102A10000C4B5B58435004310B480C4B42189A4204
:102A2000F6D30B4A02E0002342F8043B094B9A42DA
:102A3000F9D3FFF7C1FF00F011F8FFF793FE7047DD
:102A400000000420F42A0008000000200C000020F0
:102A50000C00002040010020FEE7000070B50D4E84
:102A60000D4CA41BA4100025A54209D10B4E0C4C03
:102A700000F018F8A41BA4100025A54205D170BDD4
:102A800056F8253098470135EEE756F82530984737
:102A90000135F2E7EC2A0008EC2A0008EC2A0008CD
:102AA000F02A0008F8B500BFF8BC08BC9E46704785
:0C2AB000F8B500BFF8BC08BC9E4670479B
:102ABC0000000000000000000102030406070809E2
:102ACC0000000000010203042E2E2F5372632F6DA1
:082ADC0061696E2E6300000029
:082AE4006CD7FF7F0100000028
:042AEC0005020008D7
:042AF000E1010008F8
:0C2AF40001000000100000000024F400AD
:0400000508002A09BC
:00000001FF
